{
  "contractName": "Lockable",
  "abi": [
    {
      "constant": true,
      "inputs": [
        {
          "name": "_member",
          "type": "address"
        }
      ],
      "name": "getUnlockTime",
      "outputs": [
        {
          "name": "",
          "type": "uint256"
        }
      ],
      "payable": false,
      "stateMutability": "view",
      "type": "function"
    },
    {
      "constant": true,
      "inputs": [],
      "name": "getLockDuration",
      "outputs": [
        {
          "name": "",
          "type": "uint256"
        }
      ],
      "payable": false,
      "stateMutability": "view",
      "type": "function"
    },
    {
      "constant": true,
      "inputs": [
        {
          "name": "_member",
          "type": "address"
        }
      ],
      "name": "isLocking",
      "outputs": [
        {
          "name": "",
          "type": "bool"
        }
      ],
      "payable": false,
      "stateMutability": "view",
      "type": "function"
    }
  ],
  "bytecode": "0x608060405234801561001057600080fd5b50610267806100206000396000f3fe608060405260043610610057576000357c0100000000000000000000000000000000000000000000000000000000900463ffffffff168063d12c33b71461005c578063dbed1e88146100c5578063e239c4001461012a575b600080fd5b34801561006857600080fd5b506100ab6004803603602081101561007f57600080fd5b81019080803573ffffffffffffffffffffffffffffffffffffffff169060200190929190505050610155565b604051808215151515815260200191505060405180910390f35b3480156100d157600080fd5b50610114600480360360208110156100e857600080fd5b81019080803573ffffffffffffffffffffffffffffffffffffffff1690602001909291905050506101e9565b6040518082815260200191505060405180910390f35b34801561013657600080fd5b5061013f610231565b6040518082815260200191505060405180910390f35b6000806000808473ffffffffffffffffffffffffffffffffffffffff1673ffffffffffffffffffffffffffffffffffffffff16815260200190815260200160002054141580156101e25750426000808473ffffffffffffffffffffffffffffffffffffffff1673ffffffffffffffffffffffffffffffffffffffff16815260200190815260200160002054115b9050919050565b60008060008373ffffffffffffffffffffffffffffffffffffffff1673ffffffffffffffffffffffffffffffffffffffff168152602001908152602001600020549050919050565b600060015490509056fea165627a7a72305820f7fa88be21288957f86ff3423bc01260d34bee7abe241ac3621fad473e8b77c80029",
  "source": "pragma solidity ^0.5.0;\r\n\r\ncontract Lockable {\r\n    mapping(address => uint256) internal unlockTime;\r\n    uint256 internal lockDuration;\r\n\r\n    modifier notLocking() {\r\n        require(!isLocking(msg.sender), \"still locking\");\r\n        _;\r\n    }\r\n\r\n    function _setLockDuration(\r\n        uint256 _lockDuration\r\n    )\r\n        internal\r\n    {\r\n        lockDuration = _lockDuration;\r\n    }\r\n\r\n    function _lock(\r\n        address _member\r\n    )\r\n        internal\r\n    {\r\n        unlockTime[_member] = block.timestamp + lockDuration;\r\n    }\r\n\r\n    function _unlock(\r\n        address _member\r\n    )\r\n        internal\r\n    {\r\n        unlockTime[_member] = 0;\r\n    }\r\n\r\n    // Read Functions\r\n\r\n    function getUnlockTime(\r\n        address _member\r\n    )\r\n        public\r\n        view\r\n        returns(uint256)\r\n    {\r\n        return unlockTime[_member];\r\n    }\r\n\r\n    function getLockDuration()\r\n        public\r\n        view\r\n        returns(uint256)\r\n    {\r\n        return lockDuration;\r\n    }\r\n\r\n    function isLocking(\r\n        address _member\r\n    )\r\n        public\r\n        view\r\n        returns(bool)\r\n    {\r\n        return unlockTime[_member] != 0 && unlockTime[_member] > block.timestamp;\r\n    }\r\n}",
  "sourcePath": "C:\\Users\\bestb\\Desktop\\workshop\\sealing-pool\\contracts\\ntfPool\\Lockable.sol",
  "compiler": {
    "name": "solc",
    "version": "0.5.0+commit.1d4f565a.Emscripten.clang"
  },
  "schemaVersion": "3.0.6",
  "updatedAt": "2019-05-23T10:00:08.481Z",
  "devdoc": {
    "methods": {}
  },
  "userdoc": {
    "methods": {}
  }
}