{
  "contractName": "Lockable",
  "abi": [
    {
      "constant": true,
      "inputs": [],
      "name": "MAX_LOCK_DURATION",
      "outputs": [
        {
          "name": "",
          "type": "uint256"
        }
      ],
      "payable": false,
      "stateMutability": "view",
      "type": "function"
    },
    {
      "constant": true,
      "inputs": [
        {
          "name": "_member",
          "type": "address"
        }
      ],
      "name": "getUnlockTime",
      "outputs": [
        {
          "name": "",
          "type": "uint256"
        }
      ],
      "payable": false,
      "stateMutability": "view",
      "type": "function"
    },
    {
      "constant": true,
      "inputs": [],
      "name": "getLockDuration",
      "outputs": [
        {
          "name": "",
          "type": "uint256"
        }
      ],
      "payable": false,
      "stateMutability": "view",
      "type": "function"
    },
    {
      "constant": true,
      "inputs": [
        {
          "name": "_member",
          "type": "address"
        }
      ],
      "name": "isLocking",
      "outputs": [
        {
          "name": "",
          "type": "bool"
        }
      ],
      "payable": false,
      "stateMutability": "view",
      "type": "function"
    }
  ],
  "bytecode": "0x608060405234801561001057600080fd5b50610259806100206000396000f3fe608060405260043610610062576000357c0100000000000000000000000000000000000000000000000000000000900463ffffffff1680634f1bfc9e14610067578063d12c33b714610092578063dbed1e88146100fb578063e239c40014610160575b600080fd5b34801561007357600080fd5b5061007c61018b565b6040518082815260200191505060405180910390f35b34801561009e57600080fd5b506100e1600480360360208110156100b557600080fd5b81019080803573ffffffffffffffffffffffffffffffffffffffff169060200190929190505050610191565b604051808215151515815260200191505060405180910390f35b34801561010757600080fd5b5061014a6004803603602081101561011e57600080fd5b81019080803573ffffffffffffffffffffffffffffffffffffffff1690602001909291905050506101db565b6040518082815260200191505060405180910390f35b34801561016c57600080fd5b50610175610223565b6040518082815260200191505060405180910390f35b60025481565b6000426000808473ffffffffffffffffffffffffffffffffffffffff1673ffffffffffffffffffffffffffffffffffffffff16815260200190815260200160002054119050919050565b60008060008373ffffffffffffffffffffffffffffffffffffffff1673ffffffffffffffffffffffffffffffffffffffff168152602001908152602001600020549050919050565b600060015490509056fea165627a7a72305820626251c5cdb96ad2af618e81113c5806d0127c45b8296a04e3d32a2318f602a30029",
  "source": "pragma solidity ^0.5.0;\r\n\r\ncontract Lockable {\r\n    mapping(address => uint256) internal unlockTime;\r\n    uint256 internal lockDuration;\r\n    uint256 public MAX_LOCK_DURATION; // = 30 days;\r\n\r\n    modifier notLocking() {\r\n        require(!isLocking(msg.sender), \"still locking\");\r\n        _;\r\n    }\r\n\r\n    modifier validLockDuration(uint256 _lockDuration) {\r\n        require(_lockDuration <= MAX_LOCK_DURATION, \"dont lock too long\");\r\n        _;\r\n    }\r\n\r\n    function _setLockDuration(\r\n        uint256 _lockDuration\r\n    )\r\n        internal\r\n        validLockDuration(_lockDuration)\r\n    {\r\n        lockDuration = _lockDuration;\r\n    }\r\n\r\n    function _setLock(\r\n        address _member\r\n    )\r\n        internal\r\n    {\r\n        unlockTime[_member] = block.timestamp + lockDuration;\r\n    }\r\n\r\n    function _relock(\r\n        address _member\r\n    )\r\n        internal\r\n    {\r\n        unlockTime[_member] = 0;\r\n    }\r\n\r\n    // Read Functions\r\n\r\n    function getUnlockTime(\r\n        address _member\r\n    )\r\n        public\r\n        view\r\n        returns(uint256)\r\n    {\r\n        return unlockTime[_member];\r\n    }\r\n\r\n    function getLockDuration()\r\n        public\r\n        view\r\n        returns(uint256)\r\n    {\r\n        return lockDuration;\r\n    }\r\n\r\n    function isLocking(\r\n        address _member\r\n    )\r\n        public\r\n        view\r\n        returns(bool)\r\n    {\r\n        return unlockTime[_member] > block.timestamp;\r\n    }\r\n}",
  "sourcePath": "C:\\Users\\bestb\\Desktop\\workshop\\sealing-pool\\contracts\\ntfPool\\Lockable.sol",
  "compiler": {
    "name": "solc",
    "version": "0.5.0+commit.1d4f565a.Emscripten.clang"
  },
  "schemaVersion": "3.0.6",
  "updatedAt": "2019-05-27T03:41:19.625Z",
  "devdoc": {
    "methods": {}
  },
  "userdoc": {
    "methods": {}
  }
}