{
  "contractName": "Lockable",
  "abi": [
    {
      "constant": true,
      "inputs": [],
      "name": "MAX_LOCK_DURATION",
      "outputs": [
        {
          "name": "",
          "type": "uint256"
        }
      ],
      "payable": false,
      "stateMutability": "view",
      "type": "function"
    },
    {
      "constant": true,
      "inputs": [
        {
          "name": "_member",
          "type": "address"
        }
      ],
      "name": "getUnlockTime",
      "outputs": [
        {
          "name": "",
          "type": "uint256"
        }
      ],
      "payable": false,
      "stateMutability": "view",
      "type": "function"
    },
    {
      "constant": true,
      "inputs": [],
      "name": "getLockDuration",
      "outputs": [
        {
          "name": "",
          "type": "uint256"
        }
      ],
      "payable": false,
      "stateMutability": "view",
      "type": "function"
    },
    {
      "constant": true,
      "inputs": [
        {
          "name": "_member",
          "type": "address"
        }
      ],
      "name": "isLocking",
      "outputs": [
        {
          "name": "",
          "type": "bool"
        }
      ],
      "payable": false,
      "stateMutability": "view",
      "type": "function"
    }
  ],
  "bytecode": "0x608060405234801561001057600080fd5b5061022c806100206000396000f3fe608060405234801561001057600080fd5b5060043610610069576000357c0100000000000000000000000000000000000000000000000000000000900480634f1bfc9e1461006e578063d12c33b71461008c578063dbed1e88146100e8578063e239c40014610140575b600080fd5b61007661015e565b6040518082815260200191505060405180910390f35b6100ce600480360360208110156100a257600080fd5b81019080803573ffffffffffffffffffffffffffffffffffffffff169060200190929190505050610164565b604051808215151515815260200191505060405180910390f35b61012a600480360360208110156100fe57600080fd5b81019080803573ffffffffffffffffffffffffffffffffffffffff1690602001909291905050506101ae565b6040518082815260200191505060405180910390f35b6101486101f6565b6040518082815260200191505060405180910390f35b60025481565b6000426000808473ffffffffffffffffffffffffffffffffffffffff1673ffffffffffffffffffffffffffffffffffffffff16815260200190815260200160002054119050919050565b60008060008373ffffffffffffffffffffffffffffffffffffffff1673ffffffffffffffffffffffffffffffffffffffff168152602001908152602001600020549050919050565b600060015490509056fea165627a7a723058200c6b236a57cee197c715e4b3bf306215bb6674f02011fd040a647e78d170ae030029",
  "source": "pragma solidity ^0.5.0;\n\ncontract Lockable {\n    mapping(address => uint256) internal unlockTime;\n    uint256 internal lockDuration;\n    uint256 public MAX_LOCK_DURATION; // = 30 days;\n\n    modifier notLocking() {\n        require(!isLocking(msg.sender), \"still locking\");\n        _;\n    }\n\n    modifier validLockDuration(uint256 _lockDuration) {\n        require(_lockDuration <= MAX_LOCK_DURATION, \"dont lock too long\");\n        _;\n    }\n\n    function _setLockDuration(\n        uint256 _lockDuration\n    )\n        internal\n        validLockDuration(_lockDuration)\n    {\n        lockDuration = _lockDuration;\n    }\n\n    function _setLock(\n        address _member\n    )\n        internal\n    {\n        unlockTime[_member] = block.timestamp + lockDuration;\n    }\n\n    function _relock(\n        address _member\n    )\n        internal\n    {\n        unlockTime[_member] = 0;\n    }\n\n    // Read Functions\n\n    function getUnlockTime(\n        address _member\n    )\n        public\n        view\n        returns(uint256)\n    {\n        return unlockTime[_member];\n    }\n\n    function getLockDuration()\n        public\n        view\n        returns(uint256)\n    {\n        return lockDuration;\n    }\n\n    function isLocking(\n        address _member\n    )\n        public\n        view\n        returns(bool)\n    {\n        return unlockTime[_member] > block.timestamp;\n    }\n}",
  "sourcePath": "/home/dathoang/Documents/Project/sealing-pool/contracts/ntfPool/Lockable.sol",
  "compiler": {
    "name": "solc",
    "version": "0.5.2+commit.1df8f40c.Emscripten.clang"
  },
  "schemaVersion": "3.0.14",
  "updatedAt": "2020-04-24T09:37:24.266Z",
  "devdoc": {
    "methods": {}
  },
  "userdoc": {
    "methods": {}
  }
}