{
  "contractName": "Lockable",
  "abi": [
    {
      "constant": true,
      "inputs": [
        {
          "name": "_member",
          "type": "address"
        }
      ],
      "name": "getUnlockTime",
      "outputs": [
        {
          "name": "",
          "type": "uint256"
        }
      ],
      "payable": false,
      "stateMutability": "view",
      "type": "function"
    },
    {
      "constant": true,
      "inputs": [],
      "name": "getLockDuration",
      "outputs": [
        {
          "name": "",
          "type": "uint256"
        }
      ],
      "payable": false,
      "stateMutability": "view",
      "type": "function"
    },
    {
      "constant": true,
      "inputs": [
        {
          "name": "_member",
          "type": "address"
        }
      ],
      "name": "isLocking",
      "outputs": [
        {
          "name": "",
          "type": "bool"
        }
      ],
      "payable": false,
      "stateMutability": "view",
      "type": "function"
    }
  ],
  "bytecode": "0x608060405234801561001057600080fd5b50610247806100206000396000f3fe608060405234801561001057600080fd5b506004361061005e576000357c010000000000000000000000000000000000000000000000000000000090048063d12c33b714610063578063dbed1e88146100bf578063e239c40014610117575b600080fd5b6100a56004803603602081101561007957600080fd5b81019080803573ffffffffffffffffffffffffffffffffffffffff169060200190929190505050610135565b604051808215151515815260200191505060405180910390f35b610101600480360360208110156100d557600080fd5b81019080803573ffffffffffffffffffffffffffffffffffffffff1690602001909291905050506101c9565b6040518082815260200191505060405180910390f35b61011f610211565b6040518082815260200191505060405180910390f35b6000806000808473ffffffffffffffffffffffffffffffffffffffff1673ffffffffffffffffffffffffffffffffffffffff16815260200190815260200160002054141580156101c25750426000808473ffffffffffffffffffffffffffffffffffffffff1673ffffffffffffffffffffffffffffffffffffffff16815260200190815260200160002054115b9050919050565b60008060008373ffffffffffffffffffffffffffffffffffffffff1673ffffffffffffffffffffffffffffffffffffffff168152602001908152602001600020549050919050565b600060015490509056fea165627a7a723058200c1fb1f39c83a46dd0cc30f99f32e16255208ff682ec628094a0a677ca9380ff0029",
  "source": "pragma solidity ^0.5.0;\r\n\r\ncontract Lockable {\r\n    mapping(address => uint256) internal unlockTime;\r\n    uint256 internal lockDuration;\r\n\r\n    modifier notLocking() {\r\n        require(!isLocking(msg.sender), \"still locking\");\r\n        _;\r\n    }\r\n\r\n    function _setLockDuration(\r\n        uint256 _lockDuration\r\n    )\r\n        internal\r\n    {\r\n        lockDuration = _lockDuration;\r\n    }\r\n\r\n    function _lock(\r\n        address _member\r\n    )\r\n        internal\r\n    {\r\n        unlockTime[_member] = block.timestamp + lockDuration;\r\n    }\r\n\r\n    function _unlock(\r\n        address _member\r\n    )\r\n        internal\r\n    {\r\n        unlockTime[_member] = 0;\r\n    }\r\n\r\n    // Read Functions\r\n\r\n    function getUnlockTime(\r\n        address _member\r\n    )\r\n        public\r\n        view\r\n        returns(uint256)\r\n    {\r\n        return unlockTime[_member];\r\n    }\r\n\r\n    function getLockDuration()\r\n        public\r\n        view\r\n        returns(uint256)\r\n    {\r\n        return lockDuration;\r\n    }\r\n\r\n    function isLocking(\r\n        address _member\r\n    )\r\n        public\r\n        view\r\n        returns(bool)\r\n    {\r\n        return unlockTime[_member] != 0 && unlockTime[_member] > block.timestamp;\r\n    }\r\n}",
  "sourcePath": "C:\\Users\\bestb\\Desktop\\workshop\\sealing-pool\\contracts\\ntfPool\\Lockable.sol",
  "compiler": {
    "name": "solc",
    "version": "0.5.2+commit.1df8f40c.Emscripten.clang"
  },
  "schemaVersion": "3.0.2",
  "updatedAt": "2019-05-17T07:56:58.756Z",
  "devdoc": {
    "methods": {}
  },
  "userdoc": {
    "methods": {}
  }
}