{
  "contractName": "NtfPool",
  "abi": [
    {
      "constant": true,
      "inputs": [],
      "name": "getCurFundCpt",
      "outputs": [
        {
          "name": "",
          "type": "uint256"
        },
        {
          "name": "",
          "type": "uint256"
        }
      ],
      "payable": false,
      "stateMutability": "view",
      "type": "function",
      "signature": "0x02173732"
    },
    {
      "constant": true,
      "inputs": [],
      "name": "name",
      "outputs": [
        {
          "name": "",
          "type": "string"
        }
      ],
      "payable": false,
      "stateMutability": "view",
      "type": "function",
      "signature": "0x06fdde03"
    },
    {
      "constant": false,
      "inputs": [
        {
          "name": "spender",
          "type": "address"
        },
        {
          "name": "value",
          "type": "uint256"
        }
      ],
      "name": "approve",
      "outputs": [
        {
          "name": "",
          "type": "bool"
        }
      ],
      "payable": false,
      "stateMutability": "nonpayable",
      "type": "function",
      "signature": "0x095ea7b3"
    },
    {
      "constant": true,
      "inputs": [],
      "name": "gov",
      "outputs": [
        {
          "name": "",
          "type": "address"
        }
      ],
      "payable": false,
      "stateMutability": "view",
      "type": "function",
      "signature": "0x12d43a51"
    },
    {
      "constant": true,
      "inputs": [],
      "name": "totalSupply",
      "outputs": [
        {
          "name": "",
          "type": "uint256"
        }
      ],
      "payable": false,
      "stateMutability": "view",
      "type": "function",
      "signature": "0x18160ddd"
    },
    {
      "constant": false,
      "inputs": [
        {
          "name": "from",
          "type": "address"
        },
        {
          "name": "to",
          "type": "address"
        },
        {
          "name": "value",
          "type": "uint256"
        }
      ],
      "name": "transferFrom",
      "outputs": [
        {
          "name": "",
          "type": "bool"
        }
      ],
      "payable": false,
      "stateMutability": "nonpayable",
      "type": "function",
      "signature": "0x23b872dd"
    },
    {
      "constant": true,
      "inputs": [],
      "name": "decimals",
      "outputs": [
        {
          "name": "",
          "type": "uint8"
        }
      ],
      "payable": false,
      "stateMutability": "view",
      "type": "function",
      "signature": "0x313ce567"
    },
    {
      "constant": false,
      "inputs": [
        {
          "name": "spender",
          "type": "address"
        },
        {
          "name": "addedValue",
          "type": "uint256"
        }
      ],
      "name": "increaseAllowance",
      "outputs": [
        {
          "name": "",
          "type": "bool"
        }
      ],
      "payable": false,
      "stateMutability": "nonpayable",
      "type": "function",
      "signature": "0x39509351"
    },
    {
      "constant": true,
      "inputs": [],
      "name": "npt",
      "outputs": [
        {
          "name": "",
          "type": "uint256"
        }
      ],
      "payable": false,
      "stateMutability": "view",
      "type": "function",
      "signature": "0x3c57b5f3"
    },
    {
      "constant": true,
      "inputs": [],
      "name": "MAX_LOCK_DURATION",
      "outputs": [
        {
          "name": "",
          "type": "uint256"
        }
      ],
      "payable": false,
      "stateMutability": "view",
      "type": "function",
      "signature": "0x4f1bfc9e"
    },
    {
      "constant": true,
      "inputs": [],
      "name": "ntfToken",
      "outputs": [
        {
          "name": "",
          "type": "address"
        }
      ],
      "payable": false,
      "stateMutability": "view",
      "type": "function",
      "signature": "0x59aa9506"
    },
    {
      "constant": true,
      "inputs": [
        {
          "name": "_member",
          "type": "address"
        }
      ],
      "name": "getCoinOf",
      "outputs": [
        {
          "name": "",
          "type": "uint256"
        }
      ],
      "payable": false,
      "stateMutability": "view",
      "type": "function",
      "signature": "0x6e7348c9"
    },
    {
      "constant": true,
      "inputs": [
        {
          "name": "owner",
          "type": "address"
        }
      ],
      "name": "balanceOf",
      "outputs": [
        {
          "name": "",
          "type": "uint256"
        }
      ],
      "payable": false,
      "stateMutability": "view",
      "type": "function",
      "signature": "0x70a08231"
    },
    {
      "constant": false,
      "inputs": [],
      "name": "renounceOwnership",
      "outputs": [],
      "payable": false,
      "stateMutability": "nonpayable",
      "type": "function",
      "signature": "0x715018a6"
    },
    {
      "constant": true,
      "inputs": [],
      "name": "owner",
      "outputs": [
        {
          "name": "",
          "type": "address"
        }
      ],
      "payable": false,
      "stateMutability": "view",
      "type": "function",
      "signature": "0x8da5cb5b"
    },
    {
      "constant": true,
      "inputs": [],
      "name": "getMembersBalance",
      "outputs": [
        {
          "name": "",
          "type": "uint256"
        }
      ],
      "payable": false,
      "stateMutability": "view",
      "type": "function",
      "signature": "0x8e7dce4e"
    },
    {
      "constant": true,
      "inputs": [],
      "name": "isOwner",
      "outputs": [
        {
          "name": "",
          "type": "bool"
        }
      ],
      "payable": false,
      "stateMutability": "view",
      "type": "function",
      "signature": "0x8f32d59b"
    },
    {
      "constant": true,
      "inputs": [],
      "name": "symbol",
      "outputs": [
        {
          "name": "",
          "type": "string"
        }
      ],
      "payable": false,
      "stateMutability": "view",
      "type": "function",
      "signature": "0x95d89b41"
    },
    {
      "constant": false,
      "inputs": [
        {
          "name": "spender",
          "type": "address"
        },
        {
          "name": "subtractedValue",
          "type": "uint256"
        }
      ],
      "name": "decreaseAllowance",
      "outputs": [
        {
          "name": "",
          "type": "bool"
        }
      ],
      "payable": false,
      "stateMutability": "nonpayable",
      "type": "function",
      "signature": "0xa457c2d7"
    },
    {
      "constant": false,
      "inputs": [
        {
          "name": "to",
          "type": "address"
        },
        {
          "name": "value",
          "type": "uint256"
        }
      ],
      "name": "transfer",
      "outputs": [
        {
          "name": "",
          "type": "bool"
        }
      ],
      "payable": false,
      "stateMutability": "nonpayable",
      "type": "function",
      "signature": "0xa9059cbb"
    },
    {
      "constant": false,
      "inputs": [
        {
          "name": "sender",
          "type": "address"
        }
      ],
      "name": "initialize",
      "outputs": [],
      "payable": false,
      "stateMutability": "nonpayable",
      "type": "function",
      "signature": "0xc4d66de8"
    },
    {
      "constant": true,
      "inputs": [],
      "name": "CPT_ZOOM",
      "outputs": [
        {
          "name": "",
          "type": "uint256"
        }
      ],
      "payable": false,
      "stateMutability": "view",
      "type": "function",
      "signature": "0xcadba0d1"
    },
    {
      "constant": true,
      "inputs": [
        {
          "name": "_member",
          "type": "address"
        }
      ],
      "name": "isLocking",
      "outputs": [
        {
          "name": "",
          "type": "bool"
        }
      ],
      "payable": false,
      "stateMutability": "view",
      "type": "function",
      "signature": "0xd12c33b7"
    },
    {
      "constant": true,
      "inputs": [
        {
          "name": "_member",
          "type": "address"
        }
      ],
      "name": "getUnlockTime",
      "outputs": [
        {
          "name": "",
          "type": "uint256"
        }
      ],
      "payable": false,
      "stateMutability": "view",
      "type": "function",
      "signature": "0xdbed1e88"
    },
    {
      "constant": true,
      "inputs": [
        {
          "name": "owner",
          "type": "address"
        },
        {
          "name": "spender",
          "type": "address"
        }
      ],
      "name": "allowance",
      "outputs": [
        {
          "name": "",
          "type": "uint256"
        }
      ],
      "payable": false,
      "stateMutability": "view",
      "type": "function",
      "signature": "0xdd62ed3e"
    },
    {
      "constant": true,
      "inputs": [],
      "name": "getLockDuration",
      "outputs": [
        {
          "name": "",
          "type": "uint256"
        }
      ],
      "payable": false,
      "stateMutability": "view",
      "type": "function",
      "signature": "0xe239c400"
    },
    {
      "constant": true,
      "inputs": [],
      "name": "OWNER_ACTION_DELAY",
      "outputs": [
        {
          "name": "",
          "type": "uint256"
        }
      ],
      "payable": false,
      "stateMutability": "view",
      "type": "function",
      "signature": "0xee419a88"
    },
    {
      "constant": false,
      "inputs": [
        {
          "name": "newOwner",
          "type": "address"
        }
      ],
      "name": "transferOwnership",
      "outputs": [],
      "payable": false,
      "stateMutability": "nonpayable",
      "type": "function",
      "signature": "0xf2fde38b"
    },
    {
      "constant": true,
      "inputs": [],
      "name": "TAX_PERCENT",
      "outputs": [
        {
          "name": "",
          "type": "uint256"
        }
      ],
      "payable": false,
      "stateMutability": "view",
      "type": "function",
      "signature": "0xfd177667"
    },
    {
      "inputs": [
        {
          "name": "_owner",
          "type": "address"
        },
        {
          "name": "_ntfAddress",
          "type": "address"
        },
        {
          "name": "_govAddress",
          "type": "address"
        },
        {
          "name": "_name",
          "type": "string"
        },
        {
          "name": "_symbol",
          "type": "string"
        },
        {
          "name": "_decimals",
          "type": "uint8"
        }
      ],
      "payable": false,
      "stateMutability": "nonpayable",
      "type": "constructor",
      "signature": "constructor"
    },
    {
      "payable": true,
      "stateMutability": "payable",
      "type": "fallback"
    },
    {
      "anonymous": false,
      "inputs": [
        {
          "indexed": true,
          "name": "previousOwner",
          "type": "address"
        },
        {
          "indexed": true,
          "name": "newOwner",
          "type": "address"
        }
      ],
      "name": "OwnershipTransferred",
      "type": "event",
      "signature": "0x8be0079c531659141344cd1fd0a4f28419497f9722a3daafe3b4186f6b6457e0"
    },
    {
      "anonymous": false,
      "inputs": [
        {
          "indexed": true,
          "name": "from",
          "type": "address"
        },
        {
          "indexed": true,
          "name": "to",
          "type": "address"
        },
        {
          "indexed": false,
          "name": "value",
          "type": "uint256"
        }
      ],
      "name": "Transfer",
      "type": "event",
      "signature": "0xddf252ad1be2c89b69c2b068fc378daa952ba7f163c4a11628f55a4df523b3ef"
    },
    {
      "anonymous": false,
      "inputs": [
        {
          "indexed": true,
          "name": "owner",
          "type": "address"
        },
        {
          "indexed": true,
          "name": "spender",
          "type": "address"
        },
        {
          "indexed": false,
          "name": "value",
          "type": "uint256"
        }
      ],
      "name": "Approval",
      "type": "event",
      "signature": "0x8c5be1e5ebec7d5bd14f71427d1e84f3dd0314c0f7b2291e5b200ac8c7c3b925"
    },
    {
      "constant": false,
      "inputs": [
        {
          "name": "_amount",
          "type": "uint256"
        },
        {
          "name": "_signer",
          "type": "address"
        }
      ],
      "name": "join",
      "outputs": [],
      "payable": false,
      "stateMutability": "nonpayable",
      "type": "function",
      "signature": "0x3aa9dd2a"
    },
    {
      "constant": false,
      "inputs": [],
      "name": "leave",
      "outputs": [],
      "payable": false,
      "stateMutability": "nonpayable",
      "type": "function",
      "signature": "0xd66d9e19"
    },
    {
      "constant": false,
      "inputs": [],
      "name": "tokenPoolWithdraw",
      "outputs": [],
      "payable": false,
      "stateMutability": "nonpayable",
      "type": "function",
      "signature": "0x3c85053e"
    },
    {
      "constant": false,
      "inputs": [
        {
          "name": "_toAddress",
          "type": "address"
        }
      ],
      "name": "fundWithdraw",
      "outputs": [],
      "payable": false,
      "stateMutability": "nonpayable",
      "type": "function",
      "signature": "0x7a2bee5e"
    },
    {
      "constant": false,
      "inputs": [
        {
          "name": "_lockDuration",
          "type": "uint256"
        }
      ],
      "name": "setLockDuration",
      "outputs": [],
      "payable": false,
      "stateMutability": "nonpayable",
      "type": "function",
      "signature": "0x4eb665af"
    },
    {
      "constant": false,
      "inputs": [
        {
          "name": "_amount",
          "type": "uint256"
        }
      ],
      "name": "tokenDeposit",
      "outputs": [],
      "payable": false,
      "stateMutability": "nonpayable",
      "type": "function",
      "signature": "0xe1fe7d23"
    },
    {
      "constant": false,
      "inputs": [
        {
          "name": "_amount",
          "type": "uint256"
        }
      ],
      "name": "tokenMemberWithdraw",
      "outputs": [],
      "payable": false,
      "stateMutability": "nonpayable",
      "type": "function",
      "signature": "0x796d0461"
    },
    {
      "constant": false,
      "inputs": [],
      "name": "coinWithdraw",
      "outputs": [],
      "payable": false,
      "stateMutability": "nonpayable",
      "type": "function",
      "signature": "0xedfd36cd"
    },
    {
      "constant": true,
      "inputs": [],
      "name": "getPoolNtfBalance",
      "outputs": [
        {
          "name": "",
          "type": "uint256"
        }
      ],
      "payable": false,
      "stateMutability": "view",
      "type": "function",
      "signature": "0x4f8457e4"
    },
    {
      "constant": true,
      "inputs": [],
      "name": "getStatus",
      "outputs": [
        {
          "name": "",
          "type": "uint256"
        }
      ],
      "payable": false,
      "stateMutability": "view",
      "type": "function",
      "signature": "0x4e69d560"
    },
    {
      "constant": true,
      "inputs": [],
      "name": "getBalance",
      "outputs": [
        {
          "name": "",
          "type": "uint256"
        }
      ],
      "payable": false,
      "stateMutability": "view",
      "type": "function",
      "signature": "0x12065fe0"
    },
    {
      "constant": true,
      "inputs": [],
      "name": "getCoinbase",
      "outputs": [
        {
          "name": "",
          "type": "address"
        }
      ],
      "payable": false,
      "stateMutability": "view",
      "type": "function",
      "signature": "0xd1a82a9d"
    },
    {
      "constant": true,
      "inputs": [],
      "name": "getUnlockHeight",
      "outputs": [
        {
          "name": "",
          "type": "uint256"
        }
      ],
      "payable": false,
      "stateMutability": "view",
      "type": "function",
      "signature": "0x70c9b0f7"
    },
    {
      "constant": true,
      "inputs": [],
      "name": "isWithdrawable",
      "outputs": [
        {
          "name": "",
          "type": "bool"
        }
      ],
      "payable": false,
      "stateMutability": "view",
      "type": "function",
      "signature": "0x4d840bcc"
    },
    {
      "constant": false,
      "inputs": [],
      "name": "virtuellMining",
      "outputs": [],
      "payable": true,
      "stateMutability": "payable",
      "type": "function",
      "signature": "0x5df5ffbb"
    }
  ],
  "bytecode": "0x60806040523480156200001157600080fd5b5060405162003c2c38038062003c2c833981018060405260c08110156200003757600080fd5b8101908080519060200190929190805190602001909291908051906020019092919080516401000000008111156200006e57600080fd5b828101905060208101848111156200008557600080fd5b8151856001820283011164010000000082111715620000a357600080fd5b50509291906020018051640100000000811115620000c057600080fd5b82810190506020810184811115620000d757600080fd5b8151856001820283011164010000000082111715620000f557600080fd5b505092919060200180519060200190929190505050828282828282826003908051906020019062000128929190620003e5565b50816004908051906020019062000141929190620003e5565b5080600560006101000a81548160ff021916908360ff16021790555050505050505084607460006101000a81548173ffffffffffffffffffffffffffffffffffffffff021916908373ffffffffffffffffffffffffffffffffffffffff16021790555083607560006101000a81548173ffffffffffffffffffffffffffffffffffffffff021916908373ffffffffffffffffffffffffffffffffffffffff160217905550620001ff866200020b640100000000026401000000009004565b50505050505062000494565b600a60019054906101000a900460ff16806200023c57506200023b620003d4640100000000026401000000009004565b5b80620002555750600a60009054906101000a900460ff16155b1515620002ae576040517f08c379a000000000000000000000000000000000000000000000000000000000815260040180806020018281038252602e81526020018062003bfe602e913960400191505060405180910390fd5b6000600a60019054906101000a900460ff1690506001600a60016101000a81548160ff0219169083151502179055506001600a60006101000a81548160ff02191690831515021790555081603d60006101000a81548173ffffffffffffffffffffffffffffffffffffffff021916908373ffffffffffffffffffffffffffffffffffffffff160217905550603d60009054906101000a900473ffffffffffffffffffffffffffffffffffffffff1673ffffffffffffffffffffffffffffffffffffffff16600073ffffffffffffffffffffffffffffffffffffffff167f8be0079c531659141344cd1fd0a4f28419497f9722a3daafe3b4186f6b6457e060405160405180910390a380600a60016101000a81548160ff0219169083151502179055505050565b600080303b90506000811491505090565b828054600181600116156101000203166002900490600052602060002090601f016020900481019282601f106200042857805160ff191683800117855562000459565b8280016001018555821562000459579182015b82811115620004585782518255916020019190600101906200043b565b5b5090506200046891906200046c565b5090565b6200049191905b808211156200048d57600081600090555060010162000473565b5090565b90565b61375a80620004a46000396000f3fe608060405260043610610284576000357c010000000000000000000000000000000000000000000000000000000090048063715018a611610161578063d12c33b7116100d3578063e1fe7d2311610097578063e1fe7d2314610d84578063e239c40014610dbf578063edfd36cd14610dea578063ee419a8814610e01578063f2fde38b14610e2c578063fd17766714610e7d57610284565b8063d12c33b714610bc3578063d1a82a9d14610c2c578063d66d9e1914610c83578063dbed1e8814610c9a578063dd62ed3e14610cff57610284565b80638f32d59b116101255780638f32d59b146109a257806395d89b41146109d1578063a457c2d714610a61578063a9059cbb14610ad4578063c4d66de814610b47578063cadba0d114610b9857610284565b8063715018a61461087d578063796d0461146108945780637a2bee5e146108cf5780638da5cb5b146109205780638e7dce4e1461097757610284565b80633c85053e116101fa5780634f8457e4116101be5780634f8457e4146106fc57806359aa9506146107275780635df5ffbb1461077e5780636e7348c91461078857806370a08231146107ed57806370c9b0f71461085257610284565b80633c85053e146106255780634d840bcc1461063c5780634e69d5601461066b5780634eb665af146106965780634f1bfc9e146106d157610284565b806318160ddd1161024c57806318160ddd1461043d57806323b872dd14610468578063313ce567146104fb578063395093511461052c5780633aa9dd2a1461059f5780633c57b5f3146105fa57610284565b8063021737321461028657806306fdde03146102b8578063095ea7b31461034857806312065fe0146103bb57806312d43a51146103e6575b005b34801561029257600080fd5b5061029b610ea8565b604051808381526020018281526020019250505060405180910390f35b3480156102c457600080fd5b506102cd610f97565b6040518080602001828103825283818151815260200191508051906020019080838360005b8381101561030d5780820151818401526020810190506102f2565b50505050905090810190601f16801561033a5780820380516001836020036101000a031916815260200191505b509250505060405180910390f35b34801561035457600080fd5b506103a16004803603604081101561036b57600080fd5b81019080803573ffffffffffffffffffffffffffffffffffffffff16906020019092919080359060200190929190505050611039565b604051808215151515815260200191505060405180910390f35b3480156103c757600080fd5b506103d0611166565b6040518082815260200191505060405180910390f35b3480156103f257600080fd5b506103fb611263565b604051808273ffffffffffffffffffffffffffffffffffffffff1673ffffffffffffffffffffffffffffffffffffffff16815260200191505060405180910390f35b34801561044957600080fd5b50610452611289565b6040518082815260200191505060405180910390f35b34801561047457600080fd5b506104e16004803603606081101561048b57600080fd5b81019080803573ffffffffffffffffffffffffffffffffffffffff169060200190929190803573ffffffffffffffffffffffffffffffffffffffff16906020019092919080359060200190929190505050611293565b604051808215151515815260200191505060405180910390f35b34801561050757600080fd5b5061051061149b565b604051808260ff1660ff16815260200191505060405180910390f35b34801561053857600080fd5b506105856004803603604081101561054f57600080fd5b81019080803573ffffffffffffffffffffffffffffffffffffffff169060200190929190803590602001909291905050506114b2565b604051808215151515815260200191505060405180910390f35b3480156105ab57600080fd5b506105f8600480360360408110156105c257600080fd5b8101908080359060200190929190803573ffffffffffffffffffffffffffffffffffffffff1690602001909291905050506116e9565b005b34801561060657600080fd5b5061060f6119e9565b6040518082815260200191505060405180910390f35b34801561063157600080fd5b5061063a6119ef565b005b34801561064857600080fd5b50610651611ac6565b604051808215151515815260200191505060405180910390f35b34801561067757600080fd5b50610680611bc3565b6040518082815260200191505060405180910390f35b3480156106a257600080fd5b506106cf600480360360208110156106b957600080fd5b8101908080359060200190929190505050611cc0565b005b3480156106dd57600080fd5b506106e6611ddd565b6040518082815260200191505060405180910390f35b34801561070857600080fd5b50610711611de2565b6040518082815260200191505060405180910390f35b34801561073357600080fd5b5061073c611edf565b604051808273ffffffffffffffffffffffffffffffffffffffff1673ffffffffffffffffffffffffffffffffffffffff16815260200191505060405180910390f35b610786611f05565b005b34801561079457600080fd5b506107d7600480360360208110156107ab57600080fd5b81019080803573ffffffffffffffffffffffffffffffffffffffff169060200190929190505050611f07565b6040518082815260200191505060405180910390f35b3480156107f957600080fd5b5061083c6004803603602081101561081057600080fd5b81019080803573ffffffffffffffffffffffffffffffffffffffff169060200190929190505050611f8a565b6040518082815260200191505060405180910390f35b34801561085e57600080fd5b50610867611fd2565b6040518082815260200191505060405180910390f35b34801561088957600080fd5b506108926120cf565b005b3480156108a057600080fd5b506108cd600480360360208110156108b757600080fd5b81019080803590602001909291905050506121a3565b005b3480156108db57600080fd5b5061091e600480360360208110156108f257600080fd5b81019080803573ffffffffffffffffffffffffffffffffffffffff169060200190929190505050612355565b005b34801561092c57600080fd5b50610935612374565b604051808273ffffffffffffffffffffffffffffffffffffffff1673ffffffffffffffffffffffffffffffffffffffff16815260200191505060405180910390f35b34801561098357600080fd5b5061098c61239e565b6040518082815260200191505060405180910390f35b3480156109ae57600080fd5b506109b76123e0565b604051808215151515815260200191505060405180910390f35b3480156109dd57600080fd5b506109e6612438565b6040518080602001828103825283818151815260200191508051906020019080838360005b83811015610a26578082015181840152602081019050610a0b565b50505050905090810190601f168015610a535780820380516001836020036101000a031916815260200191505b509250505060405180910390f35b348015610a6d57600080fd5b50610aba60048036036040811015610a8457600080fd5b81019080803573ffffffffffffffffffffffffffffffffffffffff169060200190929190803590602001909291905050506124da565b604051808215151515815260200191505060405180910390f35b348015610ae057600080fd5b50610b2d60048036036040811015610af757600080fd5b81019080803573ffffffffffffffffffffffffffffffffffffffff16906020019092919080359060200190929190505050612711565b604051808215151515815260200191505060405180910390f35b348015610b5357600080fd5b50610b9660048036036020811015610b6a57600080fd5b81019080803573ffffffffffffffffffffffffffffffffffffffff169060200190929190505050612756565b005b348015610ba457600080fd5b50610bad61290a565b6040518082815260200191505060405180910390f35b348015610bcf57600080fd5b50610c1260048036036020811015610be657600080fd5b81019080803573ffffffffffffffffffffffffffffffffffffffff169060200190929190505050612910565b604051808215151515815260200191505060405180910390f35b348015610c3857600080fd5b50610c416129a6565b604051808273ffffffffffffffffffffffffffffffffffffffff1673ffffffffffffffffffffffffffffffffffffffff16815260200191505060405180910390f35b348015610c8f57600080fd5b50610c98612aa3565b005b348015610ca657600080fd5b50610ce960048036036020811015610cbd57600080fd5b81019080803573ffffffffffffffffffffffffffffffffffffffff169060200190929190505050612b7a565b6040518082815260200191505060405180910390f35b348015610d0b57600080fd5b50610d6e60048036036040811015610d2257600080fd5b81019080803573ffffffffffffffffffffffffffffffffffffffff169060200190929190803573ffffffffffffffffffffffffffffffffffffffff169060200190929190505050612bc3565b6040518082815260200191505060405180910390f35b348015610d9057600080fd5b50610dbd60048036036020811015610da757600080fd5b8101908080359060200190929190505050612c4a565b005b348015610dcb57600080fd5b50610dd4612dbb565b6040518082815260200191505060405180910390f35b348015610df657600080fd5b50610dff612dc5565b005b348015610e0d57600080fd5b50610e16612dd6565b6040518082815260200191505060405180910390f35b348015610e3857600080fd5b50610e7b60048036036020811015610e4f57600080fd5b81019080803573ffffffffffffffffffffffffffffffffffffffff169060200190929190505050612ddb565b005b348015610e8957600080fd5b50610e92612dfa565b6040518082815260200191505060405180910390f35b6000806000610ed96009543073ffffffffffffffffffffffffffffffffffffffff1631612dff90919063ffffffff16565b905060006064600a8302811515610eec57fe5b0490506000610ef9611289565b1415610f2457610f1482600854612e2190919063ffffffff16565b6000809050935093505050610f93565b6000610f2e611289565b610f556103e8610f478587612dff90919063ffffffff16565b612e4290919063ffffffff16565b811515610f5e57fe5b049050610f7682600854612e2190919063ffffffff16565b610f8b82600754612e2190919063ffffffff16565b945094505050505b9091565b606060038054600181600116156101000203166002900480601f01602080910402602001604051908101604052809291908181526020018280546001816001161561010002031660029004801561102f5780601f106110045761010080835404028352916020019161102f565b820191906000526020600020905b81548152906001019060200180831161101257829003601f168201915b5050505050905090565b60008073ffffffffffffffffffffffffffffffffffffffff168373ffffffffffffffffffffffffffffffffffffffff161415151561107657600080fd5b81600160003373ffffffffffffffffffffffffffffffffffffffff1673ffffffffffffffffffffffffffffffffffffffff16815260200190815260200160002060008573ffffffffffffffffffffffffffffffffffffffff1673ffffffffffffffffffffffffffffffffffffffff168152602001908152602001600020819055508273ffffffffffffffffffffffffffffffffffffffff163373ffffffffffffffffffffffffffffffffffffffff167f8c5be1e5ebec7d5bd14f71427d1e84f3dd0314c0f7b2291e5b200ac8c7c3b925846040518082815260200191505060405180910390a36001905092915050565b6000607560009054906101000a900473ffffffffffffffffffffffffffffffffffffffff1673ffffffffffffffffffffffffffffffffffffffff1663f8b2cb4f306040518263ffffffff167c0100000000000000000000000000000000000000000000000000000000028152600401808273ffffffffffffffffffffffffffffffffffffffff1673ffffffffffffffffffffffffffffffffffffffff16815260200191505060206040518083038186803b15801561122357600080fd5b505afa158015611237573d6000803e3d6000fd5b505050506040513d602081101561124d57600080fd5b8101908080519060200190929190505050905090565b607560009054906101000a900473ffffffffffffffffffffffffffffffffffffffff1681565b6000600254905090565b600061132482600160008773ffffffffffffffffffffffffffffffffffffffff1673ffffffffffffffffffffffffffffffffffffffff16815260200190815260200160002060003373ffffffffffffffffffffffffffffffffffffffff1673ffffffffffffffffffffffffffffffffffffffff16815260200190815260200160002054612dff90919063ffffffff16565b600160008673ffffffffffffffffffffffffffffffffffffffff1673ffffffffffffffffffffffffffffffffffffffff16815260200190815260200160002060003373ffffffffffffffffffffffffffffffffffffffff1673ffffffffffffffffffffffffffffffffffffffff168152602001908152602001600020819055506113af848484612e80565b3373ffffffffffffffffffffffffffffffffffffffff168473ffffffffffffffffffffffffffffffffffffffff167f8c5be1e5ebec7d5bd14f71427d1e84f3dd0314c0f7b2291e5b200ac8c7c3b925600160008873ffffffffffffffffffffffffffffffffffffffff1673ffffffffffffffffffffffffffffffffffffffff16815260200190815260200160002060003373ffffffffffffffffffffffffffffffffffffffff1673ffffffffffffffffffffffffffffffffffffffff168152602001908152602001600020546040518082815260200191505060405180910390a3600190509392505050565b6000600560009054906101000a900460ff16905090565b60008073ffffffffffffffffffffffffffffffffffffffff168373ffffffffffffffffffffffffffffffffffffffff16141515156114ef57600080fd5b61157e82600160003373ffffffffffffffffffffffffffffffffffffffff1673ffffffffffffffffffffffffffffffffffffffff16815260200190815260200160002060008673ffffffffffffffffffffffffffffffffffffffff1673ffffffffffffffffffffffffffffffffffffffff16815260200190815260200160002054612e2190919063ffffffff16565b600160003373ffffffffffffffffffffffffffffffffffffffff1673ffffffffffffffffffffffffffffffffffffffff16815260200190815260200160002060008573ffffffffffffffffffffffffffffffffffffffff1673ffffffffffffffffffffffffffffffffffffffff168152602001908152602001600020819055508273ffffffffffffffffffffffffffffffffffffffff163373ffffffffffffffffffffffffffffffffffffffff167f8c5be1e5ebec7d5bd14f71427d1e84f3dd0314c0f7b2291e5b200ac8c7c3b925600160003373ffffffffffffffffffffffffffffffffffffffff1673ffffffffffffffffffffffffffffffffffffffff16815260200190815260200160002060008773ffffffffffffffffffffffffffffffffffffffff1673ffffffffffffffffffffffffffffffffffffffff168152602001908152602001600020546040518082815260200191505060405180910390a36001905092915050565b6116f16123e0565b15156116fc57600080fd5b607460009054906101000a900473ffffffffffffffffffffffffffffffffffffffff1673ffffffffffffffffffffffffffffffffffffffff1663095ea7b3607560009054906101000a900473ffffffffffffffffffffffffffffffffffffffff16846040518363ffffffff167c0100000000000000000000000000000000000000000000000000000000028152600401808373ffffffffffffffffffffffffffffffffffffffff1673ffffffffffffffffffffffffffffffffffffffff16815260200182815260200192505050602060405180830381600087803b1580156117e357600080fd5b505af11580156117f7573d6000803e3d6000fd5b505050506040513d602081101561180d57600080fd5b810190808051906020019092919050505050607560009054906101000a900473ffffffffffffffffffffffffffffffffffffffff1673ffffffffffffffffffffffffffffffffffffffff1663b6b55f25836040518263ffffffff167c010000000000000000000000000000000000000000000000000000000002815260040180828152602001915050602060405180830381600087803b1580156118b057600080fd5b505af11580156118c4573d6000803e3d6000fd5b505050506040513d60208110156118da57600080fd5b810190808051906020019092919050505050607560009054906101000a900473ffffffffffffffffffffffffffffffffffffffff1673ffffffffffffffffffffffffffffffffffffffff166328ffe6c8826040518263ffffffff167c0100000000000000000000000000000000000000000000000000000000028152600401808273ffffffffffffffffffffffffffffffffffffffff1673ffffffffffffffffffffffffffffffffffffffff168152602001915050602060405180830381600087803b1580156119a957600080fd5b505af11580156119bd573d6000803e3d6000fd5b505050506040513d60208110156119d357600080fd5b8101908080519060200190929190505050505050565b60735481565b6119f76123e0565b1515611a0257600080fd5b607560009054906101000a900473ffffffffffffffffffffffffffffffffffffffff1673ffffffffffffffffffffffffffffffffffffffff16633ccfd60b6040518163ffffffff167c0100000000000000000000000000000000000000000000000000000000028152600401602060405180830381600087803b158015611a8857600080fd5b505af1158015611a9c573d6000803e3d6000fd5b505050506040513d6020811015611ab257600080fd5b810190808051906020019092919050505050565b6000607560009054906101000a900473ffffffffffffffffffffffffffffffffffffffff1673ffffffffffffffffffffffffffffffffffffffff166302a18484306040518263ffffffff167c0100000000000000000000000000000000000000000000000000000000028152600401808273ffffffffffffffffffffffffffffffffffffffff1673ffffffffffffffffffffffffffffffffffffffff16815260200191505060206040518083038186803b158015611b8357600080fd5b505afa158015611b97573d6000803e3d6000fd5b505050506040513d6020811015611bad57600080fd5b8101908080519060200190929190505050905090565b6000607560009054906101000a900473ffffffffffffffffffffffffffffffffffffffff1673ffffffffffffffffffffffffffffffffffffffff166330ccebb5306040518263ffffffff167c0100000000000000000000000000000000000000000000000000000000028152600401808273ffffffffffffffffffffffffffffffffffffffff1673ffffffffffffffffffffffffffffffffffffffff16815260200191505060206040518083038186803b158015611c8057600080fd5b505afa158015611c94573d6000803e3d6000fd5b505050506040513d6020811015611caa57600080fd5b8101908080519060200190929190505050905090565b611cc86123e0565b1515611cd357600080fd5b601e6072540142111515611d4f576040517f08c379a00000000000000000000000000000000000000000000000000000000081526004018080602001828103825260148152602001807f646f6e74206368616e676520746f20717569636b00000000000000000000000081525060200191505060405180910390fd5b80603c8111151515611dc9576040517f08c379a00000000000000000000000000000000000000000000000000000000081526004018080602001828103825260128152602001807f646f6e74206c6f636b20746f6f206c6f6e67000000000000000000000000000081525060200191505060405180910390fd5b42607281905550611dd98261304c565b5050565b603c81565b6000607460009054906101000a900473ffffffffffffffffffffffffffffffffffffffff1673ffffffffffffffffffffffffffffffffffffffff166370a08231306040518263ffffffff167c0100000000000000000000000000000000000000000000000000000000028152600401808273ffffffffffffffffffffffffffffffffffffffff1673ffffffffffffffffffffffffffffffffffffffff16815260200191505060206040518083038186803b158015611e9f57600080fd5b505afa158015611eb3573d6000803e3d6000fd5b505050506040513d6020811015611ec957600080fd5b8101908080519060200190929190505050905090565b607460009054906101000a900473ffffffffffffffffffffffffffffffffffffffff1681565b565b6000806000611f14610ea8565b91509150600660008573ffffffffffffffffffffffffffffffffffffffff1673ffffffffffffffffffffffffffffffffffffffff168152602001908152602001600020546103e8611f7683611f6888611f8a565b612e4290919063ffffffff16565b811515611f7f57fe5b040392505050919050565b60008060008373ffffffffffffffffffffffffffffffffffffffff1673ffffffffffffffffffffffffffffffffffffffff168152602001908152602001600020549050919050565b6000607560009054906101000a900473ffffffffffffffffffffffffffffffffffffffff1673ffffffffffffffffffffffffffffffffffffffff166355235d47306040518263ffffffff167c0100000000000000000000000000000000000000000000000000000000028152600401808273ffffffffffffffffffffffffffffffffffffffff1673ffffffffffffffffffffffffffffffffffffffff16815260200191505060206040518083038186803b15801561208f57600080fd5b505afa1580156120a3573d6000803e3d6000fd5b505050506040513d60208110156120b957600080fd5b8101908080519060200190929190505050905090565b6120d76123e0565b15156120e257600080fd5b600073ffffffffffffffffffffffffffffffffffffffff16603d60009054906101000a900473ffffffffffffffffffffffffffffffffffffffff1673ffffffffffffffffffffffffffffffffffffffff167f8be0079c531659141344cd1fd0a4f28419497f9722a3daafe3b4186f6b6457e060405160405180910390a36000603d60006101000a81548173ffffffffffffffffffffffffffffffffffffffff021916908373ffffffffffffffffffffffffffffffffffffffff160217905550565b6121ac33612910565b151515612221576040517f08c379a000000000000000000000000000000000000000000000000000000000815260040180806020018281038252600d8152602001807f7374696c6c206c6f636b696e670000000000000000000000000000000000000081525060200191505060405180910390fd5b612229613056565b6000339050600061223982613092565b90506122458284613106565b607460009054906101000a900473ffffffffffffffffffffffffffffffffffffffff1673ffffffffffffffffffffffffffffffffffffffff1663a9059cbb83856040518363ffffffff167c0100000000000000000000000000000000000000000000000000000000028152600401808373ffffffffffffffffffffffffffffffffffffffff1673ffffffffffffffffffffffffffffffffffffffff16815260200182815260200192505050602060405180830381600087803b15801561230a57600080fd5b505af115801561231e573d6000803e3d6000fd5b505050506040513d602081101561233457600080fd5b810190808051906020019092919050505050612350828261325a565b505050565b61235d6123e0565b151561236857600080fd5b612371816132cd565b50565b6000603d60009054906101000a900473ffffffffffffffffffffffffffffffffffffffff16905090565b60008060006123ab610ea8565b915091506123d9823073ffffffffffffffffffffffffffffffffffffffff1631612dff90919063ffffffff16565b9250505090565b6000603d60009054906101000a900473ffffffffffffffffffffffffffffffffffffffff1673ffffffffffffffffffffffffffffffffffffffff163373ffffffffffffffffffffffffffffffffffffffff1614905090565b606060048054600181600116156101000203166002900480601f0160208091040260200160405190810160405280929190818152602001828054600181600116156101000203166002900480156124d05780601f106124a5576101008083540402835291602001916124d0565b820191906000526020600020905b8154815290600101906020018083116124b357829003601f168201915b5050505050905090565b60008073ffffffffffffffffffffffffffffffffffffffff168373ffffffffffffffffffffffffffffffffffffffff161415151561251757600080fd5b6125a682600160003373ffffffffffffffffffffffffffffffffffffffff1673ffffffffffffffffffffffffffffffffffffffff16815260200190815260200160002060008673ffffffffffffffffffffffffffffffffffffffff1673ffffffffffffffffffffffffffffffffffffffff16815260200190815260200160002054612dff90919063ffffffff16565b600160003373ffffffffffffffffffffffffffffffffffffffff1673ffffffffffffffffffffffffffffffffffffffff16815260200190815260200160002060008573ffffffffffffffffffffffffffffffffffffffff1673ffffffffffffffffffffffffffffffffffffffff168152602001908152602001600020819055508273ffffffffffffffffffffffffffffffffffffffff163373ffffffffffffffffffffffffffffffffffffffff167f8c5be1e5ebec7d5bd14f71427d1e84f3dd0314c0f7b2291e5b200ac8c7c3b925600160003373ffffffffffffffffffffffffffffffffffffffff1673ffffffffffffffffffffffffffffffffffffffff16815260200190815260200160002060008773ffffffffffffffffffffffffffffffffffffffff1673ffffffffffffffffffffffffffffffffffffffff168152602001908152602001600020546040518082815260200191505060405180910390a36001905092915050565b60008073ffffffffffffffffffffffffffffffffffffffff168373ffffffffffffffffffffffffffffffffffffffff1614801561274e5750600082145b905092915050565b600a60019054906101000a900460ff1680612775575061277461334a565b5b8061278d5750600a60009054906101000a900460ff16155b15156127e4576040517f08c379a000000000000000000000000000000000000000000000000000000000815260040180806020018281038252602e815260200180613701602e913960400191505060405180910390fd5b6000600a60019054906101000a900460ff1690506001600a60016101000a81548160ff0219169083151502179055506001600a60006101000a81548160ff02191690831515021790555081603d60006101000a81548173ffffffffffffffffffffffffffffffffffffffff021916908373ffffffffffffffffffffffffffffffffffffffff160217905550603d60009054906101000a900473ffffffffffffffffffffffffffffffffffffffff1673ffffffffffffffffffffffffffffffffffffffff16600073ffffffffffffffffffffffffffffffffffffffff167f8be0079c531659141344cd1fd0a4f28419497f9722a3daafe3b4186f6b6457e060405160405180910390a380600a60016101000a81548160ff0219169083151502179055505050565b6103e881565b600080607060008473ffffffffffffffffffffffffffffffffffffffff1673ffffffffffffffffffffffffffffffffffffffff168152602001908152602001600020541415801561299f575042607060008473ffffffffffffffffffffffffffffffffffffffff1673ffffffffffffffffffffffffffffffffffffffff16815260200190815260200160002054115b9050919050565b6000607560009054906101000a900473ffffffffffffffffffffffffffffffffffffffff1673ffffffffffffffffffffffffffffffffffffffff16630a9a3f07306040518263ffffffff167c0100000000000000000000000000000000000000000000000000000000028152600401808273ffffffffffffffffffffffffffffffffffffffff1673ffffffffffffffffffffffffffffffffffffffff16815260200191505060206040518083038186803b158015612a6357600080fd5b505afa158015612a77573d6000803e3d6000fd5b505050506040513d6020811015612a8d57600080fd5b8101908080519060200190929190505050905090565b612aab6123e0565b1515612ab657600080fd5b607560009054906101000a900473ffffffffffffffffffffffffffffffffffffffff1673ffffffffffffffffffffffffffffffffffffffff1663d66d9e196040518163ffffffff167c0100000000000000000000000000000000000000000000000000000000028152600401602060405180830381600087803b158015612b3c57600080fd5b505af1158015612b50573d6000803e3d6000fd5b505050506040513d6020811015612b6657600080fd5b810190808051906020019092919050505050565b6000607060008373ffffffffffffffffffffffffffffffffffffffff1673ffffffffffffffffffffffffffffffffffffffff168152602001908152602001600020549050919050565b6000600160008473ffffffffffffffffffffffffffffffffffffffff1673ffffffffffffffffffffffffffffffffffffffff16815260200190815260200160002060008373ffffffffffffffffffffffffffffffffffffffff1673ffffffffffffffffffffffffffffffffffffffff16815260200190815260200160002054905092915050565b612c52613056565b60003390506000612c6282613092565b9050607460009054906101000a900473ffffffffffffffffffffffffffffffffffffffff1673ffffffffffffffffffffffffffffffffffffffff166323b872dd8330866040518463ffffffff167c0100000000000000000000000000000000000000000000000000000000028152600401808473ffffffffffffffffffffffffffffffffffffffff1673ffffffffffffffffffffffffffffffffffffffff1681526020018373ffffffffffffffffffffffffffffffffffffffff1673ffffffffffffffffffffffffffffffffffffffff1681526020018281526020019350505050602060405180830381600087803b158015612d5d57600080fd5b505af1158015612d71573d6000803e3d6000fd5b505050506040513d6020811015612d8757600080fd5b810190808051906020019092919050505050612da3828461335b565b612dad828261325a565b612db6826134af565b505050565b6000607154905090565b6000339050612dd3816134fa565b50565b601e81565b612de36123e0565b1515612dee57600080fd5b612df781613604565b50565b600a81565b6000828211151515612e1057600080fd5b600082840390508091505092915050565b6000808284019050838110151515612e3857600080fd5b8091505092915050565b600080831415612e555760009050612e7a565b60008284029050828482811515612e6857fe5b04141515612e7557600080fd5b809150505b92915050565b600073ffffffffffffffffffffffffffffffffffffffff168273ffffffffffffffffffffffffffffffffffffffff1614151515612ebc57600080fd5b612f0d816000808673ffffffffffffffffffffffffffffffffffffffff1673ffffffffffffffffffffffffffffffffffffffff16815260200190815260200160002054612dff90919063ffffffff16565b6000808573ffffffffffffffffffffffffffffffffffffffff1673ffffffffffffffffffffffffffffffffffffffff16815260200190815260200160002081905550612fa0816000808573ffffffffffffffffffffffffffffffffffffffff1673ffffffffffffffffffffffffffffffffffffffff16815260200190815260200160002054612e2190919063ffffffff16565b6000808473ffffffffffffffffffffffffffffffffffffffff1673ffffffffffffffffffffffffffffffffffffffff168152602001908152602001600020819055508173ffffffffffffffffffffffffffffffffffffffff168373ffffffffffffffffffffffffffffffffffffffff167fddf252ad1be2c89b69c2b068fc378daa952ba7f163c4a11628f55a4df523b3ef836040518082815260200191505060405180910390a3505050565b8060718190555050565b61305e610ea8565b60086000600760008491905055839190505550503073ffffffffffffffffffffffffffffffffffffffff1631600981905550565b6000600660008373ffffffffffffffffffffffffffffffffffffffff1673ffffffffffffffffffffffffffffffffffffffff168152602001908152602001600020546103e86130f46007546130e686611f8a565b612e4290919063ffffffff16565b8115156130fd57fe5b04039050919050565b600073ffffffffffffffffffffffffffffffffffffffff168273ffffffffffffffffffffffffffffffffffffffff161415151561314257600080fd5b61315781600254612dff90919063ffffffff16565b6002819055506131ae816000808573ffffffffffffffffffffffffffffffffffffffff1673ffffffffffffffffffffffffffffffffffffffff16815260200190815260200160002054612dff90919063ffffffff16565b6000808473ffffffffffffffffffffffffffffffffffffffff1673ffffffffffffffffffffffffffffffffffffffff16815260200190815260200160002081905550600073ffffffffffffffffffffffffffffffffffffffff168273ffffffffffffffffffffffffffffffffffffffff167fddf252ad1be2c89b69c2b068fc378daa952ba7f163c4a11628f55a4df523b3ef836040518082815260200191505060405180910390a35050565b806103e861327b60075461326d86611f8a565b612e4290919063ffffffff16565b81151561328457fe5b0403600660008473ffffffffffffffffffffffffffffffffffffffff1673ffffffffffffffffffffffffffffffffffffffff168152602001908152602001600020819055505050565b6132d5613056565b6000600854905060006008819055506132f981600954612dff90919063ffffffff16565b6009819055508173ffffffffffffffffffffffffffffffffffffffff166108fc829081150290604051600060405180830381858888f19350505050158015613345573d6000803e3d6000fd5b505050565b600080303b90506000811491505090565b600073ffffffffffffffffffffffffffffffffffffffff168273ffffffffffffffffffffffffffffffffffffffff161415151561339757600080fd5b6133ac81600254612e2190919063ffffffff16565b600281905550613403816000808573ffffffffffffffffffffffffffffffffffffffff1673ffffffffffffffffffffffffffffffffffffffff16815260200190815260200160002054612e2190919063ffffffff16565b6000808473ffffffffffffffffffffffffffffffffffffffff1673ffffffffffffffffffffffffffffffffffffffff168152602001908152602001600020819055508173ffffffffffffffffffffffffffffffffffffffff16600073ffffffffffffffffffffffffffffffffffffffff167fddf252ad1be2c89b69c2b068fc378daa952ba7f163c4a11628f55a4df523b3ef836040518082815260200191505060405180910390a35050565b6071544201607060008373ffffffffffffffffffffffffffffffffffffffff1673ffffffffffffffffffffffffffffffffffffffff1681526020019081526020016000208190555050565b613502613056565b600061350d82613092565b905080600660008473ffffffffffffffffffffffffffffffffffffffff1673ffffffffffffffffffffffffffffffffffffffff1681526020019081526020016000205401600660008473ffffffffffffffffffffffffffffffffffffffff1673ffffffffffffffffffffffffffffffffffffffff168152602001908152602001600020819055506135a981600954612dff90919063ffffffff16565b6009819055506135b882613092565b508173ffffffffffffffffffffffffffffffffffffffff166108fc829081150290604051600060405180830381858888f193505050501580156135ff573d6000803e3d6000fd5b505050565b600073ffffffffffffffffffffffffffffffffffffffff168173ffffffffffffffffffffffffffffffffffffffff161415151561364057600080fd5b8073ffffffffffffffffffffffffffffffffffffffff16603d60009054906101000a900473ffffffffffffffffffffffffffffffffffffffff1673ffffffffffffffffffffffffffffffffffffffff167f8be0079c531659141344cd1fd0a4f28419497f9722a3daafe3b4186f6b6457e060405160405180910390a380603d60006101000a81548173ffffffffffffffffffffffffffffffffffffffff021916908373ffffffffffffffffffffffffffffffffffffffff1602179055505056fe436f6e747261637420696e7374616e63652068617320616c7265616479206265656e20696e697469616c697a6564a165627a7a72305820b6c26396f6471345a1eb98f5a8598a996bb8a3985464e1813de22838c03a70430029436f6e747261637420696e7374616e63652068617320616c7265616479206265656e20696e697469616c697a6564",
  "source": "pragma solidity ^0.5.0;\r\n\r\nimport \"./../../node_modules/openzeppelin-eth/contracts/ownership/Ownable.sol\";\r\nimport \"./CoinShare.sol\";\r\nimport \"./Lockable.sol\";\r\n\r\nimport \"./interfaces/GovI.sol\";\r\nimport \"./interfaces/NtfTokenI.sol\";\r\n\r\ncontract NtfPool is CoinShare, Ownable, Lockable {\r\n    // nty per pool token\r\n    uint256 constant public MAX_LOCK_DURATION = 60; //30 days;\r\n    uint256 constant public OWNER_ACTION_DELAY = 30; //7 days;\r\n\r\n    uint256 lastActionTime;\r\n    uint256 public npt;\r\n\r\n    NtfTokenI public ntfToken;\r\n    GovI public gov;\r\n\r\n    modifier delayPast() {\r\n        require(block.timestamp > lastActionTime + OWNER_ACTION_DELAY, \"dont change to quick\");\r\n        _;\r\n    }\r\n\r\n    modifier validLockDuration(uint256 _lockDuration) {\r\n        require(_lockDuration <= MAX_LOCK_DURATION, \"dont lock too long\");\r\n        _;\r\n    }\r\n\r\n    function () external payable {}\r\n    \r\n    constructor\r\n    (\r\n        address _owner,\r\n        address _ntfAddress,\r\n        address _govAddress,\r\n        string memory _name,\r\n        string memory _symbol,\r\n        uint8 _decimals\r\n    )\r\n        public\r\n        CoinShare(_name, _symbol, _decimals)\r\n    {\r\n        ntfToken = NtfTokenI(_ntfAddress);\r\n        gov = GovI(_govAddress);\r\n        initialize(_owner);\r\n    }\r\n\r\n    // owner function\r\n    // function deposit(uint256 _amount) external returns (bool);\r\n    // function join(address _signer) external returns (bool);\r\n    // function leave() external returns (bool);\r\n    // function withdraw() external returns (bool);\r\n\r\n    function join(\r\n        uint256 _amount,\r\n        address _signer\r\n    ) \r\n        public\r\n        onlyOwner()\r\n    {\r\n        ntfToken.approve(address(gov), _amount);\r\n        gov.deposit(_amount);\r\n        gov.join(_signer);\r\n    }\r\n\r\n    function leave()\r\n        public\r\n        onlyOwner()\r\n    {\r\n        gov.leave();\r\n    }\r\n\r\n    function tokenPoolWithdraw()\r\n        public\r\n        onlyOwner()\r\n    {\r\n        gov.withdraw();\r\n    }\r\n\r\n    function fundWithdraw(\r\n        address payable _toAddress\r\n    )\r\n        public\r\n        onlyOwner()\r\n    {\r\n        _fundWithdraw(_toAddress);\r\n    }\r\n\r\n    function setLockDuration(\r\n        uint256 _lockDuration\r\n    )\r\n        public\r\n        onlyOwner()\r\n        delayPast()\r\n        validLockDuration(_lockDuration)\r\n    {\r\n        lastActionTime = block.timestamp;\r\n        _setLockDuration(_lockDuration);\r\n    }\r\n\r\n    // members function\r\n    function tokenDeposit(\r\n        uint256 _amount\r\n    )\r\n            public\r\n    {\r\n        _updateFundCpt();\r\n        address _sender = msg.sender;\r\n        uint256 _coinBalance = coinOf(_sender);\r\n        ntfToken.transferFrom(_sender, address(this), _amount);\r\n        _mint(_sender, _amount);\r\n        _updateCredit(_sender, _coinBalance);\r\n        _lock(_sender);\r\n    }\r\n\r\n    function tokenMemberWithdraw(\r\n        uint256 _amount\r\n    )\r\n        public\r\n        notLocking()\r\n    {\r\n        _updateFundCpt();\r\n        address _sender = msg.sender;\r\n        uint256 _coinBalance = coinOf(_sender);\r\n        _burn(_sender, _amount);\r\n        ntfToken.transfer(_sender, _amount);\r\n        _updateCredit(_sender, _coinBalance);\r\n    }\r\n\r\n    function coinWithdraw()\r\n        public\r\n    {\r\n        address payable _sender = msg.sender;\r\n        _coinWithdraw(_sender);\r\n    }\r\n\r\n    // Read Functions\r\n\r\n    // deployed NtfToken contract\r\n    function getPoolNtfBalance()\r\n        public\r\n        view\r\n        returns(uint256)\r\n    {\r\n        return ntfToken.balanceOf(address(this));\r\n    }\r\n\r\n    //  CoinShare contract\r\n    // function getCpt() public view returns(uint256)\r\n    // function getFund() public view returns(uint256)\r\n    // function getCoinOf(address _member) public view returns(uint256)\r\n\r\n    // Lockable contract\r\n    // function getUnlockTime(address _member) public view returns(uint256)\r\n    // function isLocking(address _member) public view returns(bool)\r\n    // function getLockDuration() public view returns(uint256)\r\n\r\n    function getStatus()\r\n        public \r\n        view \r\n        returns(uint256)\r\n    {\r\n        return gov.getStatus(address(this));\r\n    }\r\n\r\n    function getBalance()\r\n        public\r\n        view\r\n        returns(uint256)\r\n    {\r\n        return gov.getBalance(address(this));\r\n    }\r\n\r\n    function getCoinbase()\r\n        public\r\n        view\r\n        returns(address)\r\n    {\r\n        return gov.getCoinbase(address(this));\r\n    }\r\n\r\n    function getUnlockHeight()\r\n        public\r\n        view\r\n        returns(uint256)\r\n    {\r\n        return gov.getUnlockHeight(address(this));\r\n    }\r\n\r\n    function isWithdrawable()\r\n        external\r\n        view\r\n        returns(bool)\r\n    {\r\n        return gov.isWithdrawable(address(this));\r\n    }\r\n\r\n/*\r\n    TEST TEST TEST TEST TEST TEST TEST TEST TEST \r\n*/\r\n    // send nty to contract as Reward from Core\r\n    function virtuellMining()\r\n        public\r\n        payable\r\n    {\r\n\r\n    }\r\n}",
  "sourcePath": "C:/Users/bestb/Desktop/workshop/sealing-pool/contracts/ntfPool/NtfPool.sol",
  "compiler": {
    "name": "solc",
    "version": "0.5.2+commit.1df8f40c.Emscripten.clang"
  },
  "schemaVersion": "3.0.2",
  "updatedAt": "2019-05-17T07:57:28.258Z",
  "devdoc": {
    "methods": {
      "allowance(address,address)": {
        "details": "Function to check the amount of tokens that an owner allowed to a spender.",
        "params": {
          "owner": "address The address which owns the funds.",
          "spender": "address The address which will spend the funds."
        },
        "return": "A uint256 specifying the amount of tokens still available for the spender."
      },
      "approve(address,uint256)": {
        "details": "Approve the passed address to spend the specified amount of tokens on behalf of msg.sender. Beware that changing an allowance with this method brings the risk that someone may use both the old and the new allowance by unfortunate transaction ordering. One possible solution to mitigate this race condition is to first reduce the spender's allowance to 0 and set the desired value afterwards: https://github.com/ethereum/EIPs/issues/20#issuecomment-263524729",
        "params": {
          "spender": "The address which will spend the funds.",
          "value": "The amount of tokens to be spent."
        }
      },
      "balanceOf(address)": {
        "details": "Gets the balance of the specified address.",
        "params": {
          "owner": "The address to query the balance of."
        },
        "return": "An uint256 representing the amount owned by the passed address."
      },
      "decimals()": {
        "return": "the number of decimals of the token.\r"
      },
      "decreaseAllowance(address,uint256)": {
        "details": "Decrease the amount of tokens that an owner allowed to a spender. approve should be called when allowed_[_spender] == 0. To decrement allowed value is better to use this function to avoid 2 calls (and wait until the first transaction is mined) From MonolithDAO Token.sol Emits an Approval event.",
        "params": {
          "spender": "The address which will spend the funds.",
          "subtractedValue": "The amount of tokens to decrease the allowance by."
        }
      },
      "increaseAllowance(address,uint256)": {
        "details": "Increase the amount of tokens that an owner allowed to a spender. approve should be called when allowed_[_spender] == 0. To increment allowed value is better to use this function to avoid 2 calls (and wait until the first transaction is mined) From MonolithDAO Token.sol Emits an Approval event.",
        "params": {
          "addedValue": "The amount of tokens to increase the allowance by.",
          "spender": "The address which will spend the funds."
        }
      },
      "initialize(address)": {
        "details": "The Ownable constructor sets the original `owner` of the contract to the sender account."
      },
      "isOwner()": {
        "return": "true if `msg.sender` is the owner of the contract."
      },
      "name()": {
        "return": "the name of the token.\r"
      },
      "owner()": {
        "return": "the address of the owner."
      },
      "renounceOwnership()": {
        "details": "Allows the current owner to relinquish control of the contract."
      },
      "symbol()": {
        "return": "the symbol of the token.\r"
      },
      "totalSupply()": {
        "details": "Total number of tokens in existence"
      },
      "transferFrom(address,address,uint256)": {
        "details": "Transfer tokens from one address to another. Note that while this function emits an Approval event, this is not required as per the specification, and other compliant implementations may not emit the event.",
        "params": {
          "from": "address The address which you want to send tokens from",
          "to": "address The address which you want to transfer to",
          "value": "uint256 the amount of tokens to be transferred"
        }
      },
      "transferOwnership(address)": {
        "details": "Allows the current owner to transfer control of the contract to a newOwner.",
        "params": {
          "newOwner": "The address to transfer ownership to."
        }
      }
    }
  },
  "userdoc": {
    "methods": {
      "renounceOwnership()": {
        "notice": "Renouncing to ownership will leave the contract without an owner. It will not be possible to call the functions with the `onlyOwner` modifier anymore."
      }
    }
  }
}