{
  "contractName": "NtfPool",
  "abi": [
    {
      "constant": true,
      "inputs": [],
      "name": "getCurFundCpt",
      "outputs": [
        {
          "name": "",
          "type": "uint256"
        },
        {
          "name": "",
          "type": "uint256"
        }
      ],
      "payable": false,
      "stateMutability": "view",
      "type": "function",
      "signature": "0x02173732"
    },
    {
      "constant": true,
      "inputs": [],
      "name": "name",
      "outputs": [
        {
          "name": "",
          "type": "string"
        }
      ],
      "payable": false,
      "stateMutability": "view",
      "type": "function",
      "signature": "0x06fdde03"
    },
    {
      "constant": false,
      "inputs": [
        {
          "name": "spender",
          "type": "address"
        },
        {
          "name": "value",
          "type": "uint256"
        }
      ],
      "name": "approve",
      "outputs": [
        {
          "name": "",
          "type": "bool"
        }
      ],
      "payable": false,
      "stateMutability": "nonpayable",
      "type": "function",
      "signature": "0x095ea7b3"
    },
    {
      "constant": true,
      "inputs": [],
      "name": "gov",
      "outputs": [
        {
          "name": "",
          "type": "address"
        }
      ],
      "payable": false,
      "stateMutability": "view",
      "type": "function",
      "signature": "0x12d43a51"
    },
    {
      "constant": true,
      "inputs": [],
      "name": "totalSupply",
      "outputs": [
        {
          "name": "",
          "type": "uint256"
        }
      ],
      "payable": false,
      "stateMutability": "view",
      "type": "function",
      "signature": "0x18160ddd"
    },
    {
      "constant": false,
      "inputs": [
        {
          "name": "from",
          "type": "address"
        },
        {
          "name": "to",
          "type": "address"
        },
        {
          "name": "value",
          "type": "uint256"
        }
      ],
      "name": "transferFrom",
      "outputs": [
        {
          "name": "",
          "type": "bool"
        }
      ],
      "payable": false,
      "stateMutability": "nonpayable",
      "type": "function",
      "signature": "0x23b872dd"
    },
    {
      "constant": false,
      "inputs": [
        {
          "name": "spender",
          "type": "address"
        },
        {
          "name": "addedValue",
          "type": "uint256"
        }
      ],
      "name": "increaseAllowance",
      "outputs": [
        {
          "name": "",
          "type": "bool"
        }
      ],
      "payable": false,
      "stateMutability": "nonpayable",
      "type": "function",
      "signature": "0x39509351"
    },
    {
      "constant": true,
      "inputs": [],
      "name": "MAX_LOCK_DURATION",
      "outputs": [
        {
          "name": "",
          "type": "uint256"
        }
      ],
      "payable": false,
      "stateMutability": "view",
      "type": "function",
      "signature": "0x4f1bfc9e"
    },
    {
      "constant": true,
      "inputs": [],
      "name": "location",
      "outputs": [
        {
          "name": "",
          "type": "string"
        }
      ],
      "payable": false,
      "stateMutability": "view",
      "type": "function",
      "signature": "0x516f279e"
    },
    {
      "constant": true,
      "inputs": [],
      "name": "ntfToken",
      "outputs": [
        {
          "name": "",
          "type": "address"
        }
      ],
      "payable": false,
      "stateMutability": "view",
      "type": "function",
      "signature": "0x59aa9506"
    },
    {
      "constant": true,
      "inputs": [
        {
          "name": "_member",
          "type": "address"
        }
      ],
      "name": "getCoinOf",
      "outputs": [
        {
          "name": "",
          "type": "uint256"
        }
      ],
      "payable": false,
      "stateMutability": "view",
      "type": "function",
      "signature": "0x6e7348c9"
    },
    {
      "constant": true,
      "inputs": [
        {
          "name": "owner",
          "type": "address"
        }
      ],
      "name": "balanceOf",
      "outputs": [
        {
          "name": "",
          "type": "uint256"
        }
      ],
      "payable": false,
      "stateMutability": "view",
      "type": "function",
      "signature": "0x70a08231"
    },
    {
      "constant": false,
      "inputs": [],
      "name": "renounceOwnership",
      "outputs": [],
      "payable": false,
      "stateMutability": "nonpayable",
      "type": "function",
      "signature": "0x715018a6"
    },
    {
      "constant": true,
      "inputs": [],
      "name": "email",
      "outputs": [
        {
          "name": "",
          "type": "string"
        }
      ],
      "payable": false,
      "stateMutability": "view",
      "type": "function",
      "signature": "0x820e93f5"
    },
    {
      "constant": true,
      "inputs": [],
      "name": "COMPRATE",
      "outputs": [
        {
          "name": "",
          "type": "uint256"
        }
      ],
      "payable": false,
      "stateMutability": "view",
      "type": "function",
      "signature": "0x84c6c2e3"
    },
    {
      "constant": true,
      "inputs": [],
      "name": "owner",
      "outputs": [
        {
          "name": "",
          "type": "address"
        }
      ],
      "payable": false,
      "stateMutability": "view",
      "type": "function",
      "signature": "0x8da5cb5b"
    },
    {
      "constant": true,
      "inputs": [],
      "name": "getMembersBalance",
      "outputs": [
        {
          "name": "",
          "type": "uint256"
        }
      ],
      "payable": false,
      "stateMutability": "view",
      "type": "function",
      "signature": "0x8e7dce4e"
    },
    {
      "constant": true,
      "inputs": [],
      "name": "isOwner",
      "outputs": [
        {
          "name": "",
          "type": "bool"
        }
      ],
      "payable": false,
      "stateMutability": "view",
      "type": "function",
      "signature": "0x8f32d59b"
    },
    {
      "constant": false,
      "inputs": [
        {
          "name": "spender",
          "type": "address"
        },
        {
          "name": "subtractedValue",
          "type": "uint256"
        }
      ],
      "name": "decreaseAllowance",
      "outputs": [
        {
          "name": "",
          "type": "bool"
        }
      ],
      "payable": false,
      "stateMutability": "nonpayable",
      "type": "function",
      "signature": "0xa457c2d7"
    },
    {
      "constant": false,
      "inputs": [
        {
          "name": "to",
          "type": "address"
        },
        {
          "name": "value",
          "type": "uint256"
        }
      ],
      "name": "transfer",
      "outputs": [
        {
          "name": "",
          "type": "bool"
        }
      ],
      "payable": false,
      "stateMutability": "nonpayable",
      "type": "function",
      "signature": "0xa9059cbb"
    },
    {
      "constant": true,
      "inputs": [],
      "name": "pendingOutSum",
      "outputs": [
        {
          "name": "",
          "type": "uint256"
        }
      ],
      "payable": false,
      "stateMutability": "view",
      "type": "function",
      "signature": "0xacf1ba9f"
    },
    {
      "constant": true,
      "inputs": [],
      "name": "website",
      "outputs": [
        {
          "name": "",
          "type": "string"
        }
      ],
      "payable": false,
      "stateMutability": "view",
      "type": "function",
      "signature": "0xbeb0a416"
    },
    {
      "constant": false,
      "inputs": [
        {
          "name": "sender",
          "type": "address"
        }
      ],
      "name": "initialize",
      "outputs": [],
      "payable": false,
      "stateMutability": "nonpayable",
      "type": "function",
      "signature": "0xc4d66de8"
    },
    {
      "constant": true,
      "inputs": [],
      "name": "CPT_ZOOM",
      "outputs": [
        {
          "name": "",
          "type": "uint256"
        }
      ],
      "payable": false,
      "stateMutability": "view",
      "type": "function",
      "signature": "0xcadba0d1"
    },
    {
      "constant": true,
      "inputs": [
        {
          "name": "_member",
          "type": "address"
        }
      ],
      "name": "isLocking",
      "outputs": [
        {
          "name": "",
          "type": "bool"
        }
      ],
      "payable": false,
      "stateMutability": "view",
      "type": "function",
      "signature": "0xd12c33b7"
    },
    {
      "constant": true,
      "inputs": [
        {
          "name": "_member",
          "type": "address"
        }
      ],
      "name": "getUnlockTime",
      "outputs": [
        {
          "name": "",
          "type": "uint256"
        }
      ],
      "payable": false,
      "stateMutability": "view",
      "type": "function",
      "signature": "0xdbed1e88"
    },
    {
      "constant": true,
      "inputs": [
        {
          "name": "owner",
          "type": "address"
        },
        {
          "name": "spender",
          "type": "address"
        }
      ],
      "name": "allowance",
      "outputs": [
        {
          "name": "",
          "type": "uint256"
        }
      ],
      "payable": false,
      "stateMutability": "view",
      "type": "function",
      "signature": "0xdd62ed3e"
    },
    {
      "constant": true,
      "inputs": [],
      "name": "getLockDuration",
      "outputs": [
        {
          "name": "",
          "type": "uint256"
        }
      ],
      "payable": false,
      "stateMutability": "view",
      "type": "function",
      "signature": "0xe239c400"
    },
    {
      "constant": true,
      "inputs": [
        {
          "name": "",
          "type": "address"
        }
      ],
      "name": "pendingOut",
      "outputs": [
        {
          "name": "",
          "type": "uint256"
        }
      ],
      "payable": false,
      "stateMutability": "view",
      "type": "function",
      "signature": "0xee0cfb09"
    },
    {
      "constant": true,
      "inputs": [],
      "name": "OWNER_ACTION_DELAY",
      "outputs": [
        {
          "name": "",
          "type": "uint256"
        }
      ],
      "payable": false,
      "stateMutability": "view",
      "type": "function",
      "signature": "0xee419a88"
    },
    {
      "constant": false,
      "inputs": [
        {
          "name": "newOwner",
          "type": "address"
        }
      ],
      "name": "transferOwnership",
      "outputs": [],
      "payable": false,
      "stateMutability": "nonpayable",
      "type": "function",
      "signature": "0xf2fde38b"
    },
    {
      "constant": true,
      "inputs": [],
      "name": "logo",
      "outputs": [
        {
          "name": "",
          "type": "string"
        }
      ],
      "payable": false,
      "stateMutability": "view",
      "type": "function",
      "signature": "0xfb7f21eb"
    },
    {
      "inputs": [
        {
          "name": "_owner",
          "type": "address"
        },
        {
          "name": "_ntfAddress",
          "type": "address"
        },
        {
          "name": "_govAddress",
          "type": "address"
        },
        {
          "name": "_COMPRATE",
          "type": "uint256"
        },
        {
          "name": "_MAX_LOCK_DURATION",
          "type": "uint256"
        },
        {
          "name": "_OWNER_ACTION_DELAY",
          "type": "uint256"
        },
        {
          "name": "_name",
          "type": "string"
        },
        {
          "name": "_website",
          "type": "string"
        },
        {
          "name": "_location",
          "type": "string"
        },
        {
          "name": "_logo",
          "type": "string"
        }
      ],
      "payable": false,
      "stateMutability": "nonpayable",
      "type": "constructor",
      "signature": "constructor"
    },
    {
      "payable": true,
      "stateMutability": "payable",
      "type": "fallback"
    },
    {
      "anonymous": false,
      "inputs": [
        {
          "indexed": true,
          "name": "previousOwner",
          "type": "address"
        },
        {
          "indexed": true,
          "name": "newOwner",
          "type": "address"
        }
      ],
      "name": "OwnershipTransferred",
      "type": "event",
      "signature": "0x8be0079c531659141344cd1fd0a4f28419497f9722a3daafe3b4186f6b6457e0"
    },
    {
      "anonymous": false,
      "inputs": [
        {
          "indexed": true,
          "name": "from",
          "type": "address"
        },
        {
          "indexed": true,
          "name": "to",
          "type": "address"
        },
        {
          "indexed": false,
          "name": "value",
          "type": "uint256"
        }
      ],
      "name": "Transfer",
      "type": "event",
      "signature": "0xddf252ad1be2c89b69c2b068fc378daa952ba7f163c4a11628f55a4df523b3ef"
    },
    {
      "anonymous": false,
      "inputs": [
        {
          "indexed": true,
          "name": "owner",
          "type": "address"
        },
        {
          "indexed": true,
          "name": "spender",
          "type": "address"
        },
        {
          "indexed": false,
          "name": "value",
          "type": "uint256"
        }
      ],
      "name": "Approval",
      "type": "event",
      "signature": "0x8c5be1e5ebec7d5bd14f71427d1e84f3dd0314c0f7b2291e5b200ac8c7c3b925"
    },
    {
      "constant": false,
      "inputs": [
        {
          "name": "_amount",
          "type": "uint256"
        },
        {
          "name": "_signer",
          "type": "address"
        }
      ],
      "name": "join",
      "outputs": [],
      "payable": false,
      "stateMutability": "nonpayable",
      "type": "function",
      "signature": "0x3aa9dd2a"
    },
    {
      "constant": false,
      "inputs": [],
      "name": "leave",
      "outputs": [],
      "payable": false,
      "stateMutability": "nonpayable",
      "type": "function",
      "signature": "0xd66d9e19"
    },
    {
      "constant": false,
      "inputs": [],
      "name": "tokenPoolWithdraw",
      "outputs": [],
      "payable": false,
      "stateMutability": "nonpayable",
      "type": "function",
      "signature": "0x3c85053e"
    },
    {
      "constant": false,
      "inputs": [
        {
          "name": "_toAddress",
          "type": "address"
        }
      ],
      "name": "fundWithdraw",
      "outputs": [],
      "payable": false,
      "stateMutability": "nonpayable",
      "type": "function",
      "signature": "0x7a2bee5e"
    },
    {
      "constant": false,
      "inputs": [
        {
          "name": "_lockDuration",
          "type": "uint256"
        }
      ],
      "name": "setLockDuration",
      "outputs": [],
      "payable": false,
      "stateMutability": "nonpayable",
      "type": "function",
      "signature": "0x4eb665af"
    },
    {
      "constant": false,
      "inputs": [
        {
          "name": "_amount",
          "type": "uint256"
        }
      ],
      "name": "requestOut",
      "outputs": [],
      "payable": false,
      "stateMutability": "nonpayable",
      "type": "function",
      "signature": "0x42d07a1e"
    },
    {
      "constant": false,
      "inputs": [
        {
          "name": "_amount",
          "type": "uint256"
        }
      ],
      "name": "tokenDeposit",
      "outputs": [],
      "payable": false,
      "stateMutability": "nonpayable",
      "type": "function",
      "signature": "0xe1fe7d23"
    },
    {
      "constant": false,
      "inputs": [],
      "name": "tokenMemberWithdraw",
      "outputs": [],
      "payable": false,
      "stateMutability": "nonpayable",
      "type": "function",
      "signature": "0xcd92c57d"
    },
    {
      "constant": false,
      "inputs": [],
      "name": "coinWithdraw",
      "outputs": [],
      "payable": false,
      "stateMutability": "nonpayable",
      "type": "function",
      "signature": "0xedfd36cd"
    },
    {
      "constant": true,
      "inputs": [],
      "name": "getPoolNtfBalance",
      "outputs": [
        {
          "name": "",
          "type": "uint256"
        }
      ],
      "payable": false,
      "stateMutability": "view",
      "type": "function",
      "signature": "0x4f8457e4"
    },
    {
      "constant": true,
      "inputs": [],
      "name": "getStatus",
      "outputs": [
        {
          "name": "",
          "type": "uint256"
        }
      ],
      "payable": false,
      "stateMutability": "view",
      "type": "function",
      "signature": "0x4e69d560"
    },
    {
      "constant": true,
      "inputs": [],
      "name": "getPoolGovBalance",
      "outputs": [
        {
          "name": "",
          "type": "uint256"
        }
      ],
      "payable": false,
      "stateMutability": "view",
      "type": "function",
      "signature": "0x11bfe32e"
    },
    {
      "constant": true,
      "inputs": [],
      "name": "getCoinbase",
      "outputs": [
        {
          "name": "",
          "type": "address"
        }
      ],
      "payable": false,
      "stateMutability": "view",
      "type": "function",
      "signature": "0xd1a82a9d"
    },
    {
      "constant": true,
      "inputs": [],
      "name": "getUnlockHeight",
      "outputs": [
        {
          "name": "",
          "type": "uint256"
        }
      ],
      "payable": false,
      "stateMutability": "view",
      "type": "function",
      "signature": "0x70c9b0f7"
    },
    {
      "constant": true,
      "inputs": [],
      "name": "isWithdrawable",
      "outputs": [
        {
          "name": "",
          "type": "bool"
        }
      ],
      "payable": false,
      "stateMutability": "view",
      "type": "function",
      "signature": "0x4d840bcc"
    },
    {
      "constant": false,
      "inputs": [],
      "name": "virtuellMining",
      "outputs": [],
      "payable": true,
      "stateMutability": "payable",
      "type": "function",
      "signature": "0x5df5ffbb"
    }
  ],
  "bytecode": "0x60806040523480156200001157600080fd5b506040516200453d3803806200453d83398101806040526101408110156200003857600080fd5b8101908080519060200190929190805190602001909291908051906020019092919080519060200190929190805190602001909291908051906020019092919080516401000000008111156200008d57600080fd5b82810190506020810184811115620000a457600080fd5b8151856001820283011164010000000082111715620000c257600080fd5b50509291906020018051640100000000811115620000df57600080fd5b82810190506020810184811115620000f657600080fd5b81518560018202830111640100000000821117156200011457600080fd5b505092919060200180516401000000008111156200013157600080fd5b828101905060208101848111156200014857600080fd5b81518560018202830111640100000000821117156200016657600080fd5b505092919060200180516401000000008111156200018357600080fd5b828101905060208101848111156200019a57600080fd5b8151856001820283011164010000000082111715620001b857600080fd5b5050929190505050838383838360009080519060200190620001dc92919062000633565b508260019080519060200190620001f592919062000633565b5081600290805190602001906200020e92919062000633565b5080600490805190602001906200022792919062000633565b505050505088607a60006101000a81548173ffffffffffffffffffffffffffffffffffffffff021916908373ffffffffffffffffffffffffffffffffffffffff16021790555087607b60006101000a81548173ffffffffffffffffffffffffffffffffffffffff021916908373ffffffffffffffffffffffffffffffffffffffff16021790555060008710158015620002c1575060648711155b151562000336576040517f08c379a00000000000000000000000000000000000000000000000000000000081526004018080602001828103825260198152602001807f696e76616c696420636f6d70656e736174696f6e20726174650000000000000081525060200191505060405180910390fd5b86600881905550856075819055506200035f603c62000390640100000000026401000000009004565b84607881905550620003808a62000417640100000000026401000000009004565b50505050505050505050620006e2565b8060755481111515156200040c576040517f08c379a00000000000000000000000000000000000000000000000000000000081526004018080602001828103825260128152602001807f646f6e74206c6f636b20746f6f206c6f6e67000000000000000000000000000081525060200191505060405180910390fd5b816074819055505050565b600d60019054906101000a900460ff16806200044857506200044762000622640100000000026401000000009004565b5b80620004615750600d60009054906101000a900460ff16155b1515620004fc576040517f08c379a000000000000000000000000000000000000000000000000000000000815260040180806020018281038252602e8152602001807f436f6e747261637420696e7374616e63652068617320616c726561647920626581526020017f656e20696e697469616c697a656400000000000000000000000000000000000081525060400191505060405180910390fd5b6000600d60019054906101000a900460ff1690506001600d60016101000a81548160ff0219169083151502179055506001600d60006101000a81548160ff02191690831515021790555081604060006101000a81548173ffffffffffffffffffffffffffffffffffffffff021916908373ffffffffffffffffffffffffffffffffffffffff160217905550604060009054906101000a900473ffffffffffffffffffffffffffffffffffffffff1673ffffffffffffffffffffffffffffffffffffffff16600073ffffffffffffffffffffffffffffffffffffffff167f8be0079c531659141344cd1fd0a4f28419497f9722a3daafe3b4186f6b6457e060405160405180910390a380600d60016101000a81548160ff0219169083151502179055505050565b600080303b90506000811491505090565b828054600181600116156101000203166002900490600052602060002090601f016020900481019282601f106200067657805160ff1916838001178555620006a7565b82800160010185558215620006a7579182015b82811115620006a657825182559160200191906001019062000689565b5b509050620006b69190620006ba565b5090565b620006df91905b80821115620006db576000816000905550600101620006c1565b5090565b90565b613e4b80620006f26000396000f3fe608060405260043610610246576000357c0100000000000000000000000000000000000000000000000000000000900463ffffffff168063021737321461024857806306fdde031461027a578063095ea7b31461030a57806311bfe32e1461037d57806312d43a51146103a857806318160ddd146103ff57806323b872dd1461042a57806339509351146104bd5780633aa9dd2a146105305780633c85053e1461058b57806342d07a1e146105a25780634d840bcc146105dd5780634e69d5601461060c5780634eb665af146106375780634f1bfc9e146106725780634f8457e41461069d578063516f279e146106c857806359aa9506146107585780635df5ffbb146107af5780636e7348c9146107b957806370a082311461081e57806370c9b0f714610883578063715018a6146108ae5780637a2bee5e146108c5578063820e93f51461091657806384c6c2e3146109a65780638da5cb5b146109d15780638e7dce4e14610a285780638f32d59b14610a53578063a457c2d714610a82578063a9059cbb14610af5578063acf1ba9f14610b68578063beb0a41614610b93578063c4d66de814610c23578063cadba0d114610c74578063cd92c57d14610c9f578063d12c33b714610cb6578063d1a82a9d14610d1f578063d66d9e1914610d76578063dbed1e8814610d8d578063dd62ed3e14610df2578063e1fe7d2314610e77578063e239c40014610eb2578063edfd36cd14610edd578063ee0cfb0914610ef4578063ee419a8814610f59578063f2fde38b14610f84578063fb7f21eb14610fd5575b005b34801561025457600080fd5b5061025d611065565b604051808381526020018281526020019250505060405180910390f35b34801561028657600080fd5b5061028f611159565b6040518080602001828103825283818151815260200191508051906020019080838360005b838110156102cf5780820151818401526020810190506102b4565b50505050905090810190601f1680156102fc5780820380516001836020036101000a031916815260200191505b509250505060405180910390f35b34801561031657600080fd5b506103636004803603604081101561032d57600080fd5b81019080803573ffffffffffffffffffffffffffffffffffffffff169060200190929190803590602001909291905050506111f7565b604051808215151515815260200191505060405180910390f35b34801561038957600080fd5b50610392611324565b6040518082815260200191505060405180910390f35b3480156103b457600080fd5b506103bd611421565b604051808273ffffffffffffffffffffffffffffffffffffffff1673ffffffffffffffffffffffffffffffffffffffff16815260200191505060405180910390f35b34801561040b57600080fd5b50610414611447565b6040518082815260200191505060405180910390f35b34801561043657600080fd5b506104a36004803603606081101561044d57600080fd5b81019080803573ffffffffffffffffffffffffffffffffffffffff169060200190929190803573ffffffffffffffffffffffffffffffffffffffff16906020019092919080359060200190929190505050611451565b604051808215151515815260200191505060405180910390f35b3480156104c957600080fd5b50610516600480360360408110156104e057600080fd5b81019080803573ffffffffffffffffffffffffffffffffffffffff16906020019092919080359060200190929190505050611659565b604051808215151515815260200191505060405180910390f35b34801561053c57600080fd5b506105896004803603604081101561055357600080fd5b8101908080359060200190929190803573ffffffffffffffffffffffffffffffffffffffff169060200190929190505050611890565b005b34801561059757600080fd5b506105a0611c23565b005b3480156105ae57600080fd5b506105db600480360360208110156105c557600080fd5b8101908080359060200190929190505050611ce7565b005b3480156105e957600080fd5b506105f2611d25565b604051808215151515815260200191505060405180910390f35b34801561061857600080fd5b50610621611e22565b6040518082815260200191505060405180910390f35b34801561064357600080fd5b506106706004803603602081101561065a57600080fd5b8101908080359060200190929190505050611f1f565b005b34801561067e57600080fd5b50610687611fc2565b6040518082815260200191505060405180910390f35b3480156106a957600080fd5b506106b2611fc8565b6040518082815260200191505060405180910390f35b3480156106d457600080fd5b506106dd6120c5565b6040518080602001828103825283818151815260200191508051906020019080838360005b8381101561071d578082015181840152602081019050610702565b50505050905090810190601f16801561074a5780820380516001836020036101000a031916815260200191505b509250505060405180910390f35b34801561076457600080fd5b5061076d612163565b604051808273ffffffffffffffffffffffffffffffffffffffff1673ffffffffffffffffffffffffffffffffffffffff16815260200191505060405180910390f35b6107b7612189565b005b3480156107c557600080fd5b50610808600480360360208110156107dc57600080fd5b81019080803573ffffffffffffffffffffffffffffffffffffffff16906020019092919050505061218b565b6040518082815260200191505060405180910390f35b34801561082a57600080fd5b5061086d6004803603602081101561084157600080fd5b81019080803573ffffffffffffffffffffffffffffffffffffffff169060200190929190505050612212565b6040518082815260200191505060405180910390f35b34801561088f57600080fd5b5061089861225b565b6040518082815260200191505060405180910390f35b3480156108ba57600080fd5b506108c3612358565b005b3480156108d157600080fd5b50610914600480360360208110156108e857600080fd5b81019080803573ffffffffffffffffffffffffffffffffffffffff16906020019092919050505061242c565b005b34801561092257600080fd5b5061092b61244b565b6040518080602001828103825283818151815260200191508051906020019080838360005b8381101561096b578082015181840152602081019050610950565b50505050905090810190601f1680156109985780820380516001836020036101000a031916815260200191505b509250505060405180910390f35b3480156109b257600080fd5b506109bb6124e9565b6040518082815260200191505060405180910390f35b3480156109dd57600080fd5b506109e66124ef565b604051808273ffffffffffffffffffffffffffffffffffffffff1673ffffffffffffffffffffffffffffffffffffffff16815260200191505060405180910390f35b348015610a3457600080fd5b50610a3d612519565b6040518082815260200191505060405180910390f35b348015610a5f57600080fd5b50610a6861255b565b604051808215151515815260200191505060405180910390f35b348015610a8e57600080fd5b50610adb60048036036040811015610aa557600080fd5b81019080803573ffffffffffffffffffffffffffffffffffffffff169060200190929190803590602001909291905050506125b3565b604051808215151515815260200191505060405180910390f35b348015610b0157600080fd5b50610b4e60048036036040811015610b1857600080fd5b81019080803573ffffffffffffffffffffffffffffffffffffffff169060200190929190803590602001909291905050506127ea565b604051808215151515815260200191505060405180910390f35b348015610b7457600080fd5b50610b7d61282f565b6040518082815260200191505060405180910390f35b348015610b9f57600080fd5b50610ba8612835565b6040518080602001828103825283818151815260200191508051906020019080838360005b83811015610be8578082015181840152602081019050610bcd565b50505050905090810190601f168015610c155780820380516001836020036101000a031916815260200191505b509250505060405180910390f35b348015610c2f57600080fd5b50610c7260048036036020811015610c4657600080fd5b81019080803573ffffffffffffffffffffffffffffffffffffffff1690602001909291905050506128d3565b005b348015610c8057600080fd5b50610c89612aca565b6040518082815260200191505060405180910390f35b348015610cab57600080fd5b50610cb4612ad4565b005b348015610cc257600080fd5b50610d0560048036036020811015610cd957600080fd5b81019080803573ffffffffffffffffffffffffffffffffffffffff169060200190929190505050612cc8565b604051808215151515815260200191505060405180910390f35b348015610d2b57600080fd5b50610d34612d13565b604051808273ffffffffffffffffffffffffffffffffffffffff1673ffffffffffffffffffffffffffffffffffffffff16815260200191505060405180910390f35b348015610d8257600080fd5b50610d8b612e10565b005b348015610d9957600080fd5b50610ddc60048036036020811015610db057600080fd5b81019080803573ffffffffffffffffffffffffffffffffffffffff169060200190929190505050612e2d565b6040518082815260200191505060405180910390f35b348015610dfe57600080fd5b50610e6160048036036040811015610e1557600080fd5b81019080803573ffffffffffffffffffffffffffffffffffffffff169060200190929190803573ffffffffffffffffffffffffffffffffffffffff169060200190929190505050612e76565b6040518082815260200191505060405180910390f35b348015610e8357600080fd5b50610eb060048036036020811015610e9a57600080fd5b8101908080359060200190929190505050612efd565b005b348015610ebe57600080fd5b50610ec7613065565b6040518082815260200191505060405180910390f35b348015610ee957600080fd5b50610ef261306f565b005b348015610f0057600080fd5b50610f4360048036036020811015610f1757600080fd5b81019080803573ffffffffffffffffffffffffffffffffffffffff169060200190929190505050613080565b6040518082815260200191505060405180910390f35b348015610f6557600080fd5b50610f6e613098565b6040518082815260200191505060405180910390f35b348015610f9057600080fd5b50610fd360048036036020811015610fa757600080fd5b81019080803573ffffffffffffffffffffffffffffffffffffffff16906020019092919050505061309e565b005b348015610fe157600080fd5b50610fea6130bd565b6040518080602001828103825283818151815260200191508051906020019080838360005b8381101561102a57808201518184015260208101905061100f565b50505050905090810190601f1680156110575780820380516001836020036101000a031916815260200191505b509250505060405180910390f35b6000806000611096600c543073ffffffffffffffffffffffffffffffffffffffff163161315b90919063ffffffff16565b90506000606460085483028115156110aa57fe5b04905060006110b7611447565b14156110e2576110d282600b5461317d90919063ffffffff16565b6000809050935093505050611155565b60006110ec611447565b61111765010000000000611109858761315b90919063ffffffff16565b61319e90919063ffffffff16565b81151561112057fe5b04905061113882600b5461317d90919063ffffffff16565b61114d82600a5461317d90919063ffffffff16565b945094505050505b9091565b60008054600181600116156101000203166002900480601f0160208091040260200160405190810160405280929190818152602001828054600181600116156101000203166002900480156111ef5780601f106111c4576101008083540402835291602001916111ef565b820191906000526020600020905b8154815290600101906020018083116111d257829003601f168201915b505050505081565b60008073ffffffffffffffffffffffffffffffffffffffff168373ffffffffffffffffffffffffffffffffffffffff161415151561123457600080fd5b81600660003373ffffffffffffffffffffffffffffffffffffffff1673ffffffffffffffffffffffffffffffffffffffff16815260200190815260200160002060008573ffffffffffffffffffffffffffffffffffffffff1673ffffffffffffffffffffffffffffffffffffffff168152602001908152602001600020819055508273ffffffffffffffffffffffffffffffffffffffff163373ffffffffffffffffffffffffffffffffffffffff167f8c5be1e5ebec7d5bd14f71427d1e84f3dd0314c0f7b2291e5b200ac8c7c3b925846040518082815260200191505060405180910390a36001905092915050565b6000607b60009054906101000a900473ffffffffffffffffffffffffffffffffffffffff1673ffffffffffffffffffffffffffffffffffffffff1663f8b2cb4f306040518263ffffffff167c0100000000000000000000000000000000000000000000000000000000028152600401808273ffffffffffffffffffffffffffffffffffffffff1673ffffffffffffffffffffffffffffffffffffffff16815260200191505060206040518083038186803b1580156113e157600080fd5b505afa1580156113f5573d6000803e3d6000fd5b505050506040513d602081101561140b57600080fd5b8101908080519060200190929190505050905090565b607b60009054906101000a900473ffffffffffffffffffffffffffffffffffffffff1681565b6000600754905090565b60006114e282600660008773ffffffffffffffffffffffffffffffffffffffff1673ffffffffffffffffffffffffffffffffffffffff16815260200190815260200160002060003373ffffffffffffffffffffffffffffffffffffffff1673ffffffffffffffffffffffffffffffffffffffff1681526020019081526020016000205461315b90919063ffffffff16565b600660008673ffffffffffffffffffffffffffffffffffffffff1673ffffffffffffffffffffffffffffffffffffffff16815260200190815260200160002060003373ffffffffffffffffffffffffffffffffffffffff1673ffffffffffffffffffffffffffffffffffffffff1681526020019081526020016000208190555061156d8484846131dc565b3373ffffffffffffffffffffffffffffffffffffffff168473ffffffffffffffffffffffffffffffffffffffff167f8c5be1e5ebec7d5bd14f71427d1e84f3dd0314c0f7b2291e5b200ac8c7c3b925600660008873ffffffffffffffffffffffffffffffffffffffff1673ffffffffffffffffffffffffffffffffffffffff16815260200190815260200160002060003373ffffffffffffffffffffffffffffffffffffffff1673ffffffffffffffffffffffffffffffffffffffff168152602001908152602001600020546040518082815260200191505060405180910390a3600190509392505050565b60008073ffffffffffffffffffffffffffffffffffffffff168373ffffffffffffffffffffffffffffffffffffffff161415151561169657600080fd5b61172582600660003373ffffffffffffffffffffffffffffffffffffffff1673ffffffffffffffffffffffffffffffffffffffff16815260200190815260200160002060008673ffffffffffffffffffffffffffffffffffffffff1673ffffffffffffffffffffffffffffffffffffffff1681526020019081526020016000205461317d90919063ffffffff16565b600660003373ffffffffffffffffffffffffffffffffffffffff1673ffffffffffffffffffffffffffffffffffffffff16815260200190815260200160002060008573ffffffffffffffffffffffffffffffffffffffff1673ffffffffffffffffffffffffffffffffffffffff168152602001908152602001600020819055508273ffffffffffffffffffffffffffffffffffffffff163373ffffffffffffffffffffffffffffffffffffffff167f8c5be1e5ebec7d5bd14f71427d1e84f3dd0314c0f7b2291e5b200ac8c7c3b925600660003373ffffffffffffffffffffffffffffffffffffffff1673ffffffffffffffffffffffffffffffffffffffff16815260200190815260200160002060008773ffffffffffffffffffffffffffffffffffffffff1673ffffffffffffffffffffffffffffffffffffffff168152602001908152602001600020546040518082815260200191505060405180910390a36001905092915050565b61189861255b565b15156118a357600080fd5b6118ab611fc8565b6118c06076548461317d90919063ffffffff16565b11151515611936576040517f08c379a00000000000000000000000000000000000000000000000000000000081526004018080602001828103825260128152602001807f6e6f7420656e6f75676820746f206a6f696e000000000000000000000000000081525060200191505060405180910390fd5b607a60009054906101000a900473ffffffffffffffffffffffffffffffffffffffff1673ffffffffffffffffffffffffffffffffffffffff1663095ea7b3607b60009054906101000a900473ffffffffffffffffffffffffffffffffffffffff16846040518363ffffffff167c0100000000000000000000000000000000000000000000000000000000028152600401808373ffffffffffffffffffffffffffffffffffffffff1673ffffffffffffffffffffffffffffffffffffffff16815260200182815260200192505050602060405180830381600087803b158015611a1d57600080fd5b505af1158015611a31573d6000803e3d6000fd5b505050506040513d6020811015611a4757600080fd5b810190808051906020019092919050505050607b60009054906101000a900473ffffffffffffffffffffffffffffffffffffffff1673ffffffffffffffffffffffffffffffffffffffff1663b6b55f25836040518263ffffffff167c010000000000000000000000000000000000000000000000000000000002815260040180828152602001915050602060405180830381600087803b158015611aea57600080fd5b505af1158015611afe573d6000803e3d6000fd5b505050506040513d6020811015611b1457600080fd5b810190808051906020019092919050505050607b60009054906101000a900473ffffffffffffffffffffffffffffffffffffffff1673ffffffffffffffffffffffffffffffffffffffff166328ffe6c8826040518263ffffffff167c0100000000000000000000000000000000000000000000000000000000028152600401808273ffffffffffffffffffffffffffffffffffffffff1673ffffffffffffffffffffffffffffffffffffffff168152602001915050602060405180830381600087803b158015611be357600080fd5b505af1158015611bf7573d6000803e3d6000fd5b505050506040513d6020811015611c0d57600080fd5b8101908080519060200190929190505050505050565b607b60009054906101000a900473ffffffffffffffffffffffffffffffffffffffff1673ffffffffffffffffffffffffffffffffffffffff16633ccfd60b6040518163ffffffff167c0100000000000000000000000000000000000000000000000000000000028152600401602060405180830381600087803b158015611ca957600080fd5b505af1158015611cbd573d6000803e3d6000fd5b505050506040513d6020811015611cd357600080fd5b810190808051906020019092919050505050565b611cef6133ac565b6000339050611cfd816133e8565b6000611d0982846134f2565b9050611d15828261367d565b611d208260006137d3565b505050565b6000607b60009054906101000a900473ffffffffffffffffffffffffffffffffffffffff1673ffffffffffffffffffffffffffffffffffffffff166302a18484306040518263ffffffff167c0100000000000000000000000000000000000000000000000000000000028152600401808273ffffffffffffffffffffffffffffffffffffffff1673ffffffffffffffffffffffffffffffffffffffff16815260200191505060206040518083038186803b158015611de257600080fd5b505afa158015611df6573d6000803e3d6000fd5b505050506040513d6020811015611e0c57600080fd5b8101908080519060200190929190505050905090565b6000607b60009054906101000a900473ffffffffffffffffffffffffffffffffffffffff1673ffffffffffffffffffffffffffffffffffffffff166330ccebb5306040518263ffffffff167c0100000000000000000000000000000000000000000000000000000000028152600401808273ffffffffffffffffffffffffffffffffffffffff1673ffffffffffffffffffffffffffffffffffffffff16815260200191505060206040518083038186803b158015611edf57600080fd5b505afa158015611ef3573d6000803e3d6000fd5b505050506040513d6020811015611f0957600080fd5b8101908080519060200190929190505050905090565b611f2761255b565b1515611f3257600080fd5b6078546079540142111515611faf576040517f08c379a00000000000000000000000000000000000000000000000000000000081526004018080602001828103825260148152602001807f646f6e74206368616e676520746f20717569636b00000000000000000000000081525060200191505060405180910390fd5b42607981905550611fbf8161384a565b50565b60755481565b6000607a60009054906101000a900473ffffffffffffffffffffffffffffffffffffffff1673ffffffffffffffffffffffffffffffffffffffff166370a08231306040518263ffffffff167c0100000000000000000000000000000000000000000000000000000000028152600401808273ffffffffffffffffffffffffffffffffffffffff1673ffffffffffffffffffffffffffffffffffffffff16815260200191505060206040518083038186803b15801561208557600080fd5b505afa158015612099573d6000803e3d6000fd5b505050506040513d60208110156120af57600080fd5b8101908080519060200190929190505050905090565b60028054600181600116156101000203166002900480601f01602080910402602001604051908101604052809291908181526020018280546001816001161561010002031660029004801561215b5780601f106121305761010080835404028352916020019161215b565b820191906000526020600020905b81548152906001019060200180831161213e57829003601f168201915b505050505081565b607a60009054906101000a900473ffffffffffffffffffffffffffffffffffffffff1681565b565b6000806000612198611065565b91509150600960008573ffffffffffffffffffffffffffffffffffffffff1673ffffffffffffffffffffffffffffffffffffffff16815260200190815260200160002054650100000000006121fe836121f088612212565b61319e90919063ffffffff16565b81151561220757fe5b040392505050919050565b6000600560008373ffffffffffffffffffffffffffffffffffffffff1673ffffffffffffffffffffffffffffffffffffffff168152602001908152602001600020549050919050565b6000607b60009054906101000a900473ffffffffffffffffffffffffffffffffffffffff1673ffffffffffffffffffffffffffffffffffffffff166355235d47306040518263ffffffff167c0100000000000000000000000000000000000000000000000000000000028152600401808273ffffffffffffffffffffffffffffffffffffffff1673ffffffffffffffffffffffffffffffffffffffff16815260200191505060206040518083038186803b15801561231857600080fd5b505afa15801561232c573d6000803e3d6000fd5b505050506040513d602081101561234257600080fd5b8101908080519060200190929190505050905090565b61236061255b565b151561236b57600080fd5b600073ffffffffffffffffffffffffffffffffffffffff16604060009054906101000a900473ffffffffffffffffffffffffffffffffffffffff1673ffffffffffffffffffffffffffffffffffffffff167f8be0079c531659141344cd1fd0a4f28419497f9722a3daafe3b4186f6b6457e060405160405180910390a36000604060006101000a81548173ffffffffffffffffffffffffffffffffffffffff021916908373ffffffffffffffffffffffffffffffffffffffff160217905550565b61243461255b565b151561243f57600080fd5b612448816138d0565b50565b60038054600181600116156101000203166002900480601f0160208091040260200160405190810160405280929190818152602001828054600181600116156101000203166002900480156124e15780601f106124b6576101008083540402835291602001916124e1565b820191906000526020600020905b8154815290600101906020018083116124c457829003601f168201915b505050505081565b60085481565b6000604060009054906101000a900473ffffffffffffffffffffffffffffffffffffffff16905090565b6000806000612526611065565b91509150612554823073ffffffffffffffffffffffffffffffffffffffff163161315b90919063ffffffff16565b9250505090565b6000604060009054906101000a900473ffffffffffffffffffffffffffffffffffffffff1673ffffffffffffffffffffffffffffffffffffffff163373ffffffffffffffffffffffffffffffffffffffff1614905090565b60008073ffffffffffffffffffffffffffffffffffffffff168373ffffffffffffffffffffffffffffffffffffffff16141515156125f057600080fd5b61267f82600660003373ffffffffffffffffffffffffffffffffffffffff1673ffffffffffffffffffffffffffffffffffffffff16815260200190815260200160002060008673ffffffffffffffffffffffffffffffffffffffff1673ffffffffffffffffffffffffffffffffffffffff1681526020019081526020016000205461315b90919063ffffffff16565b600660003373ffffffffffffffffffffffffffffffffffffffff1673ffffffffffffffffffffffffffffffffffffffff16815260200190815260200160002060008573ffffffffffffffffffffffffffffffffffffffff1673ffffffffffffffffffffffffffffffffffffffff168152602001908152602001600020819055508273ffffffffffffffffffffffffffffffffffffffff163373ffffffffffffffffffffffffffffffffffffffff167f8c5be1e5ebec7d5bd14f71427d1e84f3dd0314c0f7b2291e5b200ac8c7c3b925600660003373ffffffffffffffffffffffffffffffffffffffff1673ffffffffffffffffffffffffffffffffffffffff16815260200190815260200160002060008773ffffffffffffffffffffffffffffffffffffffff1673ffffffffffffffffffffffffffffffffffffffff168152602001908152602001600020546040518082815260200191505060405180910390a36001905092915050565b60008073ffffffffffffffffffffffffffffffffffffffff168373ffffffffffffffffffffffffffffffffffffffff161480156128275750600082145b905092915050565b60765481565b60018054600181600116156101000203166002900480601f0160208091040260200160405190810160405280929190818152602001828054600181600116156101000203166002900480156128cb5780601f106128a0576101008083540402835291602001916128cb565b820191906000526020600020905b8154815290600101906020018083116128ae57829003601f168201915b505050505081565b600d60019054906101000a900460ff16806128f257506128f161394d565b5b8061290a5750600d60009054906101000a900460ff16155b15156129a4576040517f08c379a000000000000000000000000000000000000000000000000000000000815260040180806020018281038252602e8152602001807f436f6e747261637420696e7374616e63652068617320616c726561647920626581526020017f656e20696e697469616c697a656400000000000000000000000000000000000081525060400191505060405180910390fd5b6000600d60019054906101000a900460ff1690506001600d60016101000a81548160ff0219169083151502179055506001600d60006101000a81548160ff02191690831515021790555081604060006101000a81548173ffffffffffffffffffffffffffffffffffffffff021916908373ffffffffffffffffffffffffffffffffffffffff160217905550604060009054906101000a900473ffffffffffffffffffffffffffffffffffffffff1673ffffffffffffffffffffffffffffffffffffffff16600073ffffffffffffffffffffffffffffffffffffffff167f8be0079c531659141344cd1fd0a4f28419497f9722a3daafe3b4186f6b6457e060405160405180910390a380600d60016101000a81548160ff0219169083151502179055505050565b6501000000000081565b612add33612cc8565b151515612b52576040517f08c379a000000000000000000000000000000000000000000000000000000000815260040180806020018281038252600d8152602001807f7374696c6c206c6f636b696e670000000000000000000000000000000000000081525060200191505060405180910390fd5b60003390506000607760008373ffffffffffffffffffffffffffffffffffffffff1673ffffffffffffffffffffffffffffffffffffffff168152602001908152602001600020549050612ba3611fc8565b811115612bb957612bb261395e565b5050612cc6565b607a60009054906101000a900473ffffffffffffffffffffffffffffffffffffffff1673ffffffffffffffffffffffffffffffffffffffff1663a9059cbb83836040518363ffffffff167c0100000000000000000000000000000000000000000000000000000000028152600401808373ffffffffffffffffffffffffffffffffffffffff1673ffffffffffffffffffffffffffffffffffffffff16815260200182815260200192505050602060405180830381600087803b158015612c7e57600080fd5b505af1158015612c92573d6000803e3d6000fd5b505050506040513d6020811015612ca857600080fd5b810190808051906020019092919050505050612cc382613a22565b50505b565b600042607360008473ffffffffffffffffffffffffffffffffffffffff1673ffffffffffffffffffffffffffffffffffffffff16815260200190815260200160002054119050919050565b6000607b60009054906101000a900473ffffffffffffffffffffffffffffffffffffffff1673ffffffffffffffffffffffffffffffffffffffff16630a9a3f07306040518263ffffffff167c0100000000000000000000000000000000000000000000000000000000028152600401808273ffffffffffffffffffffffffffffffffffffffff1673ffffffffffffffffffffffffffffffffffffffff16815260200191505060206040518083038186803b158015612dd057600080fd5b505afa158015612de4573d6000803e3d6000fd5b505050506040513d6020811015612dfa57600080fd5b8101908080519060200190929190505050905090565b612e1861255b565b1515612e2357600080fd5b612e2b61395e565b565b6000607360008373ffffffffffffffffffffffffffffffffffffffff1673ffffffffffffffffffffffffffffffffffffffff168152602001908152602001600020549050919050565b6000600660008473ffffffffffffffffffffffffffffffffffffffff1673ffffffffffffffffffffffffffffffffffffffff16815260200190815260200160002060008373ffffffffffffffffffffffffffffffffffffffff1673ffffffffffffffffffffffffffffffffffffffff16815260200190815260200160002054905092915050565b612f056133ac565b60003390506000612f1582613ac2565b9050607a60009054906101000a900473ffffffffffffffffffffffffffffffffffffffff1673ffffffffffffffffffffffffffffffffffffffff166323b872dd8330866040518463ffffffff167c0100000000000000000000000000000000000000000000000000000000028152600401808473ffffffffffffffffffffffffffffffffffffffff1673ffffffffffffffffffffffffffffffffffffffff1681526020018373ffffffffffffffffffffffffffffffffffffffff1673ffffffffffffffffffffffffffffffffffffffff1681526020018281526020019350505050602060405180830381600087803b15801561301057600080fd5b505af1158015613024573d6000803e3d6000fd5b505050506040513d602081101561303a57600080fd5b8101908080519060200190929190505050506130568284613b3a565b61306082826137d3565b505050565b6000607454905090565b600033905061307d816133e8565b50565b60776020528060005260406000206000915090505481565b60785481565b6130a661255b565b15156130b157600080fd5b6130ba81613c90565b50565b60048054600181600116156101000203166002900480601f0160208091040260200160405190810160405280929190818152602001828054600181600116156101000203166002900480156131535780601f1061312857610100808354040283529160200191613153565b820191906000526020600020905b81548152906001019060200180831161313657829003601f168201915b505050505081565b600082821115151561316c57600080fd5b600082840390508091505092915050565b600080828401905083811015151561319457600080fd5b8091505092915050565b6000808314156131b157600090506131d6565b600082840290508284828115156131c457fe5b041415156131d157600080fd5b809150505b92915050565b600073ffffffffffffffffffffffffffffffffffffffff168273ffffffffffffffffffffffffffffffffffffffff161415151561321857600080fd5b61326a81600560008673ffffffffffffffffffffffffffffffffffffffff1673ffffffffffffffffffffffffffffffffffffffff1681526020019081526020016000205461315b90919063ffffffff16565b600560008573ffffffffffffffffffffffffffffffffffffffff1673ffffffffffffffffffffffffffffffffffffffff168152602001908152602001600020819055506132ff81600560008573ffffffffffffffffffffffffffffffffffffffff1673ffffffffffffffffffffffffffffffffffffffff1681526020019081526020016000205461317d90919063ffffffff16565b600560008473ffffffffffffffffffffffffffffffffffffffff1673ffffffffffffffffffffffffffffffffffffffff168152602001908152602001600020819055508173ffffffffffffffffffffffffffffffffffffffff168373ffffffffffffffffffffffffffffffffffffffff167fddf252ad1be2c89b69c2b068fc378daa952ba7f163c4a11628f55a4df523b3ef836040518082815260200191505060405180910390a3505050565b6133b4611065565b600b6000600a60008491905055839190505550503073ffffffffffffffffffffffffffffffffffffffff1631600c81905550565b6133f06133ac565b60006133fb82613ac2565b905080600960008473ffffffffffffffffffffffffffffffffffffffff1673ffffffffffffffffffffffffffffffffffffffff1681526020019081526020016000205401600960008473ffffffffffffffffffffffffffffffffffffffff1673ffffffffffffffffffffffffffffffffffffffff1681526020019081526020016000208190555061349781600c5461315b90919063ffffffff16565b600c819055506134a682613ac2565b508173ffffffffffffffffffffffffffffffffffffffff166108fc829081150290604051600060405180830381858888f193505050501580156134ed573d6000803e3d6000fd5b505050565b6000607760008473ffffffffffffffffffffffffffffffffffffffff1673ffffffffffffffffffffffffffffffffffffffff16815260200190815260200160002054821115156135d0576040517f08c379a00000000000000000000000000000000000000000000000000000000081526004018080602001828103825260298152602001807f6e657720616d6f756e74206d7573742062652067726561746572207468616e2081526020017f746865206f6c646572000000000000000000000000000000000000000000000081525060400191505060405180910390fd5b6000607760008573ffffffffffffffffffffffffffffffffffffffff1673ffffffffffffffffffffffffffffffffffffffff168152602001908152602001600020548303905082607760008673ffffffffffffffffffffffffffffffffffffffff1673ffffffffffffffffffffffffffffffffffffffff168152602001908152602001600020819055508260766000828254019250508190555061367384613d8c565b8091505092915050565b600073ffffffffffffffffffffffffffffffffffffffff168273ffffffffffffffffffffffffffffffffffffffff16141515156136b957600080fd5b6136ce8160075461315b90919063ffffffff16565b60078190555061372681600560008573ffffffffffffffffffffffffffffffffffffffff1673ffffffffffffffffffffffffffffffffffffffff1681526020019081526020016000205461315b90919063ffffffff16565b600560008473ffffffffffffffffffffffffffffffffffffffff1673ffffffffffffffffffffffffffffffffffffffff16815260200190815260200160002081905550600073ffffffffffffffffffffffffffffffffffffffff168273ffffffffffffffffffffffffffffffffffffffff167fddf252ad1be2c89b69c2b068fc378daa952ba7f163c4a11628f55a4df523b3ef836040518082815260200191505060405180910390a35050565b80650100000000006137f8600a546137ea86612212565b61319e90919063ffffffff16565b81151561380157fe5b0403600960008473ffffffffffffffffffffffffffffffffffffffff1673ffffffffffffffffffffffffffffffffffffffff168152602001908152602001600020819055505050565b8060755481111515156138c5576040517f08c379a00000000000000000000000000000000000000000000000000000000081526004018080602001828103825260128152602001807f646f6e74206c6f636b20746f6f206c6f6e67000000000000000000000000000081525060200191505060405180910390fd5b816074819055505050565b6138d86133ac565b6000600b5490506000600b819055506138fc81600c5461315b90919063ffffffff16565b600c819055508173ffffffffffffffffffffffffffffffffffffffff166108fc829081150290604051600060405180830381858888f19350505050158015613948573d6000803e3d6000fd5b505050565b600080303b90506000811491505090565b607b60009054906101000a900473ffffffffffffffffffffffffffffffffffffffff1673ffffffffffffffffffffffffffffffffffffffff1663d66d9e196040518163ffffffff167c0100000000000000000000000000000000000000000000000000000000028152600401602060405180830381600087803b1580156139e457600080fd5b505af11580156139f8573d6000803e3d6000fd5b505050506040513d6020811015613a0e57600080fd5b810190808051906020019092919050505050565b607760008273ffffffffffffffffffffffffffffffffffffffff1673ffffffffffffffffffffffffffffffffffffffff168152602001908152602001600020546076600082825403925050819055506000607760008373ffffffffffffffffffffffffffffffffffffffff1673ffffffffffffffffffffffffffffffffffffffff16815260200190815260200160002081905550613abf81613dd7565b50565b6000600960008373ffffffffffffffffffffffffffffffffffffffff1673ffffffffffffffffffffffffffffffffffffffff1681526020019081526020016000205465010000000000613b28600a54613b1a86612212565b61319e90919063ffffffff16565b811515613b3157fe5b04039050919050565b600073ffffffffffffffffffffffffffffffffffffffff168273ffffffffffffffffffffffffffffffffffffffff1614151515613b7657600080fd5b613b8b8160075461317d90919063ffffffff16565b600781905550613be381600560008573ffffffffffffffffffffffffffffffffffffffff1673ffffffffffffffffffffffffffffffffffffffff1681526020019081526020016000205461317d90919063ffffffff16565b600560008473ffffffffffffffffffffffffffffffffffffffff1673ffffffffffffffffffffffffffffffffffffffff168152602001908152602001600020819055508173ffffffffffffffffffffffffffffffffffffffff16600073ffffffffffffffffffffffffffffffffffffffff167fddf252ad1be2c89b69c2b068fc378daa952ba7f163c4a11628f55a4df523b3ef836040518082815260200191505060405180910390a35050565b600073ffffffffffffffffffffffffffffffffffffffff168173ffffffffffffffffffffffffffffffffffffffff1614151515613ccc57600080fd5b8073ffffffffffffffffffffffffffffffffffffffff16604060009054906101000a900473ffffffffffffffffffffffffffffffffffffffff1673ffffffffffffffffffffffffffffffffffffffff167f8be0079c531659141344cd1fd0a4f28419497f9722a3daafe3b4186f6b6457e060405160405180910390a380604060006101000a81548173ffffffffffffffffffffffffffffffffffffffff021916908373ffffffffffffffffffffffffffffffffffffffff16021790555050565b6074544201607360008373ffffffffffffffffffffffffffffffffffffffff1673ffffffffffffffffffffffffffffffffffffffff1681526020019081526020016000208190555050565b6000607360008373ffffffffffffffffffffffffffffffffffffffff1673ffffffffffffffffffffffffffffffffffffffff168152602001908152602001600020819055505056fea165627a7a723058207ec554f47e85e476a2224df37ce3ef5f9df59740b6e3da4580496faf3023edd10029",
  "source": "pragma solidity ^0.5.0;\r\n\r\nimport \"./../../node_modules/openzeppelin-eth/contracts/ownership/Ownable.sol\";\r\nimport \"./CoinShare.sol\";\r\nimport \"./Request.sol\";\r\n\r\nimport \"./interfaces/GovI.sol\";\r\nimport \"./interfaces/NtfTokenI.sol\";\r\n\r\ncontract PoolDesc {\r\n    string public name;\r\n    string public website;\r\n    string public location;\r\n    string public email;\r\n    string public logo;\r\n\r\n    constructor (\r\n        string memory _name,\r\n        string memory _website,\r\n        string memory _location,\r\n        string memory _logo\r\n    ) public {\r\n        name = _name;\r\n        website = _website;\r\n        location = _location;\r\n        logo = _logo;\r\n    }\r\n}\r\n\r\ncontract NtfPool is PoolDesc, CoinShare, Ownable, Request {\r\n    uint256 public OWNER_ACTION_DELAY; // = 7 days;\r\n\r\n    uint256 lastActionTime;\r\n\r\n    NtfTokenI public ntfToken;\r\n    GovI public gov;\r\n\r\n    modifier delayPast() {\r\n        require(block.timestamp > lastActionTime + OWNER_ACTION_DELAY, \"dont change to quick\");\r\n        _;\r\n    }\r\n\r\n    function () external payable {}\r\n\r\n    constructor\r\n    (\r\n        address _owner,\r\n        address _ntfAddress,\r\n        address _govAddress,\r\n        uint256 _COMPRATE,\r\n        uint256 _MAX_LOCK_DURATION,\r\n        uint256 _OWNER_ACTION_DELAY,\r\n        string memory _name,\r\n        string memory _website,\r\n        string memory _location,\r\n        string memory _logo\r\n    )\r\n        public\r\n        PoolDesc(_name, _website, _location, _logo)\r\n    {\r\n        ntfToken = NtfTokenI(_ntfAddress);\r\n        gov = GovI(_govAddress);\r\n        require(_COMPRATE >= 0 && _COMPRATE <= 100, \"invalid compensation rate\");\r\n        COMPRATE = _COMPRATE;\r\n        MAX_LOCK_DURATION = _MAX_LOCK_DURATION;\r\n        _setLockDuration(60);\r\n        OWNER_ACTION_DELAY = _OWNER_ACTION_DELAY;\r\n        initialize(_owner);\r\n    }\r\n\r\n    // owner function\r\n    // function deposit(uint256 _amount) external returns (bool);\r\n    // function join(address _signer) external returns (bool);\r\n    // function leave() external returns (bool);\r\n    // function withdraw() external returns (bool);\r\n\r\n    function join(\r\n        uint256 _amount,\r\n        address _signer\r\n    )\r\n        public\r\n        onlyOwner()\r\n    {\r\n        require(_amount.add(pendingOutSum) <= getPoolNtfBalance(), \"not enough to join\");\r\n        ntfToken.approve(address(gov), _amount);\r\n        gov.deposit(_amount);\r\n        gov.join(_signer);\r\n    }\r\n\r\n    function _leave()\r\n        internal\r\n    {\r\n        gov.leave();\r\n    }\r\n\r\n    function leave()\r\n        public\r\n        onlyOwner()\r\n    {\r\n        _leave();\r\n    }\r\n\r\n    function tokenPoolWithdraw()\r\n        public\r\n        //onlyOwner()\r\n    {\r\n        gov.withdraw();\r\n    }\r\n\r\n    function fundWithdraw(\r\n        address payable _toAddress\r\n    )\r\n        public\r\n        onlyOwner()\r\n    {\r\n        _fundWithdraw(_toAddress);\r\n    }\r\n\r\n    function setLockDuration(\r\n        uint256 _lockDuration\r\n    )\r\n        public\r\n        onlyOwner()\r\n        delayPast()\r\n    {\r\n        lastActionTime = block.timestamp;\r\n        _setLockDuration(_lockDuration);\r\n    }\r\n\r\n    // members function\r\n    function requestOut(\r\n        uint256 _amount\r\n    )\r\n        public\r\n    {\r\n        _updateFundCpt();\r\n        address payable _sender = msg.sender;\r\n        _coinWithdraw(_sender);\r\n        uint256 _added = _requestOut(_sender, _amount);\r\n        _burn(_sender, _added);\r\n        _updateCredit(_sender, 0);\r\n    }\r\n\r\n    function tokenDeposit(\r\n        uint256 _amount\r\n    )\r\n            public\r\n    {\r\n        _updateFundCpt();\r\n        address _sender = msg.sender;\r\n        uint256 _coinBalance = coinOf(_sender);\r\n        ntfToken.transferFrom(_sender, address(this), _amount);\r\n        _mint(_sender, _amount);\r\n        _updateCredit(_sender, _coinBalance);\r\n    }\r\n\r\n    function tokenMemberWithdraw(\r\n    )\r\n        public\r\n        notLocking()\r\n    {\r\n        address _sender = msg.sender;\r\n        uint256 _amount = pendingOut[_sender];\r\n        if (_amount > getPoolNtfBalance()) {\r\n            _leave();\r\n            return;\r\n        }\r\n        ntfToken.transfer(_sender, _amount);\r\n        _removeRequest(_sender);\r\n    }\r\n\r\n    function coinWithdraw()\r\n        public\r\n    {\r\n        address payable _sender = msg.sender;\r\n        _coinWithdraw(_sender);\r\n    }\r\n\r\n    // Read Functions\r\n\r\n    // deployed NtfToken contract\r\n    function getPoolNtfBalance()\r\n        public\r\n        view\r\n        returns(uint256)\r\n    {\r\n        return ntfToken.balanceOf(address(this));\r\n    }\r\n\r\n    //  CoinShare contract\r\n    // function getCpt() public view returns(uint256)\r\n    // function getFund() public view returns(uint256)\r\n    // function getCoinOf(address _member) public view returns(uint256)\r\n\r\n    // Lockable contract\r\n    // function getUnlockTime(address _member) public view returns(uint256)\r\n    // function isLocking(address _member) public view returns(bool)\r\n    // function getLockDuration() public view returns(uint256)\r\n\r\n    function getStatus()\r\n        public\r\n        view\r\n        returns(uint256)\r\n    {\r\n        return gov.getStatus(address(this));\r\n    }\r\n\r\n    function getPoolGovBalance()\r\n        public\r\n        view\r\n        returns(uint256)\r\n    {\r\n        return gov.getBalance(address(this));\r\n    }\r\n\r\n    function getCoinbase()\r\n        public\r\n        view\r\n        returns(address)\r\n    {\r\n        return gov.getCoinbase(address(this));\r\n    }\r\n\r\n    function getUnlockHeight()\r\n        public\r\n        view\r\n        returns(uint256)\r\n    {\r\n        return gov.getUnlockHeight(address(this));\r\n    }\r\n\r\n    function isWithdrawable()\r\n        external\r\n        view\r\n        returns(bool)\r\n    {\r\n        return gov.isWithdrawable(address(this));\r\n    }\r\n\r\n/*\r\n    TEST TEST TEST TEST TEST TEST TEST TEST TEST \r\n*/\r\n    // send nty to contract as Reward from Core\r\n    function virtuellMining()\r\n        public\r\n        payable\r\n    {\r\n\r\n    }\r\n}",
  "sourcePath": "C:\\Users\\bestb\\Desktop\\workshop\\sealing-pool\\contracts\\ntfPool\\NtfPool.sol",
  "compiler": {
    "name": "solc",
    "version": "0.5.0+commit.1d4f565a.Emscripten.clang"
  },
  "schemaVersion": "3.0.6",
  "updatedAt": "2019-05-27T04:50:23.956Z",
  "devdoc": {
    "methods": {
      "allowance(address,address)": {
        "details": "Function to check the amount of tokens that an owner allowed to a spender.",
        "params": {
          "owner": "address The address which owns the funds.",
          "spender": "address The address which will spend the funds."
        },
        "return": "A uint256 specifying the amount of tokens still available for the spender."
      },
      "approve(address,uint256)": {
        "details": "Approve the passed address to spend the specified amount of tokens on behalf of msg.sender. Beware that changing an allowance with this method brings the risk that someone may use both the old and the new allowance by unfortunate transaction ordering. One possible solution to mitigate this race condition is to first reduce the spender's allowance to 0 and set the desired value afterwards: https://github.com/ethereum/EIPs/issues/20#issuecomment-263524729",
        "params": {
          "spender": "The address which will spend the funds.",
          "value": "The amount of tokens to be spent."
        }
      },
      "balanceOf(address)": {
        "details": "Gets the balance of the specified address.",
        "params": {
          "owner": "The address to query the balance of."
        },
        "return": "An uint256 representing the amount owned by the passed address."
      },
      "decreaseAllowance(address,uint256)": {
        "details": "Decrease the amount of tokens that an owner allowed to a spender. approve should be called when allowed_[_spender] == 0. To decrement allowed value is better to use this function to avoid 2 calls (and wait until the first transaction is mined) From MonolithDAO Token.sol Emits an Approval event.",
        "params": {
          "spender": "The address which will spend the funds.",
          "subtractedValue": "The amount of tokens to decrease the allowance by."
        }
      },
      "increaseAllowance(address,uint256)": {
        "details": "Increase the amount of tokens that an owner allowed to a spender. approve should be called when allowed_[_spender] == 0. To increment allowed value is better to use this function to avoid 2 calls (and wait until the first transaction is mined) From MonolithDAO Token.sol Emits an Approval event.",
        "params": {
          "addedValue": "The amount of tokens to increase the allowance by.",
          "spender": "The address which will spend the funds."
        }
      },
      "initialize(address)": {
        "details": "The Ownable constructor sets the original `owner` of the contract to the sender account."
      },
      "isOwner()": {
        "return": "true if `msg.sender` is the owner of the contract."
      },
      "owner()": {
        "return": "the address of the owner."
      },
      "renounceOwnership()": {
        "details": "Allows the current owner to relinquish control of the contract."
      },
      "totalSupply()": {
        "details": "Total number of tokens in existence"
      },
      "transferFrom(address,address,uint256)": {
        "details": "Transfer tokens from one address to another. Note that while this function emits an Approval event, this is not required as per the specification, and other compliant implementations may not emit the event.",
        "params": {
          "from": "address The address which you want to send tokens from",
          "to": "address The address which you want to transfer to",
          "value": "uint256 the amount of tokens to be transferred"
        }
      },
      "transferOwnership(address)": {
        "details": "Allows the current owner to transfer control of the contract to a newOwner.",
        "params": {
          "newOwner": "The address to transfer ownership to."
        }
      }
    }
  },
  "userdoc": {
    "methods": {
      "renounceOwnership()": {
        "notice": "Renouncing to ownership will leave the contract without an owner. It will not be possible to call the functions with the `onlyOwner` modifier anymore."
      }
    }
  }
}