{
  "contractName": "NtfPool",
  "abi": [
    {
      "constant": true,
      "inputs": [],
      "name": "getCurFundCpt",
      "outputs": [
        {
          "name": "",
          "type": "uint256"
        },
        {
          "name": "",
          "type": "uint256"
        }
      ],
      "payable": false,
      "stateMutability": "view",
      "type": "function",
      "signature": "0x02173732"
    },
    {
      "constant": true,
      "inputs": [],
      "name": "name",
      "outputs": [
        {
          "name": "",
          "type": "string"
        }
      ],
      "payable": false,
      "stateMutability": "view",
      "type": "function",
      "signature": "0x06fdde03"
    },
    {
      "constant": false,
      "inputs": [
        {
          "name": "spender",
          "type": "address"
        },
        {
          "name": "value",
          "type": "uint256"
        }
      ],
      "name": "approve",
      "outputs": [
        {
          "name": "",
          "type": "bool"
        }
      ],
      "payable": false,
      "stateMutability": "nonpayable",
      "type": "function",
      "signature": "0x095ea7b3"
    },
    {
      "constant": true,
      "inputs": [],
      "name": "gov",
      "outputs": [
        {
          "name": "",
          "type": "address"
        }
      ],
      "payable": false,
      "stateMutability": "view",
      "type": "function",
      "signature": "0x12d43a51"
    },
    {
      "constant": true,
      "inputs": [],
      "name": "totalSupply",
      "outputs": [
        {
          "name": "",
          "type": "uint256"
        }
      ],
      "payable": false,
      "stateMutability": "view",
      "type": "function",
      "signature": "0x18160ddd"
    },
    {
      "constant": false,
      "inputs": [
        {
          "name": "from",
          "type": "address"
        },
        {
          "name": "to",
          "type": "address"
        },
        {
          "name": "value",
          "type": "uint256"
        }
      ],
      "name": "transferFrom",
      "outputs": [
        {
          "name": "",
          "type": "bool"
        }
      ],
      "payable": false,
      "stateMutability": "nonpayable",
      "type": "function",
      "signature": "0x23b872dd"
    },
    {
      "constant": false,
      "inputs": [
        {
          "name": "spender",
          "type": "address"
        },
        {
          "name": "addedValue",
          "type": "uint256"
        }
      ],
      "name": "increaseAllowance",
      "outputs": [
        {
          "name": "",
          "type": "bool"
        }
      ],
      "payable": false,
      "stateMutability": "nonpayable",
      "type": "function",
      "signature": "0x39509351"
    },
    {
      "constant": true,
      "inputs": [],
      "name": "MAX_LOCK_DURATION",
      "outputs": [
        {
          "name": "",
          "type": "uint256"
        }
      ],
      "payable": false,
      "stateMutability": "view",
      "type": "function",
      "signature": "0x4f1bfc9e"
    },
    {
      "constant": true,
      "inputs": [],
      "name": "location",
      "outputs": [
        {
          "name": "",
          "type": "string"
        }
      ],
      "payable": false,
      "stateMutability": "view",
      "type": "function",
      "signature": "0x516f279e"
    },
    {
      "constant": true,
      "inputs": [],
      "name": "ntfToken",
      "outputs": [
        {
          "name": "",
          "type": "address"
        }
      ],
      "payable": false,
      "stateMutability": "view",
      "type": "function",
      "signature": "0x59aa9506"
    },
    {
      "constant": true,
      "inputs": [
        {
          "name": "_member",
          "type": "address"
        }
      ],
      "name": "getCoinOf",
      "outputs": [
        {
          "name": "",
          "type": "uint256"
        }
      ],
      "payable": false,
      "stateMutability": "view",
      "type": "function",
      "signature": "0x6e7348c9"
    },
    {
      "constant": true,
      "inputs": [
        {
          "name": "owner",
          "type": "address"
        }
      ],
      "name": "balanceOf",
      "outputs": [
        {
          "name": "",
          "type": "uint256"
        }
      ],
      "payable": false,
      "stateMutability": "view",
      "type": "function",
      "signature": "0x70a08231"
    },
    {
      "constant": false,
      "inputs": [],
      "name": "renounceOwnership",
      "outputs": [],
      "payable": false,
      "stateMutability": "nonpayable",
      "type": "function",
      "signature": "0x715018a6"
    },
    {
      "constant": true,
      "inputs": [],
      "name": "email",
      "outputs": [
        {
          "name": "",
          "type": "string"
        }
      ],
      "payable": false,
      "stateMutability": "view",
      "type": "function",
      "signature": "0x820e93f5"
    },
    {
      "constant": true,
      "inputs": [],
      "name": "COMPRATE",
      "outputs": [
        {
          "name": "",
          "type": "uint256"
        }
      ],
      "payable": false,
      "stateMutability": "view",
      "type": "function",
      "signature": "0x84c6c2e3"
    },
    {
      "constant": true,
      "inputs": [],
      "name": "owner",
      "outputs": [
        {
          "name": "",
          "type": "address"
        }
      ],
      "payable": false,
      "stateMutability": "view",
      "type": "function",
      "signature": "0x8da5cb5b"
    },
    {
      "constant": true,
      "inputs": [],
      "name": "getMembersBalance",
      "outputs": [
        {
          "name": "",
          "type": "uint256"
        }
      ],
      "payable": false,
      "stateMutability": "view",
      "type": "function",
      "signature": "0x8e7dce4e"
    },
    {
      "constant": true,
      "inputs": [],
      "name": "isOwner",
      "outputs": [
        {
          "name": "",
          "type": "bool"
        }
      ],
      "payable": false,
      "stateMutability": "view",
      "type": "function",
      "signature": "0x8f32d59b"
    },
    {
      "constant": false,
      "inputs": [
        {
          "name": "spender",
          "type": "address"
        },
        {
          "name": "subtractedValue",
          "type": "uint256"
        }
      ],
      "name": "decreaseAllowance",
      "outputs": [
        {
          "name": "",
          "type": "bool"
        }
      ],
      "payable": false,
      "stateMutability": "nonpayable",
      "type": "function",
      "signature": "0xa457c2d7"
    },
    {
      "constant": false,
      "inputs": [
        {
          "name": "to",
          "type": "address"
        },
        {
          "name": "value",
          "type": "uint256"
        }
      ],
      "name": "transfer",
      "outputs": [
        {
          "name": "",
          "type": "bool"
        }
      ],
      "payable": false,
      "stateMutability": "nonpayable",
      "type": "function",
      "signature": "0xa9059cbb"
    },
    {
      "constant": true,
      "inputs": [],
      "name": "website",
      "outputs": [
        {
          "name": "",
          "type": "string"
        }
      ],
      "payable": false,
      "stateMutability": "view",
      "type": "function",
      "signature": "0xbeb0a416"
    },
    {
      "constant": false,
      "inputs": [
        {
          "name": "sender",
          "type": "address"
        }
      ],
      "name": "initialize",
      "outputs": [],
      "payable": false,
      "stateMutability": "nonpayable",
      "type": "function",
      "signature": "0xc4d66de8"
    },
    {
      "constant": true,
      "inputs": [],
      "name": "CPT_ZOOM",
      "outputs": [
        {
          "name": "",
          "type": "uint256"
        }
      ],
      "payable": false,
      "stateMutability": "view",
      "type": "function",
      "signature": "0xcadba0d1"
    },
    {
      "constant": true,
      "inputs": [
        {
          "name": "_member",
          "type": "address"
        }
      ],
      "name": "isLocking",
      "outputs": [
        {
          "name": "",
          "type": "bool"
        }
      ],
      "payable": false,
      "stateMutability": "view",
      "type": "function",
      "signature": "0xd12c33b7"
    },
    {
      "constant": true,
      "inputs": [
        {
          "name": "_member",
          "type": "address"
        }
      ],
      "name": "getUnlockTime",
      "outputs": [
        {
          "name": "",
          "type": "uint256"
        }
      ],
      "payable": false,
      "stateMutability": "view",
      "type": "function",
      "signature": "0xdbed1e88"
    },
    {
      "constant": true,
      "inputs": [
        {
          "name": "owner",
          "type": "address"
        },
        {
          "name": "spender",
          "type": "address"
        }
      ],
      "name": "allowance",
      "outputs": [
        {
          "name": "",
          "type": "uint256"
        }
      ],
      "payable": false,
      "stateMutability": "view",
      "type": "function",
      "signature": "0xdd62ed3e"
    },
    {
      "constant": true,
      "inputs": [],
      "name": "getLockDuration",
      "outputs": [
        {
          "name": "",
          "type": "uint256"
        }
      ],
      "payable": false,
      "stateMutability": "view",
      "type": "function",
      "signature": "0xe239c400"
    },
    {
      "constant": true,
      "inputs": [],
      "name": "OWNER_ACTION_DELAY",
      "outputs": [
        {
          "name": "",
          "type": "uint256"
        }
      ],
      "payable": false,
      "stateMutability": "view",
      "type": "function",
      "signature": "0xee419a88"
    },
    {
      "constant": false,
      "inputs": [
        {
          "name": "newOwner",
          "type": "address"
        }
      ],
      "name": "transferOwnership",
      "outputs": [],
      "payable": false,
      "stateMutability": "nonpayable",
      "type": "function",
      "signature": "0xf2fde38b"
    },
    {
      "constant": true,
      "inputs": [],
      "name": "logo",
      "outputs": [
        {
          "name": "",
          "type": "string"
        }
      ],
      "payable": false,
      "stateMutability": "view",
      "type": "function",
      "signature": "0xfb7f21eb"
    },
    {
      "inputs": [
        {
          "name": "_owner",
          "type": "address"
        },
        {
          "name": "_ntfAddress",
          "type": "address"
        },
        {
          "name": "_govAddress",
          "type": "address"
        },
        {
          "name": "_COMPRATE",
          "type": "uint256"
        },
        {
          "name": "_MAX_LOCK_DURATION",
          "type": "uint256"
        },
        {
          "name": "_OWNER_ACTION_DELAY",
          "type": "uint256"
        },
        {
          "name": "_name",
          "type": "string"
        },
        {
          "name": "_website",
          "type": "string"
        },
        {
          "name": "_location",
          "type": "string"
        },
        {
          "name": "_logo",
          "type": "string"
        }
      ],
      "payable": false,
      "stateMutability": "nonpayable",
      "type": "constructor",
      "signature": "constructor"
    },
    {
      "payable": true,
      "stateMutability": "payable",
      "type": "fallback"
    },
    {
      "anonymous": false,
      "inputs": [
        {
          "indexed": true,
          "name": "previousOwner",
          "type": "address"
        },
        {
          "indexed": true,
          "name": "newOwner",
          "type": "address"
        }
      ],
      "name": "OwnershipTransferred",
      "type": "event",
      "signature": "0x8be0079c531659141344cd1fd0a4f28419497f9722a3daafe3b4186f6b6457e0"
    },
    {
      "anonymous": false,
      "inputs": [
        {
          "indexed": true,
          "name": "from",
          "type": "address"
        },
        {
          "indexed": true,
          "name": "to",
          "type": "address"
        },
        {
          "indexed": false,
          "name": "value",
          "type": "uint256"
        }
      ],
      "name": "Transfer",
      "type": "event",
      "signature": "0xddf252ad1be2c89b69c2b068fc378daa952ba7f163c4a11628f55a4df523b3ef"
    },
    {
      "anonymous": false,
      "inputs": [
        {
          "indexed": true,
          "name": "owner",
          "type": "address"
        },
        {
          "indexed": true,
          "name": "spender",
          "type": "address"
        },
        {
          "indexed": false,
          "name": "value",
          "type": "uint256"
        }
      ],
      "name": "Approval",
      "type": "event",
      "signature": "0x8c5be1e5ebec7d5bd14f71427d1e84f3dd0314c0f7b2291e5b200ac8c7c3b925"
    },
    {
      "constant": false,
      "inputs": [
        {
          "name": "_amount",
          "type": "uint256"
        },
        {
          "name": "_signer",
          "type": "address"
        }
      ],
      "name": "join",
      "outputs": [],
      "payable": false,
      "stateMutability": "nonpayable",
      "type": "function",
      "signature": "0x3aa9dd2a"
    },
    {
      "constant": false,
      "inputs": [],
      "name": "leave",
      "outputs": [],
      "payable": false,
      "stateMutability": "nonpayable",
      "type": "function",
      "signature": "0xd66d9e19"
    },
    {
      "constant": false,
      "inputs": [],
      "name": "tokenPoolWithdraw",
      "outputs": [],
      "payable": false,
      "stateMutability": "nonpayable",
      "type": "function",
      "signature": "0x3c85053e"
    },
    {
      "constant": false,
      "inputs": [
        {
          "name": "_toAddress",
          "type": "address"
        }
      ],
      "name": "fundWithdraw",
      "outputs": [],
      "payable": false,
      "stateMutability": "nonpayable",
      "type": "function",
      "signature": "0x7a2bee5e"
    },
    {
      "constant": false,
      "inputs": [
        {
          "name": "_lockDuration",
          "type": "uint256"
        }
      ],
      "name": "setLockDuration",
      "outputs": [],
      "payable": false,
      "stateMutability": "nonpayable",
      "type": "function",
      "signature": "0x4eb665af"
    },
    {
      "constant": false,
      "inputs": [
        {
          "name": "_amount",
          "type": "uint256"
        }
      ],
      "name": "tokenDeposit",
      "outputs": [],
      "payable": false,
      "stateMutability": "nonpayable",
      "type": "function",
      "signature": "0xe1fe7d23"
    },
    {
      "constant": false,
      "inputs": [
        {
          "name": "_amount",
          "type": "uint256"
        }
      ],
      "name": "tokenMemberWithdraw",
      "outputs": [],
      "payable": false,
      "stateMutability": "nonpayable",
      "type": "function",
      "signature": "0x796d0461"
    },
    {
      "constant": false,
      "inputs": [],
      "name": "coinWithdraw",
      "outputs": [],
      "payable": false,
      "stateMutability": "nonpayable",
      "type": "function",
      "signature": "0xedfd36cd"
    },
    {
      "constant": true,
      "inputs": [],
      "name": "getPoolNtfBalance",
      "outputs": [
        {
          "name": "",
          "type": "uint256"
        }
      ],
      "payable": false,
      "stateMutability": "view",
      "type": "function",
      "signature": "0x4f8457e4"
    },
    {
      "constant": true,
      "inputs": [],
      "name": "getStatus",
      "outputs": [
        {
          "name": "",
          "type": "uint256"
        }
      ],
      "payable": false,
      "stateMutability": "view",
      "type": "function",
      "signature": "0x4e69d560"
    },
    {
      "constant": true,
      "inputs": [],
      "name": "getPoolGovBalance",
      "outputs": [
        {
          "name": "",
          "type": "uint256"
        }
      ],
      "payable": false,
      "stateMutability": "view",
      "type": "function",
      "signature": "0x11bfe32e"
    },
    {
      "constant": true,
      "inputs": [],
      "name": "getCoinbase",
      "outputs": [
        {
          "name": "",
          "type": "address"
        }
      ],
      "payable": false,
      "stateMutability": "view",
      "type": "function",
      "signature": "0xd1a82a9d"
    },
    {
      "constant": true,
      "inputs": [],
      "name": "getUnlockHeight",
      "outputs": [
        {
          "name": "",
          "type": "uint256"
        }
      ],
      "payable": false,
      "stateMutability": "view",
      "type": "function",
      "signature": "0x70c9b0f7"
    },
    {
      "constant": true,
      "inputs": [],
      "name": "isWithdrawable",
      "outputs": [
        {
          "name": "",
          "type": "bool"
        }
      ],
      "payable": false,
      "stateMutability": "view",
      "type": "function",
      "signature": "0x4d840bcc"
    },
    {
      "constant": false,
      "inputs": [],
      "name": "virtuellMining",
      "outputs": [],
      "payable": true,
      "stateMutability": "payable",
      "type": "function",
      "signature": "0x5df5ffbb"
    }
  ],
  "bytecode": "0x60806040523480156200001157600080fd5b506040516200408c3803806200408c83398101806040526101408110156200003857600080fd5b8101908080519060200190929190805190602001909291908051906020019092919080519060200190929190805190602001909291908051906020019092919080516401000000008111156200008d57600080fd5b82810190506020810184811115620000a457600080fd5b8151856001820283011164010000000082111715620000c257600080fd5b50509291906020018051640100000000811115620000df57600080fd5b82810190506020810184811115620000f657600080fd5b81518560018202830111640100000000821117156200011457600080fd5b505092919060200180516401000000008111156200013157600080fd5b828101905060208101848111156200014857600080fd5b81518560018202830111640100000000821117156200016657600080fd5b505092919060200180516401000000008111156200018357600080fd5b828101905060208101848111156200019a57600080fd5b8151856001820283011164010000000082111715620001b857600080fd5b5050929190505050838383838360009080519060200190620001dc92919062000591565b508260019080519060200190620001f592919062000591565b5081600290805190602001906200020e92919062000591565b5080600490805190602001906200022792919062000591565b505050505088607860006101000a81548173ffffffffffffffffffffffffffffffffffffffff021916908373ffffffffffffffffffffffffffffffffffffffff16021790555087607960006101000a81548173ffffffffffffffffffffffffffffffffffffffff021916908373ffffffffffffffffffffffffffffffffffffffff16021790555060008710158015620002c1575060648711155b151562000336576040517f08c379a00000000000000000000000000000000000000000000000000000000081526004018080602001828103825260198152602001807f696e76616c696420636f6d70656e736174696f6e20726174650000000000000081525060200191505060405180910390fd5b866008819055508560758190555084607681905550620003658a62000375640100000000026401000000009004565b5050505050505050505062000640565b600d60019054906101000a900460ff1680620003a65750620003a562000580640100000000026401000000009004565b5b80620003bf5750600d60009054906101000a900460ff16155b15156200045a576040517f08c379a000000000000000000000000000000000000000000000000000000000815260040180806020018281038252602e8152602001807f436f6e747261637420696e7374616e63652068617320616c726561647920626581526020017f656e20696e697469616c697a656400000000000000000000000000000000000081525060400191505060405180910390fd5b6000600d60019054906101000a900460ff1690506001600d60016101000a81548160ff0219169083151502179055506001600d60006101000a81548160ff02191690831515021790555081604060006101000a81548173ffffffffffffffffffffffffffffffffffffffff021916908373ffffffffffffffffffffffffffffffffffffffff160217905550604060009054906101000a900473ffffffffffffffffffffffffffffffffffffffff1673ffffffffffffffffffffffffffffffffffffffff16600073ffffffffffffffffffffffffffffffffffffffff167f8be0079c531659141344cd1fd0a4f28419497f9722a3daafe3b4186f6b6457e060405160405180910390a380600d60016101000a81548160ff0219169083151502179055505050565b600080303b90506000811491505090565b828054600181600116156101000203166002900490600052602060002090601f016020900481019282601f10620005d457805160ff191683800117855562000605565b8280016001018555821562000605579182015b8281111562000604578251825591602001919060010190620005e7565b5b50905062000614919062000618565b5090565b6200063d91905b80821115620006395760008160009055506001016200061f565b5090565b90565b613a3c80620006506000396000f3fe608060405260043610610225576000357c0100000000000000000000000000000000000000000000000000000000900463ffffffff168063021737321461022757806306fdde0314610259578063095ea7b3146102e957806311bfe32e1461035c57806312d43a511461038757806318160ddd146103de57806323b872dd14610409578063395093511461049c5780633aa9dd2a1461050f5780633c85053e1461056a5780634d840bcc146105815780634e69d560146105b05780634eb665af146105db5780634f1bfc9e146106165780634f8457e414610641578063516f279e1461066c57806359aa9506146106fc5780635df5ffbb146107535780636e7348c91461075d57806370a08231146107c257806370c9b0f714610827578063715018a614610852578063796d0461146108695780637a2bee5e146108a4578063820e93f5146108f557806384c6c2e3146109855780638da5cb5b146109b05780638e7dce4e14610a075780638f32d59b14610a32578063a457c2d714610a61578063a9059cbb14610ad4578063beb0a41614610b47578063c4d66de814610bd7578063cadba0d114610c28578063d12c33b714610c53578063d1a82a9d14610cbc578063d66d9e1914610d13578063dbed1e8814610d2a578063dd62ed3e14610d8f578063e1fe7d2314610e14578063e239c40014610e4f578063edfd36cd14610e7a578063ee419a8814610e91578063f2fde38b14610ebc578063fb7f21eb14610f0d575b005b34801561023357600080fd5b5061023c610f9d565b604051808381526020018281526020019250505060405180910390f35b34801561026557600080fd5b5061026e611091565b6040518080602001828103825283818151815260200191508051906020019080838360005b838110156102ae578082015181840152602081019050610293565b50505050905090810190601f1680156102db5780820380516001836020036101000a031916815260200191505b509250505060405180910390f35b3480156102f557600080fd5b506103426004803603604081101561030c57600080fd5b81019080803573ffffffffffffffffffffffffffffffffffffffff1690602001909291908035906020019092919050505061112f565b604051808215151515815260200191505060405180910390f35b34801561036857600080fd5b5061037161125c565b6040518082815260200191505060405180910390f35b34801561039357600080fd5b5061039c611359565b604051808273ffffffffffffffffffffffffffffffffffffffff1673ffffffffffffffffffffffffffffffffffffffff16815260200191505060405180910390f35b3480156103ea57600080fd5b506103f361137f565b6040518082815260200191505060405180910390f35b34801561041557600080fd5b506104826004803603606081101561042c57600080fd5b81019080803573ffffffffffffffffffffffffffffffffffffffff169060200190929190803573ffffffffffffffffffffffffffffffffffffffff16906020019092919080359060200190929190505050611389565b604051808215151515815260200191505060405180910390f35b3480156104a857600080fd5b506104f5600480360360408110156104bf57600080fd5b81019080803573ffffffffffffffffffffffffffffffffffffffff16906020019092919080359060200190929190505050611591565b604051808215151515815260200191505060405180910390f35b34801561051b57600080fd5b506105686004803603604081101561053257600080fd5b8101908080359060200190929190803573ffffffffffffffffffffffffffffffffffffffff1690602001909291905050506117c8565b005b34801561057657600080fd5b5061057f611ac8565b005b34801561058d57600080fd5b50610596611b9f565b604051808215151515815260200191505060405180910390f35b3480156105bc57600080fd5b506105c5611c9c565b6040518082815260200191505060405180910390f35b3480156105e757600080fd5b50610614600480360360208110156105fe57600080fd5b8101908080359060200190929190505050611d99565b005b34801561062257600080fd5b5061062b611eb8565b6040518082815260200191505060405180910390f35b34801561064d57600080fd5b50610656611ebe565b6040518082815260200191505060405180910390f35b34801561067857600080fd5b50610681611fbb565b6040518080602001828103825283818151815260200191508051906020019080838360005b838110156106c15780820151818401526020810190506106a6565b50505050905090810190601f1680156106ee5780820380516001836020036101000a031916815260200191505b509250505060405180910390f35b34801561070857600080fd5b50610711612059565b604051808273ffffffffffffffffffffffffffffffffffffffff1673ffffffffffffffffffffffffffffffffffffffff16815260200191505060405180910390f35b61075b61207f565b005b34801561076957600080fd5b506107ac6004803603602081101561078057600080fd5b81019080803573ffffffffffffffffffffffffffffffffffffffff169060200190929190505050612081565b6040518082815260200191505060405180910390f35b3480156107ce57600080fd5b50610811600480360360208110156107e557600080fd5b81019080803573ffffffffffffffffffffffffffffffffffffffff169060200190929190505050612108565b6040518082815260200191505060405180910390f35b34801561083357600080fd5b5061083c612151565b6040518082815260200191505060405180910390f35b34801561085e57600080fd5b5061086761224e565b005b34801561087557600080fd5b506108a26004803603602081101561088c57600080fd5b8101908080359060200190929190505050612322565b005b3480156108b057600080fd5b506108f3600480360360208110156108c757600080fd5b81019080803573ffffffffffffffffffffffffffffffffffffffff1690602001909291905050506124d4565b005b34801561090157600080fd5b5061090a6124f3565b6040518080602001828103825283818151815260200191508051906020019080838360005b8381101561094a57808201518184015260208101905061092f565b50505050905090810190601f1680156109775780820380516001836020036101000a031916815260200191505b509250505060405180910390f35b34801561099157600080fd5b5061099a612591565b6040518082815260200191505060405180910390f35b3480156109bc57600080fd5b506109c5612597565b604051808273ffffffffffffffffffffffffffffffffffffffff1673ffffffffffffffffffffffffffffffffffffffff16815260200191505060405180910390f35b348015610a1357600080fd5b50610a1c6125c1565b6040518082815260200191505060405180910390f35b348015610a3e57600080fd5b50610a47612603565b604051808215151515815260200191505060405180910390f35b348015610a6d57600080fd5b50610aba60048036036040811015610a8457600080fd5b81019080803573ffffffffffffffffffffffffffffffffffffffff1690602001909291908035906020019092919050505061265b565b604051808215151515815260200191505060405180910390f35b348015610ae057600080fd5b50610b2d60048036036040811015610af757600080fd5b81019080803573ffffffffffffffffffffffffffffffffffffffff16906020019092919080359060200190929190505050612892565b604051808215151515815260200191505060405180910390f35b348015610b5357600080fd5b50610b5c6128d7565b6040518080602001828103825283818151815260200191508051906020019080838360005b83811015610b9c578082015181840152602081019050610b81565b50505050905090810190601f168015610bc95780820380516001836020036101000a031916815260200191505b509250505060405180910390f35b348015610be357600080fd5b50610c2660048036036020811015610bfa57600080fd5b81019080803573ffffffffffffffffffffffffffffffffffffffff169060200190929190505050612975565b005b348015610c3457600080fd5b50610c3d612b6c565b6040518082815260200191505060405180910390f35b348015610c5f57600080fd5b50610ca260048036036020811015610c7657600080fd5b81019080803573ffffffffffffffffffffffffffffffffffffffff169060200190929190505050612b76565b604051808215151515815260200191505060405180910390f35b348015610cc857600080fd5b50610cd1612c0c565b604051808273ffffffffffffffffffffffffffffffffffffffff1673ffffffffffffffffffffffffffffffffffffffff16815260200191505060405180910390f35b348015610d1f57600080fd5b50610d28612d09565b005b348015610d3657600080fd5b50610d7960048036036020811015610d4d57600080fd5b81019080803573ffffffffffffffffffffffffffffffffffffffff169060200190929190505050612de0565b6040518082815260200191505060405180910390f35b348015610d9b57600080fd5b50610dfe60048036036040811015610db257600080fd5b81019080803573ffffffffffffffffffffffffffffffffffffffff169060200190929190803573ffffffffffffffffffffffffffffffffffffffff169060200190929190505050612e29565b6040518082815260200191505060405180910390f35b348015610e2057600080fd5b50610e4d60048036036020811015610e3757600080fd5b8101908080359060200190929190505050612eb0565b005b348015610e5b57600080fd5b50610e64613021565b6040518082815260200191505060405180910390f35b348015610e8657600080fd5b50610e8f61302b565b005b348015610e9d57600080fd5b50610ea661303c565b6040518082815260200191505060405180910390f35b348015610ec857600080fd5b50610f0b60048036036020811015610edf57600080fd5b81019080803573ffffffffffffffffffffffffffffffffffffffff169060200190929190505050613042565b005b348015610f1957600080fd5b50610f22613061565b6040518080602001828103825283818151815260200191508051906020019080838360005b83811015610f62578082015181840152602081019050610f47565b50505050905090810190601f168015610f8f5780820380516001836020036101000a031916815260200191505b509250505060405180910390f35b6000806000610fce600c543073ffffffffffffffffffffffffffffffffffffffff16316130ff90919063ffffffff16565b9050600060646008548302811515610fe257fe5b0490506000610fef61137f565b141561101a5761100a82600b5461312190919063ffffffff16565b600080905093509350505061108d565b600061102461137f565b61104f6501000000000061104185876130ff90919063ffffffff16565b61314290919063ffffffff16565b81151561105857fe5b04905061107082600b5461312190919063ffffffff16565b61108582600a5461312190919063ffffffff16565b945094505050505b9091565b60008054600181600116156101000203166002900480601f0160208091040260200160405190810160405280929190818152602001828054600181600116156101000203166002900480156111275780601f106110fc57610100808354040283529160200191611127565b820191906000526020600020905b81548152906001019060200180831161110a57829003601f168201915b505050505081565b60008073ffffffffffffffffffffffffffffffffffffffff168373ffffffffffffffffffffffffffffffffffffffff161415151561116c57600080fd5b81600660003373ffffffffffffffffffffffffffffffffffffffff1673ffffffffffffffffffffffffffffffffffffffff16815260200190815260200160002060008573ffffffffffffffffffffffffffffffffffffffff1673ffffffffffffffffffffffffffffffffffffffff168152602001908152602001600020819055508273ffffffffffffffffffffffffffffffffffffffff163373ffffffffffffffffffffffffffffffffffffffff167f8c5be1e5ebec7d5bd14f71427d1e84f3dd0314c0f7b2291e5b200ac8c7c3b925846040518082815260200191505060405180910390a36001905092915050565b6000607960009054906101000a900473ffffffffffffffffffffffffffffffffffffffff1673ffffffffffffffffffffffffffffffffffffffff1663f8b2cb4f306040518263ffffffff167c0100000000000000000000000000000000000000000000000000000000028152600401808273ffffffffffffffffffffffffffffffffffffffff1673ffffffffffffffffffffffffffffffffffffffff16815260200191505060206040518083038186803b15801561131957600080fd5b505afa15801561132d573d6000803e3d6000fd5b505050506040513d602081101561134357600080fd5b8101908080519060200190929190505050905090565b607960009054906101000a900473ffffffffffffffffffffffffffffffffffffffff1681565b6000600754905090565b600061141a82600660008773ffffffffffffffffffffffffffffffffffffffff1673ffffffffffffffffffffffffffffffffffffffff16815260200190815260200160002060003373ffffffffffffffffffffffffffffffffffffffff1673ffffffffffffffffffffffffffffffffffffffff168152602001908152602001600020546130ff90919063ffffffff16565b600660008673ffffffffffffffffffffffffffffffffffffffff1673ffffffffffffffffffffffffffffffffffffffff16815260200190815260200160002060003373ffffffffffffffffffffffffffffffffffffffff1673ffffffffffffffffffffffffffffffffffffffff168152602001908152602001600020819055506114a5848484613180565b3373ffffffffffffffffffffffffffffffffffffffff168473ffffffffffffffffffffffffffffffffffffffff167f8c5be1e5ebec7d5bd14f71427d1e84f3dd0314c0f7b2291e5b200ac8c7c3b925600660008873ffffffffffffffffffffffffffffffffffffffff1673ffffffffffffffffffffffffffffffffffffffff16815260200190815260200160002060003373ffffffffffffffffffffffffffffffffffffffff1673ffffffffffffffffffffffffffffffffffffffff168152602001908152602001600020546040518082815260200191505060405180910390a3600190509392505050565b60008073ffffffffffffffffffffffffffffffffffffffff168373ffffffffffffffffffffffffffffffffffffffff16141515156115ce57600080fd5b61165d82600660003373ffffffffffffffffffffffffffffffffffffffff1673ffffffffffffffffffffffffffffffffffffffff16815260200190815260200160002060008673ffffffffffffffffffffffffffffffffffffffff1673ffffffffffffffffffffffffffffffffffffffff1681526020019081526020016000205461312190919063ffffffff16565b600660003373ffffffffffffffffffffffffffffffffffffffff1673ffffffffffffffffffffffffffffffffffffffff16815260200190815260200160002060008573ffffffffffffffffffffffffffffffffffffffff1673ffffffffffffffffffffffffffffffffffffffff168152602001908152602001600020819055508273ffffffffffffffffffffffffffffffffffffffff163373ffffffffffffffffffffffffffffffffffffffff167f8c5be1e5ebec7d5bd14f71427d1e84f3dd0314c0f7b2291e5b200ac8c7c3b925600660003373ffffffffffffffffffffffffffffffffffffffff1673ffffffffffffffffffffffffffffffffffffffff16815260200190815260200160002060008773ffffffffffffffffffffffffffffffffffffffff1673ffffffffffffffffffffffffffffffffffffffff168152602001908152602001600020546040518082815260200191505060405180910390a36001905092915050565b6117d0612603565b15156117db57600080fd5b607860009054906101000a900473ffffffffffffffffffffffffffffffffffffffff1673ffffffffffffffffffffffffffffffffffffffff1663095ea7b3607960009054906101000a900473ffffffffffffffffffffffffffffffffffffffff16846040518363ffffffff167c0100000000000000000000000000000000000000000000000000000000028152600401808373ffffffffffffffffffffffffffffffffffffffff1673ffffffffffffffffffffffffffffffffffffffff16815260200182815260200192505050602060405180830381600087803b1580156118c257600080fd5b505af11580156118d6573d6000803e3d6000fd5b505050506040513d60208110156118ec57600080fd5b810190808051906020019092919050505050607960009054906101000a900473ffffffffffffffffffffffffffffffffffffffff1673ffffffffffffffffffffffffffffffffffffffff1663b6b55f25836040518263ffffffff167c010000000000000000000000000000000000000000000000000000000002815260040180828152602001915050602060405180830381600087803b15801561198f57600080fd5b505af11580156119a3573d6000803e3d6000fd5b505050506040513d60208110156119b957600080fd5b810190808051906020019092919050505050607960009054906101000a900473ffffffffffffffffffffffffffffffffffffffff1673ffffffffffffffffffffffffffffffffffffffff166328ffe6c8826040518263ffffffff167c0100000000000000000000000000000000000000000000000000000000028152600401808273ffffffffffffffffffffffffffffffffffffffff1673ffffffffffffffffffffffffffffffffffffffff168152602001915050602060405180830381600087803b158015611a8857600080fd5b505af1158015611a9c573d6000803e3d6000fd5b505050506040513d6020811015611ab257600080fd5b8101908080519060200190929190505050505050565b611ad0612603565b1515611adb57600080fd5b607960009054906101000a900473ffffffffffffffffffffffffffffffffffffffff1673ffffffffffffffffffffffffffffffffffffffff16633ccfd60b6040518163ffffffff167c0100000000000000000000000000000000000000000000000000000000028152600401602060405180830381600087803b158015611b6157600080fd5b505af1158015611b75573d6000803e3d6000fd5b505050506040513d6020811015611b8b57600080fd5b810190808051906020019092919050505050565b6000607960009054906101000a900473ffffffffffffffffffffffffffffffffffffffff1673ffffffffffffffffffffffffffffffffffffffff166302a18484306040518263ffffffff167c0100000000000000000000000000000000000000000000000000000000028152600401808273ffffffffffffffffffffffffffffffffffffffff1673ffffffffffffffffffffffffffffffffffffffff16815260200191505060206040518083038186803b158015611c5c57600080fd5b505afa158015611c70573d6000803e3d6000fd5b505050506040513d6020811015611c8657600080fd5b8101908080519060200190929190505050905090565b6000607960009054906101000a900473ffffffffffffffffffffffffffffffffffffffff1673ffffffffffffffffffffffffffffffffffffffff166330ccebb5306040518263ffffffff167c0100000000000000000000000000000000000000000000000000000000028152600401808273ffffffffffffffffffffffffffffffffffffffff1673ffffffffffffffffffffffffffffffffffffffff16815260200191505060206040518083038186803b158015611d5957600080fd5b505afa158015611d6d573d6000803e3d6000fd5b505050506040513d6020811015611d8357600080fd5b8101908080519060200190929190505050905090565b611da1612603565b1515611dac57600080fd5b6076546077540142111515611e29576040517f08c379a00000000000000000000000000000000000000000000000000000000081526004018080602001828103825260148152602001807f646f6e74206368616e676520746f20717569636b00000000000000000000000081525060200191505060405180910390fd5b806075548111151515611ea4576040517f08c379a00000000000000000000000000000000000000000000000000000000081526004018080602001828103825260128152602001807f646f6e74206c6f636b20746f6f206c6f6e67000000000000000000000000000081525060200191505060405180910390fd5b42607781905550611eb482613350565b5050565b60755481565b6000607860009054906101000a900473ffffffffffffffffffffffffffffffffffffffff1673ffffffffffffffffffffffffffffffffffffffff166370a08231306040518263ffffffff167c0100000000000000000000000000000000000000000000000000000000028152600401808273ffffffffffffffffffffffffffffffffffffffff1673ffffffffffffffffffffffffffffffffffffffff16815260200191505060206040518083038186803b158015611f7b57600080fd5b505afa158015611f8f573d6000803e3d6000fd5b505050506040513d6020811015611fa557600080fd5b8101908080519060200190929190505050905090565b60028054600181600116156101000203166002900480601f0160208091040260200160405190810160405280929190818152602001828054600181600116156101000203166002900480156120515780601f1061202657610100808354040283529160200191612051565b820191906000526020600020905b81548152906001019060200180831161203457829003601f168201915b505050505081565b607860009054906101000a900473ffffffffffffffffffffffffffffffffffffffff1681565b565b600080600061208e610f9d565b91509150600960008573ffffffffffffffffffffffffffffffffffffffff1673ffffffffffffffffffffffffffffffffffffffff16815260200190815260200160002054650100000000006120f4836120e688612108565b61314290919063ffffffff16565b8115156120fd57fe5b040392505050919050565b6000600560008373ffffffffffffffffffffffffffffffffffffffff1673ffffffffffffffffffffffffffffffffffffffff168152602001908152602001600020549050919050565b6000607960009054906101000a900473ffffffffffffffffffffffffffffffffffffffff1673ffffffffffffffffffffffffffffffffffffffff166355235d47306040518263ffffffff167c0100000000000000000000000000000000000000000000000000000000028152600401808273ffffffffffffffffffffffffffffffffffffffff1673ffffffffffffffffffffffffffffffffffffffff16815260200191505060206040518083038186803b15801561220e57600080fd5b505afa158015612222573d6000803e3d6000fd5b505050506040513d602081101561223857600080fd5b8101908080519060200190929190505050905090565b612256612603565b151561226157600080fd5b600073ffffffffffffffffffffffffffffffffffffffff16604060009054906101000a900473ffffffffffffffffffffffffffffffffffffffff1673ffffffffffffffffffffffffffffffffffffffff167f8be0079c531659141344cd1fd0a4f28419497f9722a3daafe3b4186f6b6457e060405160405180910390a36000604060006101000a81548173ffffffffffffffffffffffffffffffffffffffff021916908373ffffffffffffffffffffffffffffffffffffffff160217905550565b61232b33612b76565b1515156123a0576040517f08c379a000000000000000000000000000000000000000000000000000000000815260040180806020018281038252600d8152602001807f7374696c6c206c6f636b696e670000000000000000000000000000000000000081525060200191505060405180910390fd5b6123a861335a565b600033905060006123b882613396565b90506123c4828461340e565b607860009054906101000a900473ffffffffffffffffffffffffffffffffffffffff1673ffffffffffffffffffffffffffffffffffffffff1663a9059cbb83856040518363ffffffff167c0100000000000000000000000000000000000000000000000000000000028152600401808373ffffffffffffffffffffffffffffffffffffffff1673ffffffffffffffffffffffffffffffffffffffff16815260200182815260200192505050602060405180830381600087803b15801561248957600080fd5b505af115801561249d573d6000803e3d6000fd5b505050506040513d60208110156124b357600080fd5b8101908080519060200190929190505050506124cf8282613564565b505050565b6124dc612603565b15156124e757600080fd5b6124f0816135db565b50565b60038054600181600116156101000203166002900480601f0160208091040260200160405190810160405280929190818152602001828054600181600116156101000203166002900480156125895780601f1061255e57610100808354040283529160200191612589565b820191906000526020600020905b81548152906001019060200180831161256c57829003601f168201915b505050505081565b60085481565b6000604060009054906101000a900473ffffffffffffffffffffffffffffffffffffffff16905090565b60008060006125ce610f9d565b915091506125fc823073ffffffffffffffffffffffffffffffffffffffff16316130ff90919063ffffffff16565b9250505090565b6000604060009054906101000a900473ffffffffffffffffffffffffffffffffffffffff1673ffffffffffffffffffffffffffffffffffffffff163373ffffffffffffffffffffffffffffffffffffffff1614905090565b60008073ffffffffffffffffffffffffffffffffffffffff168373ffffffffffffffffffffffffffffffffffffffff161415151561269857600080fd5b61272782600660003373ffffffffffffffffffffffffffffffffffffffff1673ffffffffffffffffffffffffffffffffffffffff16815260200190815260200160002060008673ffffffffffffffffffffffffffffffffffffffff1673ffffffffffffffffffffffffffffffffffffffff168152602001908152602001600020546130ff90919063ffffffff16565b600660003373ffffffffffffffffffffffffffffffffffffffff1673ffffffffffffffffffffffffffffffffffffffff16815260200190815260200160002060008573ffffffffffffffffffffffffffffffffffffffff1673ffffffffffffffffffffffffffffffffffffffff168152602001908152602001600020819055508273ffffffffffffffffffffffffffffffffffffffff163373ffffffffffffffffffffffffffffffffffffffff167f8c5be1e5ebec7d5bd14f71427d1e84f3dd0314c0f7b2291e5b200ac8c7c3b925600660003373ffffffffffffffffffffffffffffffffffffffff1673ffffffffffffffffffffffffffffffffffffffff16815260200190815260200160002060008773ffffffffffffffffffffffffffffffffffffffff1673ffffffffffffffffffffffffffffffffffffffff168152602001908152602001600020546040518082815260200191505060405180910390a36001905092915050565b60008073ffffffffffffffffffffffffffffffffffffffff168373ffffffffffffffffffffffffffffffffffffffff161480156128cf5750600082145b905092915050565b60018054600181600116156101000203166002900480601f01602080910402602001604051908101604052809291908181526020018280546001816001161561010002031660029004801561296d5780601f106129425761010080835404028352916020019161296d565b820191906000526020600020905b81548152906001019060200180831161295057829003601f168201915b505050505081565b600d60019054906101000a900460ff16806129945750612993613658565b5b806129ac5750600d60009054906101000a900460ff16155b1515612a46576040517f08c379a000000000000000000000000000000000000000000000000000000000815260040180806020018281038252602e8152602001807f436f6e747261637420696e7374616e63652068617320616c726561647920626581526020017f656e20696e697469616c697a656400000000000000000000000000000000000081525060400191505060405180910390fd5b6000600d60019054906101000a900460ff1690506001600d60016101000a81548160ff0219169083151502179055506001600d60006101000a81548160ff02191690831515021790555081604060006101000a81548173ffffffffffffffffffffffffffffffffffffffff021916908373ffffffffffffffffffffffffffffffffffffffff160217905550604060009054906101000a900473ffffffffffffffffffffffffffffffffffffffff1673ffffffffffffffffffffffffffffffffffffffff16600073ffffffffffffffffffffffffffffffffffffffff167f8be0079c531659141344cd1fd0a4f28419497f9722a3daafe3b4186f6b6457e060405160405180910390a380600d60016101000a81548160ff0219169083151502179055505050565b6501000000000081565b600080607360008473ffffffffffffffffffffffffffffffffffffffff1673ffffffffffffffffffffffffffffffffffffffff1681526020019081526020016000205414158015612c05575042607360008473ffffffffffffffffffffffffffffffffffffffff1673ffffffffffffffffffffffffffffffffffffffff16815260200190815260200160002054115b9050919050565b6000607960009054906101000a900473ffffffffffffffffffffffffffffffffffffffff1673ffffffffffffffffffffffffffffffffffffffff16630a9a3f07306040518263ffffffff167c0100000000000000000000000000000000000000000000000000000000028152600401808273ffffffffffffffffffffffffffffffffffffffff1673ffffffffffffffffffffffffffffffffffffffff16815260200191505060206040518083038186803b158015612cc957600080fd5b505afa158015612cdd573d6000803e3d6000fd5b505050506040513d6020811015612cf357600080fd5b8101908080519060200190929190505050905090565b612d11612603565b1515612d1c57600080fd5b607960009054906101000a900473ffffffffffffffffffffffffffffffffffffffff1673ffffffffffffffffffffffffffffffffffffffff1663d66d9e196040518163ffffffff167c0100000000000000000000000000000000000000000000000000000000028152600401602060405180830381600087803b158015612da257600080fd5b505af1158015612db6573d6000803e3d6000fd5b505050506040513d6020811015612dcc57600080fd5b810190808051906020019092919050505050565b6000607360008373ffffffffffffffffffffffffffffffffffffffff1673ffffffffffffffffffffffffffffffffffffffff168152602001908152602001600020549050919050565b6000600660008473ffffffffffffffffffffffffffffffffffffffff1673ffffffffffffffffffffffffffffffffffffffff16815260200190815260200160002060008373ffffffffffffffffffffffffffffffffffffffff1673ffffffffffffffffffffffffffffffffffffffff16815260200190815260200160002054905092915050565b612eb861335a565b60003390506000612ec882613396565b9050607860009054906101000a900473ffffffffffffffffffffffffffffffffffffffff1673ffffffffffffffffffffffffffffffffffffffff166323b872dd8330866040518463ffffffff167c0100000000000000000000000000000000000000000000000000000000028152600401808473ffffffffffffffffffffffffffffffffffffffff1673ffffffffffffffffffffffffffffffffffffffff1681526020018373ffffffffffffffffffffffffffffffffffffffff1673ffffffffffffffffffffffffffffffffffffffff1681526020018281526020019350505050602060405180830381600087803b158015612fc357600080fd5b505af1158015612fd7573d6000803e3d6000fd5b505050506040513d6020811015612fed57600080fd5b8101908080519060200190929190505050506130098284613669565b6130138282613564565b61301c826137bf565b505050565b6000607454905090565b60003390506130398161380a565b50565b60765481565b61304a612603565b151561305557600080fd5b61305e81613914565b50565b60048054600181600116156101000203166002900480601f0160208091040260200160405190810160405280929190818152602001828054600181600116156101000203166002900480156130f75780601f106130cc576101008083540402835291602001916130f7565b820191906000526020600020905b8154815290600101906020018083116130da57829003601f168201915b505050505081565b600082821115151561311057600080fd5b600082840390508091505092915050565b600080828401905083811015151561313857600080fd5b8091505092915050565b600080831415613155576000905061317a565b6000828402905082848281151561316857fe5b0414151561317557600080fd5b809150505b92915050565b600073ffffffffffffffffffffffffffffffffffffffff168273ffffffffffffffffffffffffffffffffffffffff16141515156131bc57600080fd5b61320e81600560008673ffffffffffffffffffffffffffffffffffffffff1673ffffffffffffffffffffffffffffffffffffffff168152602001908152602001600020546130ff90919063ffffffff16565b600560008573ffffffffffffffffffffffffffffffffffffffff1673ffffffffffffffffffffffffffffffffffffffff168152602001908152602001600020819055506132a381600560008573ffffffffffffffffffffffffffffffffffffffff1673ffffffffffffffffffffffffffffffffffffffff1681526020019081526020016000205461312190919063ffffffff16565b600560008473ffffffffffffffffffffffffffffffffffffffff1673ffffffffffffffffffffffffffffffffffffffff168152602001908152602001600020819055508173ffffffffffffffffffffffffffffffffffffffff168373ffffffffffffffffffffffffffffffffffffffff167fddf252ad1be2c89b69c2b068fc378daa952ba7f163c4a11628f55a4df523b3ef836040518082815260200191505060405180910390a3505050565b8060748190555050565b613362610f9d565b600b6000600a60008491905055839190505550503073ffffffffffffffffffffffffffffffffffffffff1631600c81905550565b6000600960008373ffffffffffffffffffffffffffffffffffffffff1673ffffffffffffffffffffffffffffffffffffffff16815260200190815260200160002054650100000000006133fc600a546133ee86612108565b61314290919063ffffffff16565b81151561340557fe5b04039050919050565b600073ffffffffffffffffffffffffffffffffffffffff168273ffffffffffffffffffffffffffffffffffffffff161415151561344a57600080fd5b61345f816007546130ff90919063ffffffff16565b6007819055506134b781600560008573ffffffffffffffffffffffffffffffffffffffff1673ffffffffffffffffffffffffffffffffffffffff168152602001908152602001600020546130ff90919063ffffffff16565b600560008473ffffffffffffffffffffffffffffffffffffffff1673ffffffffffffffffffffffffffffffffffffffff16815260200190815260200160002081905550600073ffffffffffffffffffffffffffffffffffffffff168273ffffffffffffffffffffffffffffffffffffffff167fddf252ad1be2c89b69c2b068fc378daa952ba7f163c4a11628f55a4df523b3ef836040518082815260200191505060405180910390a35050565b8065010000000000613589600a5461357b86612108565b61314290919063ffffffff16565b81151561359257fe5b0403600960008473ffffffffffffffffffffffffffffffffffffffff1673ffffffffffffffffffffffffffffffffffffffff168152602001908152602001600020819055505050565b6135e361335a565b6000600b5490506000600b8190555061360781600c546130ff90919063ffffffff16565b600c819055508173ffffffffffffffffffffffffffffffffffffffff166108fc829081150290604051600060405180830381858888f19350505050158015613653573d6000803e3d6000fd5b505050565b600080303b90506000811491505090565b600073ffffffffffffffffffffffffffffffffffffffff168273ffffffffffffffffffffffffffffffffffffffff16141515156136a557600080fd5b6136ba8160075461312190919063ffffffff16565b60078190555061371281600560008573ffffffffffffffffffffffffffffffffffffffff1673ffffffffffffffffffffffffffffffffffffffff1681526020019081526020016000205461312190919063ffffffff16565b600560008473ffffffffffffffffffffffffffffffffffffffff1673ffffffffffffffffffffffffffffffffffffffff168152602001908152602001600020819055508173ffffffffffffffffffffffffffffffffffffffff16600073ffffffffffffffffffffffffffffffffffffffff167fddf252ad1be2c89b69c2b068fc378daa952ba7f163c4a11628f55a4df523b3ef836040518082815260200191505060405180910390a35050565b6074544201607360008373ffffffffffffffffffffffffffffffffffffffff1673ffffffffffffffffffffffffffffffffffffffff1681526020019081526020016000208190555050565b61381261335a565b600061381d82613396565b905080600960008473ffffffffffffffffffffffffffffffffffffffff1673ffffffffffffffffffffffffffffffffffffffff1681526020019081526020016000205401600960008473ffffffffffffffffffffffffffffffffffffffff1673ffffffffffffffffffffffffffffffffffffffff168152602001908152602001600020819055506138b981600c546130ff90919063ffffffff16565b600c819055506138c882613396565b508173ffffffffffffffffffffffffffffffffffffffff166108fc829081150290604051600060405180830381858888f1935050505015801561390f573d6000803e3d6000fd5b505050565b600073ffffffffffffffffffffffffffffffffffffffff168173ffffffffffffffffffffffffffffffffffffffff161415151561395057600080fd5b8073ffffffffffffffffffffffffffffffffffffffff16604060009054906101000a900473ffffffffffffffffffffffffffffffffffffffff1673ffffffffffffffffffffffffffffffffffffffff167f8be0079c531659141344cd1fd0a4f28419497f9722a3daafe3b4186f6b6457e060405160405180910390a380604060006101000a81548173ffffffffffffffffffffffffffffffffffffffff021916908373ffffffffffffffffffffffffffffffffffffffff1602179055505056fea165627a7a72305820f20591ce5b68258f1512306dbb42f8a6e8df2de8c1a456b4d1732edac964b3c40029",
  "source": "pragma solidity ^0.5.0;\r\n\r\nimport \"./../../node_modules/openzeppelin-eth/contracts/ownership/Ownable.sol\";\r\nimport \"./CoinShare.sol\";\r\nimport \"./Lockable.sol\";\r\n\r\nimport \"./interfaces/GovI.sol\";\r\nimport \"./interfaces/NtfTokenI.sol\";\r\n\r\ncontract PoolDesc {\r\n    string public name;\r\n    string public website;\r\n    string public location;\r\n    string public email;\r\n    string public logo;\r\n\r\n    constructor (\r\n        string memory _name,\r\n        string memory _website,\r\n        string memory _location,\r\n        string memory _logo\r\n    ) public {\r\n        name = _name;\r\n        website = _website;\r\n        location = _location;\r\n        logo = _logo;\r\n    }\r\n}\r\n\r\ncontract NtfPool is PoolDesc, CoinShare, Ownable, Lockable {\r\n    // nty per pool token\r\n    uint256 public MAX_LOCK_DURATION; // = 30 days;\r\n    uint256 public OWNER_ACTION_DELAY; // = 7 days;\r\n\r\n    uint256 lastActionTime;\r\n\r\n    NtfTokenI public ntfToken;\r\n    GovI public gov;\r\n\r\n    modifier delayPast() {\r\n        require(block.timestamp > lastActionTime + OWNER_ACTION_DELAY, \"dont change to quick\");\r\n        _;\r\n    }\r\n\r\n    modifier validLockDuration(uint256 _lockDuration) {\r\n        require(_lockDuration <= MAX_LOCK_DURATION, \"dont lock too long\");\r\n        _;\r\n    }\r\n\r\n    function () external payable {}\r\n\r\n    constructor\r\n    (\r\n        address _owner,\r\n        address _ntfAddress,\r\n        address _govAddress,\r\n        uint256 _COMPRATE,\r\n        uint256 _MAX_LOCK_DURATION,\r\n        uint256 _OWNER_ACTION_DELAY,\r\n        string memory _name,\r\n        string memory _website,\r\n        string memory _location,\r\n        string memory _logo\r\n    )\r\n        public\r\n        PoolDesc(_name, _website, _location, _logo)\r\n    {\r\n        ntfToken = NtfTokenI(_ntfAddress);\r\n        gov = GovI(_govAddress);\r\n        require(_COMPRATE >= 0 && _COMPRATE <= 100, \"invalid compensation rate\");\r\n        COMPRATE = _COMPRATE;\r\n        MAX_LOCK_DURATION = _MAX_LOCK_DURATION;\r\n        OWNER_ACTION_DELAY = _OWNER_ACTION_DELAY;\r\n        initialize(_owner);\r\n    }\r\n\r\n    // owner function\r\n    // function deposit(uint256 _amount) external returns (bool);\r\n    // function join(address _signer) external returns (bool);\r\n    // function leave() external returns (bool);\r\n    // function withdraw() external returns (bool);\r\n\r\n    function join(\r\n        uint256 _amount,\r\n        address _signer\r\n    )\r\n        public\r\n        onlyOwner()\r\n    {\r\n        ntfToken.approve(address(gov), _amount);\r\n        gov.deposit(_amount);\r\n        gov.join(_signer);\r\n    }\r\n\r\n    function leave()\r\n        public\r\n        onlyOwner()\r\n    {\r\n        gov.leave();\r\n    }\r\n\r\n    function tokenPoolWithdraw()\r\n        public\r\n        onlyOwner()\r\n    {\r\n        gov.withdraw();\r\n    }\r\n\r\n    function fundWithdraw(\r\n        address payable _toAddress\r\n    )\r\n        public\r\n        onlyOwner()\r\n    {\r\n        _fundWithdraw(_toAddress);\r\n    }\r\n\r\n    function setLockDuration(\r\n        uint256 _lockDuration\r\n    )\r\n        public\r\n        onlyOwner()\r\n        delayPast()\r\n        validLockDuration(_lockDuration)\r\n    {\r\n        lastActionTime = block.timestamp;\r\n        _setLockDuration(_lockDuration);\r\n    }\r\n\r\n    // members function\r\n    function tokenDeposit(\r\n        uint256 _amount\r\n    )\r\n            public\r\n    {\r\n        _updateFundCpt();\r\n        address _sender = msg.sender;\r\n        uint256 _coinBalance = coinOf(_sender);\r\n        ntfToken.transferFrom(_sender, address(this), _amount);\r\n        _mint(_sender, _amount);\r\n        _updateCredit(_sender, _coinBalance);\r\n        _lock(_sender);\r\n    }\r\n\r\n    function tokenMemberWithdraw(\r\n        uint256 _amount\r\n    )\r\n        public\r\n        notLocking()\r\n    {\r\n        _updateFundCpt();\r\n        address _sender = msg.sender;\r\n        uint256 _coinBalance = coinOf(_sender);\r\n        _burn(_sender, _amount);\r\n        ntfToken.transfer(_sender, _amount);\r\n        _updateCredit(_sender, _coinBalance);\r\n    }\r\n\r\n    function coinWithdraw()\r\n        public\r\n    {\r\n        address payable _sender = msg.sender;\r\n        _coinWithdraw(_sender);\r\n    }\r\n\r\n    // Read Functions\r\n\r\n    // deployed NtfToken contract\r\n    function getPoolNtfBalance()\r\n        public\r\n        view\r\n        returns(uint256)\r\n    {\r\n        return ntfToken.balanceOf(address(this));\r\n    }\r\n\r\n    //  CoinShare contract\r\n    // function getCpt() public view returns(uint256)\r\n    // function getFund() public view returns(uint256)\r\n    // function getCoinOf(address _member) public view returns(uint256)\r\n\r\n    // Lockable contract\r\n    // function getUnlockTime(address _member) public view returns(uint256)\r\n    // function isLocking(address _member) public view returns(bool)\r\n    // function getLockDuration() public view returns(uint256)\r\n\r\n    function getStatus()\r\n        public\r\n        view\r\n        returns(uint256)\r\n    {\r\n        return gov.getStatus(address(this));\r\n    }\r\n\r\n    function getPoolGovBalance()\r\n        public\r\n        view\r\n        returns(uint256)\r\n    {\r\n        return gov.getBalance(address(this));\r\n    }\r\n\r\n    function getCoinbase()\r\n        public\r\n        view\r\n        returns(address)\r\n    {\r\n        return gov.getCoinbase(address(this));\r\n    }\r\n\r\n    function getUnlockHeight()\r\n        public\r\n        view\r\n        returns(uint256)\r\n    {\r\n        return gov.getUnlockHeight(address(this));\r\n    }\r\n\r\n    function isWithdrawable()\r\n        external\r\n        view\r\n        returns(bool)\r\n    {\r\n        return gov.isWithdrawable(address(this));\r\n    }\r\n\r\n/*\r\n    TEST TEST TEST TEST TEST TEST TEST TEST TEST \r\n*/\r\n    // send nty to contract as Reward from Core\r\n    function virtuellMining()\r\n        public\r\n        payable\r\n    {\r\n\r\n    }\r\n}",
  "sourcePath": "C:\\Users\\bestb\\Desktop\\workshop\\sealing-pool\\contracts\\ntfPool\\NtfPool.sol",
  "compiler": {
    "name": "solc",
    "version": "0.5.0+commit.1d4f565a.Emscripten.clang"
  },
  "schemaVersion": "3.0.6",
  "updatedAt": "2019-05-24T05:02:28.896Z",
  "devdoc": {
    "methods": {
      "allowance(address,address)": {
        "details": "Function to check the amount of tokens that an owner allowed to a spender.",
        "params": {
          "owner": "address The address which owns the funds.",
          "spender": "address The address which will spend the funds."
        },
        "return": "A uint256 specifying the amount of tokens still available for the spender."
      },
      "approve(address,uint256)": {
        "details": "Approve the passed address to spend the specified amount of tokens on behalf of msg.sender. Beware that changing an allowance with this method brings the risk that someone may use both the old and the new allowance by unfortunate transaction ordering. One possible solution to mitigate this race condition is to first reduce the spender's allowance to 0 and set the desired value afterwards: https://github.com/ethereum/EIPs/issues/20#issuecomment-263524729",
        "params": {
          "spender": "The address which will spend the funds.",
          "value": "The amount of tokens to be spent."
        }
      },
      "balanceOf(address)": {
        "details": "Gets the balance of the specified address.",
        "params": {
          "owner": "The address to query the balance of."
        },
        "return": "An uint256 representing the amount owned by the passed address."
      },
      "decreaseAllowance(address,uint256)": {
        "details": "Decrease the amount of tokens that an owner allowed to a spender. approve should be called when allowed_[_spender] == 0. To decrement allowed value is better to use this function to avoid 2 calls (and wait until the first transaction is mined) From MonolithDAO Token.sol Emits an Approval event.",
        "params": {
          "spender": "The address which will spend the funds.",
          "subtractedValue": "The amount of tokens to decrease the allowance by."
        }
      },
      "increaseAllowance(address,uint256)": {
        "details": "Increase the amount of tokens that an owner allowed to a spender. approve should be called when allowed_[_spender] == 0. To increment allowed value is better to use this function to avoid 2 calls (and wait until the first transaction is mined) From MonolithDAO Token.sol Emits an Approval event.",
        "params": {
          "addedValue": "The amount of tokens to increase the allowance by.",
          "spender": "The address which will spend the funds."
        }
      },
      "initialize(address)": {
        "details": "The Ownable constructor sets the original `owner` of the contract to the sender account."
      },
      "isOwner()": {
        "return": "true if `msg.sender` is the owner of the contract."
      },
      "owner()": {
        "return": "the address of the owner."
      },
      "renounceOwnership()": {
        "details": "Allows the current owner to relinquish control of the contract."
      },
      "totalSupply()": {
        "details": "Total number of tokens in existence"
      },
      "transferFrom(address,address,uint256)": {
        "details": "Transfer tokens from one address to another. Note that while this function emits an Approval event, this is not required as per the specification, and other compliant implementations may not emit the event.",
        "params": {
          "from": "address The address which you want to send tokens from",
          "to": "address The address which you want to transfer to",
          "value": "uint256 the amount of tokens to be transferred"
        }
      },
      "transferOwnership(address)": {
        "details": "Allows the current owner to transfer control of the contract to a newOwner.",
        "params": {
          "newOwner": "The address to transfer ownership to."
        }
      }
    }
  },
  "userdoc": {
    "methods": {
      "renounceOwnership()": {
        "notice": "Renouncing to ownership will leave the contract without an owner. It will not be possible to call the functions with the `onlyOwner` modifier anymore."
      }
    }
  }
}