{
  "contractName": "NtfPool",
  "abi": [
    {
      "constant": true,
      "inputs": [],
      "name": "getCurFundCpt",
      "outputs": [
        {
          "name": "",
          "type": "uint256"
        },
        {
          "name": "",
          "type": "uint256"
        }
      ],
      "payable": false,
      "stateMutability": "view",
      "type": "function"
    },
    {
      "constant": false,
      "inputs": [
        {
          "name": "spender",
          "type": "address"
        },
        {
          "name": "value",
          "type": "uint256"
        }
      ],
      "name": "approve",
      "outputs": [
        {
          "name": "",
          "type": "bool"
        }
      ],
      "payable": false,
      "stateMutability": "nonpayable",
      "type": "function"
    },
    {
      "constant": true,
      "inputs": [],
      "name": "gov",
      "outputs": [
        {
          "name": "",
          "type": "address"
        }
      ],
      "payable": false,
      "stateMutability": "view",
      "type": "function"
    },
    {
      "constant": true,
      "inputs": [],
      "name": "totalSupply",
      "outputs": [
        {
          "name": "",
          "type": "uint256"
        }
      ],
      "payable": false,
      "stateMutability": "view",
      "type": "function"
    },
    {
      "constant": false,
      "inputs": [
        {
          "name": "from",
          "type": "address"
        },
        {
          "name": "to",
          "type": "address"
        },
        {
          "name": "value",
          "type": "uint256"
        }
      ],
      "name": "transferFrom",
      "outputs": [
        {
          "name": "",
          "type": "bool"
        }
      ],
      "payable": false,
      "stateMutability": "nonpayable",
      "type": "function"
    },
    {
      "constant": false,
      "inputs": [
        {
          "name": "spender",
          "type": "address"
        },
        {
          "name": "addedValue",
          "type": "uint256"
        }
      ],
      "name": "increaseAllowance",
      "outputs": [
        {
          "name": "",
          "type": "bool"
        }
      ],
      "payable": false,
      "stateMutability": "nonpayable",
      "type": "function"
    },
    {
      "constant": true,
      "inputs": [],
      "name": "npt",
      "outputs": [
        {
          "name": "",
          "type": "uint256"
        }
      ],
      "payable": false,
      "stateMutability": "view",
      "type": "function"
    },
    {
      "constant": true,
      "inputs": [],
      "name": "MAX_LOCK_DURATION",
      "outputs": [
        {
          "name": "",
          "type": "uint256"
        }
      ],
      "payable": false,
      "stateMutability": "view",
      "type": "function"
    },
    {
      "constant": true,
      "inputs": [],
      "name": "ntfToken",
      "outputs": [
        {
          "name": "",
          "type": "address"
        }
      ],
      "payable": false,
      "stateMutability": "view",
      "type": "function"
    },
    {
      "constant": true,
      "inputs": [
        {
          "name": "_member",
          "type": "address"
        }
      ],
      "name": "getCoinOf",
      "outputs": [
        {
          "name": "",
          "type": "uint256"
        }
      ],
      "payable": false,
      "stateMutability": "view",
      "type": "function"
    },
    {
      "constant": true,
      "inputs": [
        {
          "name": "owner",
          "type": "address"
        }
      ],
      "name": "balanceOf",
      "outputs": [
        {
          "name": "",
          "type": "uint256"
        }
      ],
      "payable": false,
      "stateMutability": "view",
      "type": "function"
    },
    {
      "constant": false,
      "inputs": [],
      "name": "renounceOwnership",
      "outputs": [],
      "payable": false,
      "stateMutability": "nonpayable",
      "type": "function"
    },
    {
      "constant": true,
      "inputs": [],
      "name": "owner",
      "outputs": [
        {
          "name": "",
          "type": "address"
        }
      ],
      "payable": false,
      "stateMutability": "view",
      "type": "function"
    },
    {
      "constant": true,
      "inputs": [],
      "name": "getMembersBalance",
      "outputs": [
        {
          "name": "",
          "type": "uint256"
        }
      ],
      "payable": false,
      "stateMutability": "view",
      "type": "function"
    },
    {
      "constant": true,
      "inputs": [],
      "name": "isOwner",
      "outputs": [
        {
          "name": "",
          "type": "bool"
        }
      ],
      "payable": false,
      "stateMutability": "view",
      "type": "function"
    },
    {
      "constant": false,
      "inputs": [
        {
          "name": "spender",
          "type": "address"
        },
        {
          "name": "subtractedValue",
          "type": "uint256"
        }
      ],
      "name": "decreaseAllowance",
      "outputs": [
        {
          "name": "",
          "type": "bool"
        }
      ],
      "payable": false,
      "stateMutability": "nonpayable",
      "type": "function"
    },
    {
      "constant": false,
      "inputs": [
        {
          "name": "to",
          "type": "address"
        },
        {
          "name": "value",
          "type": "uint256"
        }
      ],
      "name": "transfer",
      "outputs": [
        {
          "name": "",
          "type": "bool"
        }
      ],
      "payable": false,
      "stateMutability": "nonpayable",
      "type": "function"
    },
    {
      "constant": false,
      "inputs": [
        {
          "name": "sender",
          "type": "address"
        }
      ],
      "name": "initialize",
      "outputs": [],
      "payable": false,
      "stateMutability": "nonpayable",
      "type": "function"
    },
    {
      "constant": true,
      "inputs": [],
      "name": "CPT_ZOOM",
      "outputs": [
        {
          "name": "",
          "type": "uint256"
        }
      ],
      "payable": false,
      "stateMutability": "view",
      "type": "function"
    },
    {
      "constant": true,
      "inputs": [
        {
          "name": "_member",
          "type": "address"
        }
      ],
      "name": "isLocking",
      "outputs": [
        {
          "name": "",
          "type": "bool"
        }
      ],
      "payable": false,
      "stateMutability": "view",
      "type": "function"
    },
    {
      "constant": true,
      "inputs": [
        {
          "name": "_member",
          "type": "address"
        }
      ],
      "name": "getUnlockTime",
      "outputs": [
        {
          "name": "",
          "type": "uint256"
        }
      ],
      "payable": false,
      "stateMutability": "view",
      "type": "function"
    },
    {
      "constant": true,
      "inputs": [
        {
          "name": "owner",
          "type": "address"
        },
        {
          "name": "spender",
          "type": "address"
        }
      ],
      "name": "allowance",
      "outputs": [
        {
          "name": "",
          "type": "uint256"
        }
      ],
      "payable": false,
      "stateMutability": "view",
      "type": "function"
    },
    {
      "constant": true,
      "inputs": [],
      "name": "getLockDuration",
      "outputs": [
        {
          "name": "",
          "type": "uint256"
        }
      ],
      "payable": false,
      "stateMutability": "view",
      "type": "function"
    },
    {
      "constant": true,
      "inputs": [],
      "name": "OWNER_ACTION_DELAY",
      "outputs": [
        {
          "name": "",
          "type": "uint256"
        }
      ],
      "payable": false,
      "stateMutability": "view",
      "type": "function"
    },
    {
      "constant": false,
      "inputs": [
        {
          "name": "newOwner",
          "type": "address"
        }
      ],
      "name": "transferOwnership",
      "outputs": [],
      "payable": false,
      "stateMutability": "nonpayable",
      "type": "function"
    },
    {
      "constant": true,
      "inputs": [],
      "name": "TAX_PERCENT",
      "outputs": [
        {
          "name": "",
          "type": "uint256"
        }
      ],
      "payable": false,
      "stateMutability": "view",
      "type": "function"
    },
    {
      "inputs": [
        {
          "name": "_owner",
          "type": "address"
        },
        {
          "name": "_ntfAddress",
          "type": "address"
        },
        {
          "name": "_govAddress",
          "type": "address"
        },
        {
          "name": "_TAX_PERCENT",
          "type": "uint256"
        },
        {
          "name": "_MAX_LOCK_DURATION",
          "type": "uint256"
        },
        {
          "name": "_OWNER_ACTION_DELAY",
          "type": "uint256"
        }
      ],
      "payable": false,
      "stateMutability": "nonpayable",
      "type": "constructor"
    },
    {
      "payable": true,
      "stateMutability": "payable",
      "type": "fallback"
    },
    {
      "anonymous": false,
      "inputs": [
        {
          "indexed": true,
          "name": "previousOwner",
          "type": "address"
        },
        {
          "indexed": true,
          "name": "newOwner",
          "type": "address"
        }
      ],
      "name": "OwnershipTransferred",
      "type": "event"
    },
    {
      "anonymous": false,
      "inputs": [
        {
          "indexed": true,
          "name": "from",
          "type": "address"
        },
        {
          "indexed": true,
          "name": "to",
          "type": "address"
        },
        {
          "indexed": false,
          "name": "value",
          "type": "uint256"
        }
      ],
      "name": "Transfer",
      "type": "event"
    },
    {
      "anonymous": false,
      "inputs": [
        {
          "indexed": true,
          "name": "owner",
          "type": "address"
        },
        {
          "indexed": true,
          "name": "spender",
          "type": "address"
        },
        {
          "indexed": false,
          "name": "value",
          "type": "uint256"
        }
      ],
      "name": "Approval",
      "type": "event"
    },
    {
      "constant": false,
      "inputs": [
        {
          "name": "_amount",
          "type": "uint256"
        },
        {
          "name": "_signer",
          "type": "address"
        }
      ],
      "name": "join",
      "outputs": [],
      "payable": false,
      "stateMutability": "nonpayable",
      "type": "function"
    },
    {
      "constant": false,
      "inputs": [],
      "name": "leave",
      "outputs": [],
      "payable": false,
      "stateMutability": "nonpayable",
      "type": "function"
    },
    {
      "constant": false,
      "inputs": [],
      "name": "tokenPoolWithdraw",
      "outputs": [],
      "payable": false,
      "stateMutability": "nonpayable",
      "type": "function"
    },
    {
      "constant": false,
      "inputs": [
        {
          "name": "_toAddress",
          "type": "address"
        }
      ],
      "name": "fundWithdraw",
      "outputs": [],
      "payable": false,
      "stateMutability": "nonpayable",
      "type": "function"
    },
    {
      "constant": false,
      "inputs": [
        {
          "name": "_lockDuration",
          "type": "uint256"
        }
      ],
      "name": "setLockDuration",
      "outputs": [],
      "payable": false,
      "stateMutability": "nonpayable",
      "type": "function"
    },
    {
      "constant": false,
      "inputs": [
        {
          "name": "_amount",
          "type": "uint256"
        }
      ],
      "name": "tokenDeposit",
      "outputs": [],
      "payable": false,
      "stateMutability": "nonpayable",
      "type": "function"
    },
    {
      "constant": false,
      "inputs": [
        {
          "name": "_amount",
          "type": "uint256"
        }
      ],
      "name": "tokenMemberWithdraw",
      "outputs": [],
      "payable": false,
      "stateMutability": "nonpayable",
      "type": "function"
    },
    {
      "constant": false,
      "inputs": [],
      "name": "coinWithdraw",
      "outputs": [],
      "payable": false,
      "stateMutability": "nonpayable",
      "type": "function"
    },
    {
      "constant": true,
      "inputs": [],
      "name": "getPoolNtfBalance",
      "outputs": [
        {
          "name": "",
          "type": "uint256"
        }
      ],
      "payable": false,
      "stateMutability": "view",
      "type": "function"
    },
    {
      "constant": true,
      "inputs": [],
      "name": "getStatus",
      "outputs": [
        {
          "name": "",
          "type": "uint256"
        }
      ],
      "payable": false,
      "stateMutability": "view",
      "type": "function"
    },
    {
      "constant": true,
      "inputs": [],
      "name": "getBalance",
      "outputs": [
        {
          "name": "",
          "type": "uint256"
        }
      ],
      "payable": false,
      "stateMutability": "view",
      "type": "function"
    },
    {
      "constant": true,
      "inputs": [],
      "name": "getCoinbase",
      "outputs": [
        {
          "name": "",
          "type": "address"
        }
      ],
      "payable": false,
      "stateMutability": "view",
      "type": "function"
    },
    {
      "constant": true,
      "inputs": [],
      "name": "getUnlockHeight",
      "outputs": [
        {
          "name": "",
          "type": "uint256"
        }
      ],
      "payable": false,
      "stateMutability": "view",
      "type": "function"
    },
    {
      "constant": true,
      "inputs": [],
      "name": "isWithdrawable",
      "outputs": [
        {
          "name": "",
          "type": "bool"
        }
      ],
      "payable": false,
      "stateMutability": "view",
      "type": "function"
    },
    {
      "constant": false,
      "inputs": [],
      "name": "virtuellMining",
      "outputs": [],
      "payable": true,
      "stateMutability": "payable",
      "type": "function"
    }
  ],
  "bytecode": "0x60806040523480156200001157600080fd5b5060405160c08062003866833981018060405260c08110156200003357600080fd5b8101908080519060200190929190805190602001909291908051906020019092919080519060200190929190805190602001909291908051906020019092919050505084607460006101000a81548173ffffffffffffffffffffffffffffffffffffffff021916908373ffffffffffffffffffffffffffffffffffffffff16021790555083607560006101000a81548173ffffffffffffffffffffffffffffffffffffffff021916908373ffffffffffffffffffffffffffffffffffffffff160217905550600083101580156200010b575060648311155b151562000180576040517f08c379a00000000000000000000000000000000000000000000000000000000081526004018080602001828103825260138152602001807f696e76616c6964207461782070657263656e740000000000000000000000000081525060200191505060405180910390fd5b826003819055508160708190555080607181905550620001af86620001bb640100000000026401000000009004565b50505050505062000395565b600860019054906101000a900460ff1680620001ec5750620001eb62000384640100000000026401000000009004565b5b80620002055750600860009054906101000a900460ff16155b15156200025e576040517f08c379a000000000000000000000000000000000000000000000000000000000815260040180806020018281038252602e81526020018062003838602e913960400191505060405180910390fd5b6000600860019054906101000a900460ff1690506001600860016101000a81548160ff0219169083151502179055506001600860006101000a81548160ff02191690831515021790555081603b60006101000a81548173ffffffffffffffffffffffffffffffffffffffff021916908373ffffffffffffffffffffffffffffffffffffffff160217905550603b60009054906101000a900473ffffffffffffffffffffffffffffffffffffffff1673ffffffffffffffffffffffffffffffffffffffff16600073ffffffffffffffffffffffffffffffffffffffff167f8be0079c531659141344cd1fd0a4f28419497f9722a3daafe3b4186f6b6457e060405160405180910390a380600860016101000a81548160ff0219169083151502179055505050565b600080303b90506000811491505090565b61349380620003a56000396000f3fe608060405260043610610263576000357c010000000000000000000000000000000000000000000000000000000090048063715018a611610156578063d12c33b7116100d3578063e1fe7d2311610097578063e1fe7d2314610c12578063e239c40014610c4d578063edfd36cd14610c78578063ee419a8814610c8f578063f2fde38b14610cba578063fd17766714610d0b57610263565b8063d12c33b714610a51578063d1a82a9d14610aba578063d66d9e1914610b11578063dbed1e8814610b28578063dd62ed3e14610b8d57610263565b80638f32d59b1161011a5780638f32d59b146108c0578063a457c2d7146108ef578063a9059cbb14610962578063c4d66de8146109d5578063cadba0d114610a2657610263565b8063715018a61461079b578063796d0461146107b25780637a2bee5e146107ed5780638da5cb5b1461083e5780638e7dce4e1461089557610263565b80634d840bcc116101e457806359aa9506116101a857806359aa9506146106455780635df5ffbb1461069c5780636e7348c9146106a657806370a082311461070b57806370c9b0f71461077057610263565b80634d840bcc1461055a5780634e69d560146105895780634eb665af146105b45780634f1bfc9e146105ef5780634f8457e41461061a57610263565b806323b872dd1161022b57806323b872dd146103b7578063395093511461044a5780633aa9dd2a146104bd5780633c57b5f3146105185780633c85053e1461054357610263565b80630217373214610265578063095ea7b31461029757806312065fe01461030a57806312d43a511461033557806318160ddd1461038c575b005b34801561027157600080fd5b5061027a610d36565b604051808381526020018281526020019250505060405180910390f35b3480156102a357600080fd5b506102f0600480360360408110156102ba57600080fd5b81019080803573ffffffffffffffffffffffffffffffffffffffff16906020019092919080359060200190929190505050610e26565b604051808215151515815260200191505060405180910390f35b34801561031657600080fd5b5061031f610f53565b6040518082815260200191505060405180910390f35b34801561034157600080fd5b5061034a611050565b604051808273ffffffffffffffffffffffffffffffffffffffff1673ffffffffffffffffffffffffffffffffffffffff16815260200191505060405180910390f35b34801561039857600080fd5b506103a1611076565b6040518082815260200191505060405180910390f35b3480156103c357600080fd5b50610430600480360360608110156103da57600080fd5b81019080803573ffffffffffffffffffffffffffffffffffffffff169060200190929190803573ffffffffffffffffffffffffffffffffffffffff16906020019092919080359060200190929190505050611080565b604051808215151515815260200191505060405180910390f35b34801561045657600080fd5b506104a36004803603604081101561046d57600080fd5b81019080803573ffffffffffffffffffffffffffffffffffffffff16906020019092919080359060200190929190505050611288565b604051808215151515815260200191505060405180910390f35b3480156104c957600080fd5b50610516600480360360408110156104e057600080fd5b8101908080359060200190929190803573ffffffffffffffffffffffffffffffffffffffff1690602001909291905050506114bf565b005b34801561052457600080fd5b5061052d6117bf565b6040518082815260200191505060405180910390f35b34801561054f57600080fd5b506105586117c5565b005b34801561056657600080fd5b5061056f61189c565b604051808215151515815260200191505060405180910390f35b34801561059557600080fd5b5061059e611999565b6040518082815260200191505060405180910390f35b3480156105c057600080fd5b506105ed600480360360208110156105d757600080fd5b8101908080359060200190929190505050611a96565b005b3480156105fb57600080fd5b50610604611bb5565b6040518082815260200191505060405180910390f35b34801561062657600080fd5b5061062f611bbb565b6040518082815260200191505060405180910390f35b34801561065157600080fd5b5061065a611cb8565b604051808273ffffffffffffffffffffffffffffffffffffffff1673ffffffffffffffffffffffffffffffffffffffff16815260200191505060405180910390f35b6106a4611cde565b005b3480156106b257600080fd5b506106f5600480360360208110156106c957600080fd5b81019080803573ffffffffffffffffffffffffffffffffffffffff169060200190929190505050611ce0565b6040518082815260200191505060405180910390f35b34801561071757600080fd5b5061075a6004803603602081101561072e57600080fd5b81019080803573ffffffffffffffffffffffffffffffffffffffff169060200190929190505050611d63565b6040518082815260200191505060405180910390f35b34801561077c57600080fd5b50610785611dab565b6040518082815260200191505060405180910390f35b3480156107a757600080fd5b506107b0611ea8565b005b3480156107be57600080fd5b506107eb600480360360208110156107d557600080fd5b8101908080359060200190929190505050611f7c565b005b3480156107f957600080fd5b5061083c6004803603602081101561081057600080fd5b81019080803573ffffffffffffffffffffffffffffffffffffffff16906020019092919050505061212e565b005b34801561084a57600080fd5b5061085361214d565b604051808273ffffffffffffffffffffffffffffffffffffffff1673ffffffffffffffffffffffffffffffffffffffff16815260200191505060405180910390f35b3480156108a157600080fd5b506108aa612177565b6040518082815260200191505060405180910390f35b3480156108cc57600080fd5b506108d56121b9565b604051808215151515815260200191505060405180910390f35b3480156108fb57600080fd5b506109486004803603604081101561091257600080fd5b81019080803573ffffffffffffffffffffffffffffffffffffffff16906020019092919080359060200190929190505050612211565b604051808215151515815260200191505060405180910390f35b34801561096e57600080fd5b506109bb6004803603604081101561098557600080fd5b81019080803573ffffffffffffffffffffffffffffffffffffffff16906020019092919080359060200190929190505050612448565b604051808215151515815260200191505060405180910390f35b3480156109e157600080fd5b50610a24600480360360208110156109f857600080fd5b81019080803573ffffffffffffffffffffffffffffffffffffffff16906020019092919050505061248d565b005b348015610a3257600080fd5b50610a3b612641565b6040518082815260200191505060405180910390f35b348015610a5d57600080fd5b50610aa060048036036020811015610a7457600080fd5b81019080803573ffffffffffffffffffffffffffffffffffffffff169060200190929190505050612647565b604051808215151515815260200191505060405180910390f35b348015610ac657600080fd5b50610acf6126dd565b604051808273ffffffffffffffffffffffffffffffffffffffff1673ffffffffffffffffffffffffffffffffffffffff16815260200191505060405180910390f35b348015610b1d57600080fd5b50610b266127da565b005b348015610b3457600080fd5b50610b7760048036036020811015610b4b57600080fd5b81019080803573ffffffffffffffffffffffffffffffffffffffff1690602001909291905050506128b1565b6040518082815260200191505060405180910390f35b348015610b9957600080fd5b50610bfc60048036036040811015610bb057600080fd5b81019080803573ffffffffffffffffffffffffffffffffffffffff169060200190929190803573ffffffffffffffffffffffffffffffffffffffff1690602001909291905050506128fa565b6040518082815260200191505060405180910390f35b348015610c1e57600080fd5b50610c4b60048036036020811015610c3557600080fd5b8101908080359060200190929190505050612981565b005b348015610c5957600080fd5b50610c62612af2565b6040518082815260200191505060405180910390f35b348015610c8457600080fd5b50610c8d612afc565b005b348015610c9b57600080fd5b50610ca4612b0d565b6040518082815260200191505060405180910390f35b348015610cc657600080fd5b50610d0960048036036020811015610cdd57600080fd5b81019080803573ffffffffffffffffffffffffffffffffffffffff169060200190929190505050612b13565b005b348015610d1757600080fd5b50610d20612b32565b6040518082815260200191505060405180910390f35b6000806000610d676007543073ffffffffffffffffffffffffffffffffffffffff1631612b3890919063ffffffff16565b9050600060646003548302811515610d7b57fe5b0490506000610d88611076565b1415610db357610da382600654612b5a90919063ffffffff16565b6000809050935093505050610e22565b6000610dbd611076565b610de46103e8610dd68587612b3890919063ffffffff16565b612b7b90919063ffffffff16565b811515610ded57fe5b049050610e0582600654612b5a90919063ffffffff16565b610e1a82600554612b5a90919063ffffffff16565b945094505050505b9091565b60008073ffffffffffffffffffffffffffffffffffffffff168373ffffffffffffffffffffffffffffffffffffffff1614151515610e6357600080fd5b81600160003373ffffffffffffffffffffffffffffffffffffffff1673ffffffffffffffffffffffffffffffffffffffff16815260200190815260200160002060008573ffffffffffffffffffffffffffffffffffffffff1673ffffffffffffffffffffffffffffffffffffffff168152602001908152602001600020819055508273ffffffffffffffffffffffffffffffffffffffff163373ffffffffffffffffffffffffffffffffffffffff167f8c5be1e5ebec7d5bd14f71427d1e84f3dd0314c0f7b2291e5b200ac8c7c3b925846040518082815260200191505060405180910390a36001905092915050565b6000607560009054906101000a900473ffffffffffffffffffffffffffffffffffffffff1673ffffffffffffffffffffffffffffffffffffffff1663f8b2cb4f306040518263ffffffff167c0100000000000000000000000000000000000000000000000000000000028152600401808273ffffffffffffffffffffffffffffffffffffffff1673ffffffffffffffffffffffffffffffffffffffff16815260200191505060206040518083038186803b15801561101057600080fd5b505afa158015611024573d6000803e3d6000fd5b505050506040513d602081101561103a57600080fd5b8101908080519060200190929190505050905090565b607560009054906101000a900473ffffffffffffffffffffffffffffffffffffffff1681565b6000600254905090565b600061111182600160008773ffffffffffffffffffffffffffffffffffffffff1673ffffffffffffffffffffffffffffffffffffffff16815260200190815260200160002060003373ffffffffffffffffffffffffffffffffffffffff1673ffffffffffffffffffffffffffffffffffffffff16815260200190815260200160002054612b3890919063ffffffff16565b600160008673ffffffffffffffffffffffffffffffffffffffff1673ffffffffffffffffffffffffffffffffffffffff16815260200190815260200160002060003373ffffffffffffffffffffffffffffffffffffffff1673ffffffffffffffffffffffffffffffffffffffff1681526020019081526020016000208190555061119c848484612bb9565b3373ffffffffffffffffffffffffffffffffffffffff168473ffffffffffffffffffffffffffffffffffffffff167f8c5be1e5ebec7d5bd14f71427d1e84f3dd0314c0f7b2291e5b200ac8c7c3b925600160008873ffffffffffffffffffffffffffffffffffffffff1673ffffffffffffffffffffffffffffffffffffffff16815260200190815260200160002060003373ffffffffffffffffffffffffffffffffffffffff1673ffffffffffffffffffffffffffffffffffffffff168152602001908152602001600020546040518082815260200191505060405180910390a3600190509392505050565b60008073ffffffffffffffffffffffffffffffffffffffff168373ffffffffffffffffffffffffffffffffffffffff16141515156112c557600080fd5b61135482600160003373ffffffffffffffffffffffffffffffffffffffff1673ffffffffffffffffffffffffffffffffffffffff16815260200190815260200160002060008673ffffffffffffffffffffffffffffffffffffffff1673ffffffffffffffffffffffffffffffffffffffff16815260200190815260200160002054612b5a90919063ffffffff16565b600160003373ffffffffffffffffffffffffffffffffffffffff1673ffffffffffffffffffffffffffffffffffffffff16815260200190815260200160002060008573ffffffffffffffffffffffffffffffffffffffff1673ffffffffffffffffffffffffffffffffffffffff168152602001908152602001600020819055508273ffffffffffffffffffffffffffffffffffffffff163373ffffffffffffffffffffffffffffffffffffffff167f8c5be1e5ebec7d5bd14f71427d1e84f3dd0314c0f7b2291e5b200ac8c7c3b925600160003373ffffffffffffffffffffffffffffffffffffffff1673ffffffffffffffffffffffffffffffffffffffff16815260200190815260200160002060008773ffffffffffffffffffffffffffffffffffffffff1673ffffffffffffffffffffffffffffffffffffffff168152602001908152602001600020546040518082815260200191505060405180910390a36001905092915050565b6114c76121b9565b15156114d257600080fd5b607460009054906101000a900473ffffffffffffffffffffffffffffffffffffffff1673ffffffffffffffffffffffffffffffffffffffff1663095ea7b3607560009054906101000a900473ffffffffffffffffffffffffffffffffffffffff16846040518363ffffffff167c0100000000000000000000000000000000000000000000000000000000028152600401808373ffffffffffffffffffffffffffffffffffffffff1673ffffffffffffffffffffffffffffffffffffffff16815260200182815260200192505050602060405180830381600087803b1580156115b957600080fd5b505af11580156115cd573d6000803e3d6000fd5b505050506040513d60208110156115e357600080fd5b810190808051906020019092919050505050607560009054906101000a900473ffffffffffffffffffffffffffffffffffffffff1673ffffffffffffffffffffffffffffffffffffffff1663b6b55f25836040518263ffffffff167c010000000000000000000000000000000000000000000000000000000002815260040180828152602001915050602060405180830381600087803b15801561168657600080fd5b505af115801561169a573d6000803e3d6000fd5b505050506040513d60208110156116b057600080fd5b810190808051906020019092919050505050607560009054906101000a900473ffffffffffffffffffffffffffffffffffffffff1673ffffffffffffffffffffffffffffffffffffffff166328ffe6c8826040518263ffffffff167c0100000000000000000000000000000000000000000000000000000000028152600401808273ffffffffffffffffffffffffffffffffffffffff1673ffffffffffffffffffffffffffffffffffffffff168152602001915050602060405180830381600087803b15801561177f57600080fd5b505af1158015611793573d6000803e3d6000fd5b505050506040513d60208110156117a957600080fd5b8101908080519060200190929190505050505050565b60735481565b6117cd6121b9565b15156117d857600080fd5b607560009054906101000a900473ffffffffffffffffffffffffffffffffffffffff1673ffffffffffffffffffffffffffffffffffffffff16633ccfd60b6040518163ffffffff167c0100000000000000000000000000000000000000000000000000000000028152600401602060405180830381600087803b15801561185e57600080fd5b505af1158015611872573d6000803e3d6000fd5b505050506040513d602081101561188857600080fd5b810190808051906020019092919050505050565b6000607560009054906101000a900473ffffffffffffffffffffffffffffffffffffffff1673ffffffffffffffffffffffffffffffffffffffff166302a18484306040518263ffffffff167c0100000000000000000000000000000000000000000000000000000000028152600401808273ffffffffffffffffffffffffffffffffffffffff1673ffffffffffffffffffffffffffffffffffffffff16815260200191505060206040518083038186803b15801561195957600080fd5b505afa15801561196d573d6000803e3d6000fd5b505050506040513d602081101561198357600080fd5b8101908080519060200190929190505050905090565b6000607560009054906101000a900473ffffffffffffffffffffffffffffffffffffffff1673ffffffffffffffffffffffffffffffffffffffff166330ccebb5306040518263ffffffff167c0100000000000000000000000000000000000000000000000000000000028152600401808273ffffffffffffffffffffffffffffffffffffffff1673ffffffffffffffffffffffffffffffffffffffff16815260200191505060206040518083038186803b158015611a5657600080fd5b505afa158015611a6a573d6000803e3d6000fd5b505050506040513d6020811015611a8057600080fd5b8101908080519060200190929190505050905090565b611a9e6121b9565b1515611aa957600080fd5b6071546072540142111515611b26576040517f08c379a00000000000000000000000000000000000000000000000000000000081526004018080602001828103825260148152602001807f646f6e74206368616e676520746f20717569636b00000000000000000000000081525060200191505060405180910390fd5b806070548111151515611ba1576040517f08c379a00000000000000000000000000000000000000000000000000000000081526004018080602001828103825260128152602001807f646f6e74206c6f636b20746f6f206c6f6e67000000000000000000000000000081525060200191505060405180910390fd5b42607281905550611bb182612d85565b5050565b60705481565b6000607460009054906101000a900473ffffffffffffffffffffffffffffffffffffffff1673ffffffffffffffffffffffffffffffffffffffff166370a08231306040518263ffffffff167c0100000000000000000000000000000000000000000000000000000000028152600401808273ffffffffffffffffffffffffffffffffffffffff1673ffffffffffffffffffffffffffffffffffffffff16815260200191505060206040518083038186803b158015611c7857600080fd5b505afa158015611c8c573d6000803e3d6000fd5b505050506040513d6020811015611ca257600080fd5b8101908080519060200190929190505050905090565b607460009054906101000a900473ffffffffffffffffffffffffffffffffffffffff1681565b565b6000806000611ced610d36565b91509150600460008573ffffffffffffffffffffffffffffffffffffffff1673ffffffffffffffffffffffffffffffffffffffff168152602001908152602001600020546103e8611d4f83611d4188611d63565b612b7b90919063ffffffff16565b811515611d5857fe5b040392505050919050565b60008060008373ffffffffffffffffffffffffffffffffffffffff1673ffffffffffffffffffffffffffffffffffffffff168152602001908152602001600020549050919050565b6000607560009054906101000a900473ffffffffffffffffffffffffffffffffffffffff1673ffffffffffffffffffffffffffffffffffffffff166355235d47306040518263ffffffff167c0100000000000000000000000000000000000000000000000000000000028152600401808273ffffffffffffffffffffffffffffffffffffffff1673ffffffffffffffffffffffffffffffffffffffff16815260200191505060206040518083038186803b158015611e6857600080fd5b505afa158015611e7c573d6000803e3d6000fd5b505050506040513d6020811015611e9257600080fd5b8101908080519060200190929190505050905090565b611eb06121b9565b1515611ebb57600080fd5b600073ffffffffffffffffffffffffffffffffffffffff16603b60009054906101000a900473ffffffffffffffffffffffffffffffffffffffff1673ffffffffffffffffffffffffffffffffffffffff167f8be0079c531659141344cd1fd0a4f28419497f9722a3daafe3b4186f6b6457e060405160405180910390a36000603b60006101000a81548173ffffffffffffffffffffffffffffffffffffffff021916908373ffffffffffffffffffffffffffffffffffffffff160217905550565b611f8533612647565b151515611ffa576040517f08c379a000000000000000000000000000000000000000000000000000000000815260040180806020018281038252600d8152602001807f7374696c6c206c6f636b696e670000000000000000000000000000000000000081525060200191505060405180910390fd5b612002612d8f565b6000339050600061201282612dcb565b905061201e8284612e3f565b607460009054906101000a900473ffffffffffffffffffffffffffffffffffffffff1673ffffffffffffffffffffffffffffffffffffffff1663a9059cbb83856040518363ffffffff167c0100000000000000000000000000000000000000000000000000000000028152600401808373ffffffffffffffffffffffffffffffffffffffff1673ffffffffffffffffffffffffffffffffffffffff16815260200182815260200192505050602060405180830381600087803b1580156120e357600080fd5b505af11580156120f7573d6000803e3d6000fd5b505050506040513d602081101561210d57600080fd5b8101908080519060200190929190505050506121298282612f93565b505050565b6121366121b9565b151561214157600080fd5b61214a81613006565b50565b6000603b60009054906101000a900473ffffffffffffffffffffffffffffffffffffffff16905090565b6000806000612184610d36565b915091506121b2823073ffffffffffffffffffffffffffffffffffffffff1631612b3890919063ffffffff16565b9250505090565b6000603b60009054906101000a900473ffffffffffffffffffffffffffffffffffffffff1673ffffffffffffffffffffffffffffffffffffffff163373ffffffffffffffffffffffffffffffffffffffff1614905090565b60008073ffffffffffffffffffffffffffffffffffffffff168373ffffffffffffffffffffffffffffffffffffffff161415151561224e57600080fd5b6122dd82600160003373ffffffffffffffffffffffffffffffffffffffff1673ffffffffffffffffffffffffffffffffffffffff16815260200190815260200160002060008673ffffffffffffffffffffffffffffffffffffffff1673ffffffffffffffffffffffffffffffffffffffff16815260200190815260200160002054612b3890919063ffffffff16565b600160003373ffffffffffffffffffffffffffffffffffffffff1673ffffffffffffffffffffffffffffffffffffffff16815260200190815260200160002060008573ffffffffffffffffffffffffffffffffffffffff1673ffffffffffffffffffffffffffffffffffffffff168152602001908152602001600020819055508273ffffffffffffffffffffffffffffffffffffffff163373ffffffffffffffffffffffffffffffffffffffff167f8c5be1e5ebec7d5bd14f71427d1e84f3dd0314c0f7b2291e5b200ac8c7c3b925600160003373ffffffffffffffffffffffffffffffffffffffff1673ffffffffffffffffffffffffffffffffffffffff16815260200190815260200160002060008773ffffffffffffffffffffffffffffffffffffffff1673ffffffffffffffffffffffffffffffffffffffff168152602001908152602001600020546040518082815260200191505060405180910390a36001905092915050565b60008073ffffffffffffffffffffffffffffffffffffffff168373ffffffffffffffffffffffffffffffffffffffff161480156124855750600082145b905092915050565b600860019054906101000a900460ff16806124ac57506124ab613083565b5b806124c45750600860009054906101000a900460ff16155b151561251b576040517f08c379a000000000000000000000000000000000000000000000000000000000815260040180806020018281038252602e81526020018061343a602e913960400191505060405180910390fd5b6000600860019054906101000a900460ff1690506001600860016101000a81548160ff0219169083151502179055506001600860006101000a81548160ff02191690831515021790555081603b60006101000a81548173ffffffffffffffffffffffffffffffffffffffff021916908373ffffffffffffffffffffffffffffffffffffffff160217905550603b60009054906101000a900473ffffffffffffffffffffffffffffffffffffffff1673ffffffffffffffffffffffffffffffffffffffff16600073ffffffffffffffffffffffffffffffffffffffff167f8be0079c531659141344cd1fd0a4f28419497f9722a3daafe3b4186f6b6457e060405160405180910390a380600860016101000a81548160ff0219169083151502179055505050565b6103e881565b600080606e60008473ffffffffffffffffffffffffffffffffffffffff1673ffffffffffffffffffffffffffffffffffffffff16815260200190815260200160002054141580156126d6575042606e60008473ffffffffffffffffffffffffffffffffffffffff1673ffffffffffffffffffffffffffffffffffffffff16815260200190815260200160002054115b9050919050565b6000607560009054906101000a900473ffffffffffffffffffffffffffffffffffffffff1673ffffffffffffffffffffffffffffffffffffffff16630a9a3f07306040518263ffffffff167c0100000000000000000000000000000000000000000000000000000000028152600401808273ffffffffffffffffffffffffffffffffffffffff1673ffffffffffffffffffffffffffffffffffffffff16815260200191505060206040518083038186803b15801561279a57600080fd5b505afa1580156127ae573d6000803e3d6000fd5b505050506040513d60208110156127c457600080fd5b8101908080519060200190929190505050905090565b6127e26121b9565b15156127ed57600080fd5b607560009054906101000a900473ffffffffffffffffffffffffffffffffffffffff1673ffffffffffffffffffffffffffffffffffffffff1663d66d9e196040518163ffffffff167c0100000000000000000000000000000000000000000000000000000000028152600401602060405180830381600087803b15801561287357600080fd5b505af1158015612887573d6000803e3d6000fd5b505050506040513d602081101561289d57600080fd5b810190808051906020019092919050505050565b6000606e60008373ffffffffffffffffffffffffffffffffffffffff1673ffffffffffffffffffffffffffffffffffffffff168152602001908152602001600020549050919050565b6000600160008473ffffffffffffffffffffffffffffffffffffffff1673ffffffffffffffffffffffffffffffffffffffff16815260200190815260200160002060008373ffffffffffffffffffffffffffffffffffffffff1673ffffffffffffffffffffffffffffffffffffffff16815260200190815260200160002054905092915050565b612989612d8f565b6000339050600061299982612dcb565b9050607460009054906101000a900473ffffffffffffffffffffffffffffffffffffffff1673ffffffffffffffffffffffffffffffffffffffff166323b872dd8330866040518463ffffffff167c0100000000000000000000000000000000000000000000000000000000028152600401808473ffffffffffffffffffffffffffffffffffffffff1673ffffffffffffffffffffffffffffffffffffffff1681526020018373ffffffffffffffffffffffffffffffffffffffff1673ffffffffffffffffffffffffffffffffffffffff1681526020018281526020019350505050602060405180830381600087803b158015612a9457600080fd5b505af1158015612aa8573d6000803e3d6000fd5b505050506040513d6020811015612abe57600080fd5b810190808051906020019092919050505050612ada8284613094565b612ae48282612f93565b612aed826131e8565b505050565b6000606f54905090565b6000339050612b0a81613233565b50565b60715481565b612b1b6121b9565b1515612b2657600080fd5b612b2f8161333d565b50565b60035481565b6000828211151515612b4957600080fd5b600082840390508091505092915050565b6000808284019050838110151515612b7157600080fd5b8091505092915050565b600080831415612b8e5760009050612bb3565b60008284029050828482811515612ba157fe5b04141515612bae57600080fd5b809150505b92915050565b600073ffffffffffffffffffffffffffffffffffffffff168273ffffffffffffffffffffffffffffffffffffffff1614151515612bf557600080fd5b612c46816000808673ffffffffffffffffffffffffffffffffffffffff1673ffffffffffffffffffffffffffffffffffffffff16815260200190815260200160002054612b3890919063ffffffff16565b6000808573ffffffffffffffffffffffffffffffffffffffff1673ffffffffffffffffffffffffffffffffffffffff16815260200190815260200160002081905550612cd9816000808573ffffffffffffffffffffffffffffffffffffffff1673ffffffffffffffffffffffffffffffffffffffff16815260200190815260200160002054612b5a90919063ffffffff16565b6000808473ffffffffffffffffffffffffffffffffffffffff1673ffffffffffffffffffffffffffffffffffffffff168152602001908152602001600020819055508173ffffffffffffffffffffffffffffffffffffffff168373ffffffffffffffffffffffffffffffffffffffff167fddf252ad1be2c89b69c2b068fc378daa952ba7f163c4a11628f55a4df523b3ef836040518082815260200191505060405180910390a3505050565b80606f8190555050565b612d97610d36565b60066000600560008491905055839190505550503073ffffffffffffffffffffffffffffffffffffffff1631600781905550565b6000600460008373ffffffffffffffffffffffffffffffffffffffff1673ffffffffffffffffffffffffffffffffffffffff168152602001908152602001600020546103e8612e2d600554612e1f86611d63565b612b7b90919063ffffffff16565b811515612e3657fe5b04039050919050565b600073ffffffffffffffffffffffffffffffffffffffff168273ffffffffffffffffffffffffffffffffffffffff1614151515612e7b57600080fd5b612e9081600254612b3890919063ffffffff16565b600281905550612ee7816000808573ffffffffffffffffffffffffffffffffffffffff1673ffffffffffffffffffffffffffffffffffffffff16815260200190815260200160002054612b3890919063ffffffff16565b6000808473ffffffffffffffffffffffffffffffffffffffff1673ffffffffffffffffffffffffffffffffffffffff16815260200190815260200160002081905550600073ffffffffffffffffffffffffffffffffffffffff168273ffffffffffffffffffffffffffffffffffffffff167fddf252ad1be2c89b69c2b068fc378daa952ba7f163c4a11628f55a4df523b3ef836040518082815260200191505060405180910390a35050565b806103e8612fb4600554612fa686611d63565b612b7b90919063ffffffff16565b811515612fbd57fe5b0403600460008473ffffffffffffffffffffffffffffffffffffffff1673ffffffffffffffffffffffffffffffffffffffff168152602001908152602001600020819055505050565b61300e612d8f565b60006006549050600060068190555061303281600754612b3890919063ffffffff16565b6007819055508173ffffffffffffffffffffffffffffffffffffffff166108fc829081150290604051600060405180830381858888f1935050505015801561307e573d6000803e3d6000fd5b505050565b600080303b90506000811491505090565b600073ffffffffffffffffffffffffffffffffffffffff168273ffffffffffffffffffffffffffffffffffffffff16141515156130d057600080fd5b6130e581600254612b5a90919063ffffffff16565b60028190555061313c816000808573ffffffffffffffffffffffffffffffffffffffff1673ffffffffffffffffffffffffffffffffffffffff16815260200190815260200160002054612b5a90919063ffffffff16565b6000808473ffffffffffffffffffffffffffffffffffffffff1673ffffffffffffffffffffffffffffffffffffffff168152602001908152602001600020819055508173ffffffffffffffffffffffffffffffffffffffff16600073ffffffffffffffffffffffffffffffffffffffff167fddf252ad1be2c89b69c2b068fc378daa952ba7f163c4a11628f55a4df523b3ef836040518082815260200191505060405180910390a35050565b606f544201606e60008373ffffffffffffffffffffffffffffffffffffffff1673ffffffffffffffffffffffffffffffffffffffff1681526020019081526020016000208190555050565b61323b612d8f565b600061324682612dcb565b905080600460008473ffffffffffffffffffffffffffffffffffffffff1673ffffffffffffffffffffffffffffffffffffffff1681526020019081526020016000205401600460008473ffffffffffffffffffffffffffffffffffffffff1673ffffffffffffffffffffffffffffffffffffffff168152602001908152602001600020819055506132e281600754612b3890919063ffffffff16565b6007819055506132f182612dcb565b508173ffffffffffffffffffffffffffffffffffffffff166108fc829081150290604051600060405180830381858888f19350505050158015613338573d6000803e3d6000fd5b505050565b600073ffffffffffffffffffffffffffffffffffffffff168173ffffffffffffffffffffffffffffffffffffffff161415151561337957600080fd5b8073ffffffffffffffffffffffffffffffffffffffff16603b60009054906101000a900473ffffffffffffffffffffffffffffffffffffffff1673ffffffffffffffffffffffffffffffffffffffff167f8be0079c531659141344cd1fd0a4f28419497f9722a3daafe3b4186f6b6457e060405160405180910390a380603b60006101000a81548173ffffffffffffffffffffffffffffffffffffffff021916908373ffffffffffffffffffffffffffffffffffffffff1602179055505056fe436f6e747261637420696e7374616e63652068617320616c7265616479206265656e20696e697469616c697a6564a165627a7a7230582001243142e2d69b69e293b1c7326549f077f84e8fdbf3b0ee6493e1dafdba181c0029436f6e747261637420696e7374616e63652068617320616c7265616479206265656e20696e697469616c697a6564",
  "source": "pragma solidity ^0.5.0;\r\n\r\nimport \"./../../node_modules/openzeppelin-eth/contracts/ownership/Ownable.sol\";\r\nimport \"./CoinShare.sol\";\r\nimport \"./Lockable.sol\";\r\n\r\nimport \"./interfaces/GovI.sol\";\r\nimport \"./interfaces/NtfTokenI.sol\";\r\n\r\ncontract NtfPool is CoinShare, Ownable, Lockable {\r\n    // nty per pool token\r\n    uint256 public MAX_LOCK_DURATION; // = 30 days;\r\n    uint256 public OWNER_ACTION_DELAY; // = 7 days;\r\n\r\n    uint256 lastActionTime;\r\n    uint256 public npt;\r\n\r\n    NtfTokenI public ntfToken;\r\n    GovI public gov;\r\n\r\n    modifier delayPast() {\r\n        require(block.timestamp > lastActionTime + OWNER_ACTION_DELAY, \"dont change to quick\");\r\n        _;\r\n    }\r\n\r\n    modifier validLockDuration(uint256 _lockDuration) {\r\n        require(_lockDuration <= MAX_LOCK_DURATION, \"dont lock too long\");\r\n        _;\r\n    }\r\n\r\n    function () external payable {}\r\n    \r\n    constructor\r\n    (\r\n        address _owner,\r\n        address _ntfAddress,\r\n        address _govAddress,\r\n        uint256 _TAX_PERCENT,\r\n        uint256 _MAX_LOCK_DURATION,\r\n        uint256 _OWNER_ACTION_DELAY\r\n    )\r\n        public\r\n    {\r\n        ntfToken = NtfTokenI(_ntfAddress);\r\n        gov = GovI(_govAddress);\r\n        require(_TAX_PERCENT >= 0 && _TAX_PERCENT <= 100, \"invalid tax percent\");\r\n        TAX_PERCENT = _TAX_PERCENT;\r\n        MAX_LOCK_DURATION = _MAX_LOCK_DURATION;\r\n        OWNER_ACTION_DELAY = _OWNER_ACTION_DELAY;\r\n        initialize(_owner);\r\n    }\r\n\r\n    // owner function\r\n    // function deposit(uint256 _amount) external returns (bool);\r\n    // function join(address _signer) external returns (bool);\r\n    // function leave() external returns (bool);\r\n    // function withdraw() external returns (bool);\r\n\r\n    function join(\r\n        uint256 _amount,\r\n        address _signer\r\n    )\r\n        public\r\n        onlyOwner()\r\n    {\r\n        ntfToken.approve(address(gov), _amount);\r\n        gov.deposit(_amount);\r\n        gov.join(_signer);\r\n    }\r\n\r\n    function leave()\r\n        public\r\n        onlyOwner()\r\n    {\r\n        gov.leave();\r\n    }\r\n\r\n    function tokenPoolWithdraw()\r\n        public\r\n        onlyOwner()\r\n    {\r\n        gov.withdraw();\r\n    }\r\n\r\n    function fundWithdraw(\r\n        address payable _toAddress\r\n    )\r\n        public\r\n        onlyOwner()\r\n    {\r\n        _fundWithdraw(_toAddress);\r\n    }\r\n\r\n    function setLockDuration(\r\n        uint256 _lockDuration\r\n    )\r\n        public\r\n        onlyOwner()\r\n        delayPast()\r\n        validLockDuration(_lockDuration)\r\n    {\r\n        lastActionTime = block.timestamp;\r\n        _setLockDuration(_lockDuration);\r\n    }\r\n\r\n    // members function\r\n    function tokenDeposit(\r\n        uint256 _amount\r\n    )\r\n            public\r\n    {\r\n        _updateFundCpt();\r\n        address _sender = msg.sender;\r\n        uint256 _coinBalance = coinOf(_sender);\r\n        ntfToken.transferFrom(_sender, address(this), _amount);\r\n        _mint(_sender, _amount);\r\n        _updateCredit(_sender, _coinBalance);\r\n        _lock(_sender);\r\n    }\r\n\r\n    function tokenMemberWithdraw(\r\n        uint256 _amount\r\n    )\r\n        public\r\n        notLocking()\r\n    {\r\n        _updateFundCpt();\r\n        address _sender = msg.sender;\r\n        uint256 _coinBalance = coinOf(_sender);\r\n        _burn(_sender, _amount);\r\n        ntfToken.transfer(_sender, _amount);\r\n        _updateCredit(_sender, _coinBalance);\r\n    }\r\n\r\n    function coinWithdraw()\r\n        public\r\n    {\r\n        address payable _sender = msg.sender;\r\n        _coinWithdraw(_sender);\r\n    }\r\n\r\n    // Read Functions\r\n\r\n    // deployed NtfToken contract\r\n    function getPoolNtfBalance()\r\n        public\r\n        view\r\n        returns(uint256)\r\n    {\r\n        return ntfToken.balanceOf(address(this));\r\n    }\r\n\r\n    //  CoinShare contract\r\n    // function getCpt() public view returns(uint256)\r\n    // function getFund() public view returns(uint256)\r\n    // function getCoinOf(address _member) public view returns(uint256)\r\n\r\n    // Lockable contract\r\n    // function getUnlockTime(address _member) public view returns(uint256)\r\n    // function isLocking(address _member) public view returns(bool)\r\n    // function getLockDuration() public view returns(uint256)\r\n\r\n    function getStatus()\r\n        public\r\n        view\r\n        returns(uint256)\r\n    {\r\n        return gov.getStatus(address(this));\r\n    }\r\n\r\n    function getBalance()\r\n        public\r\n        view\r\n        returns(uint256)\r\n    {\r\n        return gov.getBalance(address(this));\r\n    }\r\n\r\n    function getCoinbase()\r\n        public\r\n        view\r\n        returns(address)\r\n    {\r\n        return gov.getCoinbase(address(this));\r\n    }\r\n\r\n    function getUnlockHeight()\r\n        public\r\n        view\r\n        returns(uint256)\r\n    {\r\n        return gov.getUnlockHeight(address(this));\r\n    }\r\n\r\n    function isWithdrawable()\r\n        external\r\n        view\r\n        returns(bool)\r\n    {\r\n        return gov.isWithdrawable(address(this));\r\n    }\r\n\r\n/*\r\n    TEST TEST TEST TEST TEST TEST TEST TEST TEST \r\n*/\r\n    // send nty to contract as Reward from Core\r\n    function virtuellMining()\r\n        public\r\n        payable\r\n    {\r\n\r\n    }\r\n}",
  "sourcePath": "C:\\Users\\bestb\\Desktop\\workshop\\sealing-pool\\contracts\\ntfPool\\NtfPool.sol",
  "compiler": {
    "name": "solc",
    "version": "0.5.2+commit.1df8f40c.Emscripten.clang"
  },
  "schemaVersion": "3.0.6",
  "updatedAt": "2019-05-21T03:32:12.190Z",
  "devdoc": {
    "methods": {
      "allowance(address,address)": {
        "details": "Function to check the amount of tokens that an owner allowed to a spender.",
        "params": {
          "owner": "address The address which owns the funds.",
          "spender": "address The address which will spend the funds."
        },
        "return": "A uint256 specifying the amount of tokens still available for the spender."
      },
      "approve(address,uint256)": {
        "details": "Approve the passed address to spend the specified amount of tokens on behalf of msg.sender. Beware that changing an allowance with this method brings the risk that someone may use both the old and the new allowance by unfortunate transaction ordering. One possible solution to mitigate this race condition is to first reduce the spender's allowance to 0 and set the desired value afterwards: https://github.com/ethereum/EIPs/issues/20#issuecomment-263524729",
        "params": {
          "spender": "The address which will spend the funds.",
          "value": "The amount of tokens to be spent."
        }
      },
      "balanceOf(address)": {
        "details": "Gets the balance of the specified address.",
        "params": {
          "owner": "The address to query the balance of."
        },
        "return": "An uint256 representing the amount owned by the passed address."
      },
      "decreaseAllowance(address,uint256)": {
        "details": "Decrease the amount of tokens that an owner allowed to a spender. approve should be called when allowed_[_spender] == 0. To decrement allowed value is better to use this function to avoid 2 calls (and wait until the first transaction is mined) From MonolithDAO Token.sol Emits an Approval event.",
        "params": {
          "spender": "The address which will spend the funds.",
          "subtractedValue": "The amount of tokens to decrease the allowance by."
        }
      },
      "increaseAllowance(address,uint256)": {
        "details": "Increase the amount of tokens that an owner allowed to a spender. approve should be called when allowed_[_spender] == 0. To increment allowed value is better to use this function to avoid 2 calls (and wait until the first transaction is mined) From MonolithDAO Token.sol Emits an Approval event.",
        "params": {
          "addedValue": "The amount of tokens to increase the allowance by.",
          "spender": "The address which will spend the funds."
        }
      },
      "initialize(address)": {
        "details": "The Ownable constructor sets the original `owner` of the contract to the sender account."
      },
      "isOwner()": {
        "return": "true if `msg.sender` is the owner of the contract."
      },
      "owner()": {
        "return": "the address of the owner."
      },
      "renounceOwnership()": {
        "details": "Allows the current owner to relinquish control of the contract."
      },
      "totalSupply()": {
        "details": "Total number of tokens in existence"
      },
      "transferFrom(address,address,uint256)": {
        "details": "Transfer tokens from one address to another. Note that while this function emits an Approval event, this is not required as per the specification, and other compliant implementations may not emit the event.",
        "params": {
          "from": "address The address which you want to send tokens from",
          "to": "address The address which you want to transfer to",
          "value": "uint256 the amount of tokens to be transferred"
        }
      },
      "transferOwnership(address)": {
        "details": "Allows the current owner to transfer control of the contract to a newOwner.",
        "params": {
          "newOwner": "The address to transfer ownership to."
        }
      }
    }
  },
  "userdoc": {
    "methods": {
      "renounceOwnership()": {
        "notice": "Renouncing to ownership will leave the contract without an owner. It will not be possible to call the functions with the `onlyOwner` modifier anymore."
      }
    }
  }
}