{
  "contractName": "PoolDesc",
  "abi": [
    {
      "constant": true,
      "inputs": [],
      "name": "name",
      "outputs": [
        {
          "name": "",
          "type": "string"
        }
      ],
      "payable": false,
      "stateMutability": "view",
      "type": "function"
    },
    {
      "constant": true,
      "inputs": [],
      "name": "location",
      "outputs": [
        {
          "name": "",
          "type": "string"
        }
      ],
      "payable": false,
      "stateMutability": "view",
      "type": "function"
    },
    {
      "constant": true,
      "inputs": [],
      "name": "website",
      "outputs": [
        {
          "name": "",
          "type": "string"
        }
      ],
      "payable": false,
      "stateMutability": "view",
      "type": "function"
    },
    {
      "constant": true,
      "inputs": [],
      "name": "logo",
      "outputs": [
        {
          "name": "",
          "type": "string"
        }
      ],
      "payable": false,
      "stateMutability": "view",
      "type": "function"
    },
    {
      "inputs": [
        {
          "name": "_name",
          "type": "string"
        },
        {
          "name": "_website",
          "type": "string"
        },
        {
          "name": "_location",
          "type": "string"
        },
        {
          "name": "_logo",
          "type": "string"
        }
      ],
      "payable": false,
      "stateMutability": "nonpayable",
      "type": "constructor"
    },
    {
      "constant": false,
      "inputs": [
        {
          "name": "_name",
          "type": "string"
        },
        {
          "name": "_website",
          "type": "string"
        },
        {
          "name": "_location",
          "type": "string"
        },
        {
          "name": "_logo",
          "type": "string"
        }
      ],
      "name": "updateDesc",
      "outputs": [],
      "payable": false,
      "stateMutability": "nonpayable",
      "type": "function"
    }
  ],
  "bytecode": "0x60806040523480156200001157600080fd5b5060405162000b6038038062000b60833981018060405260808110156200003757600080fd5b8101908080516401000000008111156200005057600080fd5b828101905060208101848111156200006757600080fd5b81518560018202830111640100000000821117156200008557600080fd5b50509291906020018051640100000000811115620000a257600080fd5b82810190506020810184811115620000b957600080fd5b8151856001820283011164010000000082111715620000d757600080fd5b50509291906020018051640100000000811115620000f457600080fd5b828101905060208101848111156200010b57600080fd5b81518560018202830111640100000000821117156200012957600080fd5b505092919060200180516401000000008111156200014657600080fd5b828101905060208101848111156200015d57600080fd5b81518560018202830111640100000000821117156200017b57600080fd5b505092919050505083600090805190602001906200019b929190620001f1565b508260019080519060200190620001b4929190620001f1565b508160029080519060200190620001cd929190620001f1565b508060039080519060200190620001e6929190620001f1565b5050505050620002a0565b828054600181600116156101000203166002900490600052602060002090601f016020900481019282601f106200023457805160ff191683800117855562000265565b8280016001018555821562000265579182015b828111156200026457825182559160200191906001019062000247565b5b50905062000274919062000278565b5090565b6200029d91905b80821115620002995760008160009055506001016200027f565b5090565b90565b6108b080620002b06000396000f3fe608060405234801561001057600080fd5b5060043610610074576000357c01000000000000000000000000000000000000000000000000000000009004806306fdde0314610079578063516f279e146100fc578063beb0a4161461017f578063e06d12fc14610202578063fb7f21eb14610482575b600080fd5b610081610505565b6040518080602001828103825283818151815260200191508051906020019080838360005b838110156100c15780820151818401526020810190506100a6565b50505050905090810190601f1680156100ee5780820380516001836020036101000a031916815260200191505b509250505060405180910390f35b6101046105a3565b6040518080602001828103825283818151815260200191508051906020019080838360005b83811015610144578082015181840152602081019050610129565b50505050905090810190601f1680156101715780820380516001836020036101000a031916815260200191505b509250505060405180910390f35b610187610641565b6040518080602001828103825283818151815260200191508051906020019080838360005b838110156101c75780820151818401526020810190506101ac565b50505050905090810190601f1680156101f45780820380516001836020036101000a031916815260200191505b509250505060405180910390f35b6104806004803603608081101561021857600080fd5b810190808035906020019064010000000081111561023557600080fd5b82018360208201111561024757600080fd5b8035906020019184600183028401116401000000008311171561026957600080fd5b91908080601f016020809104026020016040519081016040528093929190818152602001838380828437600081840152601f19601f820116905080830192505050505050509192919290803590602001906401000000008111156102cc57600080fd5b8201836020820111156102de57600080fd5b8035906020019184600183028401116401000000008311171561030057600080fd5b91908080601f016020809104026020016040519081016040528093929190818152602001838380828437600081840152601f19601f8201169050808301925050505050505091929192908035906020019064010000000081111561036357600080fd5b82018360208201111561037557600080fd5b8035906020019184600183028401116401000000008311171561039757600080fd5b91908080601f016020809104026020016040519081016040528093929190818152602001838380828437600081840152601f19601f820116905080830192505050505050509192919290803590602001906401000000008111156103fa57600080fd5b82018360208201111561040c57600080fd5b8035906020019184600183028401116401000000008311171561042e57600080fd5b91908080601f016020809104026020016040519081016040528093929190818152602001838380828437600081840152601f19601f8201169050808301925050505050505091929192905050506106df565b005b61048a610741565b6040518080602001828103825283818151815260200191508051906020019080838360005b838110156104ca5780820151818401526020810190506104af565b50505050905090810190601f1680156104f75780820380516001836020036101000a031916815260200191505b509250505060405180910390f35b60008054600181600116156101000203166002900480601f01602080910402602001604051908101604052809291908181526020018280546001816001161561010002031660029004801561059b5780601f106105705761010080835404028352916020019161059b565b820191906000526020600020905b81548152906001019060200180831161057e57829003601f168201915b505050505081565b60028054600181600116156101000203166002900480601f0160208091040260200160405190810160405280929190818152602001828054600181600116156101000203166002900480156106395780601f1061060e57610100808354040283529160200191610639565b820191906000526020600020905b81548152906001019060200180831161061c57829003601f168201915b505050505081565b60018054600181600116156101000203166002900480601f0160208091040260200160405190810160405280929190818152602001828054600181600116156101000203166002900480156106d75780601f106106ac576101008083540402835291602001916106d7565b820191906000526020600020905b8154815290600101906020018083116106ba57829003601f168201915b505050505081565b83600090805190602001906106f59291906107df565b50826001908051906020019061070c9291906107df565b5081600290805190602001906107239291906107df565b50806003908051906020019061073a9291906107df565b5050505050565b60038054600181600116156101000203166002900480601f0160208091040260200160405190810160405280929190818152602001828054600181600116156101000203166002900480156107d75780601f106107ac576101008083540402835291602001916107d7565b820191906000526020600020905b8154815290600101906020018083116107ba57829003601f168201915b505050505081565b828054600181600116156101000203166002900490600052602060002090601f016020900481019282601f1061082057805160ff191683800117855561084e565b8280016001018555821561084e579182015b8281111561084d578251825591602001919060010190610832565b5b50905061085b919061085f565b5090565b61088191905b8082111561087d576000816000905550600101610865565b5090565b9056fea165627a7a7230582067ab1f3bd4e771963ebf7707a0319380ffb36678d6d65c54d92ecde51a9b7c340029",
  "source": "pragma solidity ^0.5.0;\n\nimport \"./../../node_modules/openzeppelin-eth/contracts/ownership/Ownable.sol\";\nimport \"./CoinShare.sol\";\nimport \"./Request.sol\";\n\nimport \"./interfaces/GovI.sol\";\nimport \"./interfaces/NtfTokenI.sol\";\n\ncontract PoolDesc {\n    string public name;\n    string public website;\n    string public location;\n    string public logo;\n\n    constructor (\n        string memory _name,\n        string memory _website,\n        string memory _location,\n        string memory _logo\n    ) public {\n        name = _name;\n        website = _website;\n        location = _location;\n        logo = _logo;\n    }\n\n    function updateDesc(string memory _name, string memory _website, string memory _location, string memory _logo) public {\n        name = _name;\n        website = _website;\n        location = _location;\n        logo = _logo;\n    }\n}\n\ncontract NtfPool is PoolDesc, CoinShare, Ownable, Request {\n    uint256 public OWNER_ACTION_DELAY; // = 7 days;\n\n    uint256 lastActionTime;\n\n    NtfTokenI public ntfToken;\n    GovI public gov;\n\n    modifier delayPast() {\n        require(block.timestamp > lastActionTime + OWNER_ACTION_DELAY, \"dont change to quick\");\n        _;\n    }\n\n    function () external payable {}\n\n    constructor\n    (\n        address _owner,\n        address _ntfAddress,\n        address _govAddress,\n        uint256 _COMPRATE,\n        uint256 _MAX_LOCK_DURATION,\n        uint256 _OWNER_ACTION_DELAY,\n        string memory _name,\n        string memory _website,\n        string memory _location,\n        string memory _logo\n    )\n        public\n        PoolDesc(_name, _website, _location, _logo)\n    {\n        ntfToken = NtfTokenI(_ntfAddress);\n        gov = GovI(_govAddress);\n        require(_COMPRATE >= 0 && _COMPRATE <= 100, \"invalid compensation rate\");\n        COMPRATE = _COMPRATE;\n        MAX_LOCK_DURATION = _MAX_LOCK_DURATION;\n        _setLockDuration(60);\n        OWNER_ACTION_DELAY = _OWNER_ACTION_DELAY;\n        initialize(_owner);\n    }\n\n    // owner function\n    // function deposit(uint256 _amount) external returns (bool);\n    // function join(address _signer) external returns (bool);\n    // function leave() external returns (bool);\n    // function withdraw() external returns (bool);\n\n    function join(\n        uint256 _amount,\n        address _signer\n    )\n        public\n        onlyOwner()\n    {\n        require(_amount.add(pendingOutSum) <= getPoolNtfBalance(), \"not enough to join\");\n        ntfToken.approve(address(gov), _amount);\n        gov.deposit(_amount);\n        gov.join(_signer);\n    }\n\n    function _leave()\n        internal\n    {\n        gov.leave();\n    }\n\n    function leave()\n        public\n        onlyOwner()\n    {\n        _leave();\n    }\n\n    function tokenPoolWithdraw()\n        public\n        //onlyOwner()\n    {\n        gov.withdraw();\n    }\n\n    function fundWithdraw(\n        address payable _toAddress\n    )\n        public\n        onlyOwner()\n    {\n        _fundWithdraw(_toAddress);\n    }\n\n    function setLockDuration(\n        uint256 _lockDuration\n    )\n        public\n        onlyOwner()\n        delayPast()\n    {\n        lastActionTime = block.timestamp;\n        _setLockDuration(_lockDuration);\n    }\n\n    function updateComRate(\n        uint256 _COMPRATE\n    )\n        public\n        onlyOwner()\n        delayPast()\n    {\n        lastActionTime = block.timestamp;\n        _updateComRate(_COMPRATE);\n    }\n\n    // members function\n    function requestOut(\n        uint256 _amount\n    )\n        public\n    {\n        _updateFundCpt();\n        address payable _sender = msg.sender;\n        _coinWithdraw(_sender);\n        uint256 _added = _requestOut(_sender, _amount);\n        _burn(_sender, _added);\n        _updateCredit(_sender, 0);\n    }\n\n    function tokenDeposit(\n        uint256 _amount\n    )\n            public\n    {\n        _updateFundCpt();\n        address _sender = msg.sender;\n        uint256 _coinBalance = coinOf(_sender);\n        ntfToken.transferFrom(_sender, address(this), _amount);\n        _mint(_sender, _amount);\n        _updateCredit(_sender, _coinBalance);\n    }\n\n    function tokenMemberWithdraw(\n    )\n        public\n        notLocking()\n    {\n        address _sender = msg.sender;\n        uint256 _amount = pendingOut[_sender];\n        if (_amount > getPoolNtfBalance()) {\n            _leave();\n            return;\n        }\n        ntfToken.transfer(_sender, _amount);\n        _removeRequest(_sender);\n    }\n\n    function coinWithdraw()\n        public\n    {\n        address payable _sender = msg.sender;\n        _coinWithdraw(_sender);\n    }\n\n    // Read Functions\n\n    // deployed NtfToken contract\n    function getPoolNtfBalance()\n        public\n        view\n        returns(uint256)\n    {\n        return ntfToken.balanceOf(address(this));\n    }\n\n    //  CoinShare contract\n    // function getCpt() public view returns(uint256)\n    // function getFund() public view returns(uint256)\n    // function getCoinOf(address _member) public view returns(uint256)\n\n    // Lockable contract\n    // function getUnlockTime(address _member) public view returns(uint256)\n    // function isLocking(address _member) public view returns(bool)\n    // function getLockDuration() public view returns(uint256)\n\n    function getStatus()\n        public\n        view\n        returns(uint256)\n    {\n        return gov.getStatus(address(this));\n    }\n\n    function getPoolGovBalance()\n        public\n        view\n        returns(uint256)\n    {\n        return gov.getBalance(address(this));\n    }\n\n    function getCoinbase()\n        public\n        view\n        returns(address)\n    {\n        return gov.getCoinbase(address(this));\n    }\n\n    function getUnlockHeight()\n        public\n        view\n        returns(uint256)\n    {\n        return gov.getUnlockHeight(address(this));\n    }\n\n    function isWithdrawable()\n        external\n        view\n        returns(bool)\n    {\n        return gov.isWithdrawable(address(this));\n    }\n}",
  "sourcePath": "/home/dathoang/Documents/Project/sealing-pool/contracts/ntfPool/NtfPool.sol",
  "compiler": {
    "name": "solc",
    "version": "0.5.2+commit.1df8f40c.Emscripten.clang"
  },
  "schemaVersion": "3.0.14",
  "updatedAt": "2020-04-24T09:37:24.285Z",
  "devdoc": {
    "methods": {}
  },
  "userdoc": {
    "methods": {}
  }
}