{
  "contractName": "PoolDesc",
  "abi": [
    {
      "constant": true,
      "inputs": [],
      "name": "name",
      "outputs": [
        {
          "name": "",
          "type": "string"
        }
      ],
      "payable": false,
      "stateMutability": "view",
      "type": "function"
    },
    {
      "constant": true,
      "inputs": [],
      "name": "location",
      "outputs": [
        {
          "name": "",
          "type": "string"
        }
      ],
      "payable": false,
      "stateMutability": "view",
      "type": "function"
    },
    {
      "constant": true,
      "inputs": [],
      "name": "email",
      "outputs": [
        {
          "name": "",
          "type": "string"
        }
      ],
      "payable": false,
      "stateMutability": "view",
      "type": "function"
    },
    {
      "constant": true,
      "inputs": [],
      "name": "profile",
      "outputs": [
        {
          "name": "",
          "type": "string"
        }
      ],
      "payable": false,
      "stateMutability": "view",
      "type": "function"
    },
    {
      "constant": true,
      "inputs": [],
      "name": "website",
      "outputs": [
        {
          "name": "",
          "type": "string"
        }
      ],
      "payable": false,
      "stateMutability": "view",
      "type": "function"
    },
    {
      "inputs": [
        {
          "name": "_name",
          "type": "string"
        },
        {
          "name": "_website",
          "type": "string"
        },
        {
          "name": "_location",
          "type": "string"
        },
        {
          "name": "_profile",
          "type": "string"
        }
      ],
      "payable": false,
      "stateMutability": "nonpayable",
      "type": "constructor"
    }
  ],
  "bytecode": "0x608060405234801561001057600080fd5b506040516109103803806109108339810180604052608081101561003357600080fd5b81019080805164010000000081111561004b57600080fd5b8281019050602081018481111561006157600080fd5b815185600182028301116401000000008211171561007e57600080fd5b5050929190602001805164010000000081111561009a57600080fd5b828101905060208101848111156100b057600080fd5b81518560018202830111640100000000821117156100cd57600080fd5b505092919060200180516401000000008111156100e957600080fd5b828101905060208101848111156100ff57600080fd5b815185600182028301116401000000008211171561011c57600080fd5b5050929190602001805164010000000081111561013857600080fd5b8281019050602081018481111561014e57600080fd5b815185600182028301116401000000008211171561016b57600080fd5b505092919050505083600090805190602001906101899291906101d8565b5082600190805190602001906101a09291906101d8565b5081600290805190602001906101b79291906101d8565b5080600490805190602001906101ce9291906101d8565b505050505061027d565b828054600181600116156101000203166002900490600052602060002090601f016020900481019282601f1061021957805160ff1916838001178555610247565b82800160010185558215610247579182015b8281111561024657825182559160200191906001019061022b565b5b5090506102549190610258565b5090565b61027a91905b8082111561027657600081600090555060010161025e565b5090565b90565b6106848061028c6000396000f3fe60806040526004361061006d576000357c0100000000000000000000000000000000000000000000000000000000900463ffffffff16806306fdde0314610072578063516f279e14610102578063820e93f514610192578063ab60636c14610222578063beb0a416146102b2575b600080fd5b34801561007e57600080fd5b50610087610342565b6040518080602001828103825283818151815260200191508051906020019080838360005b838110156100c75780820151818401526020810190506100ac565b50505050905090810190601f1680156100f45780820380516001836020036101000a031916815260200191505b509250505060405180910390f35b34801561010e57600080fd5b506101176103e0565b6040518080602001828103825283818151815260200191508051906020019080838360005b8381101561015757808201518184015260208101905061013c565b50505050905090810190601f1680156101845780820380516001836020036101000a031916815260200191505b509250505060405180910390f35b34801561019e57600080fd5b506101a761047e565b6040518080602001828103825283818151815260200191508051906020019080838360005b838110156101e75780820151818401526020810190506101cc565b50505050905090810190601f1680156102145780820380516001836020036101000a031916815260200191505b509250505060405180910390f35b34801561022e57600080fd5b5061023761051c565b6040518080602001828103825283818151815260200191508051906020019080838360005b8381101561027757808201518184015260208101905061025c565b50505050905090810190601f1680156102a45780820380516001836020036101000a031916815260200191505b509250505060405180910390f35b3480156102be57600080fd5b506102c76105ba565b6040518080602001828103825283818151815260200191508051906020019080838360005b838110156103075780820151818401526020810190506102ec565b50505050905090810190601f1680156103345780820380516001836020036101000a031916815260200191505b509250505060405180910390f35b60008054600181600116156101000203166002900480601f0160208091040260200160405190810160405280929190818152602001828054600181600116156101000203166002900480156103d85780601f106103ad576101008083540402835291602001916103d8565b820191906000526020600020905b8154815290600101906020018083116103bb57829003601f168201915b505050505081565b60028054600181600116156101000203166002900480601f0160208091040260200160405190810160405280929190818152602001828054600181600116156101000203166002900480156104765780601f1061044b57610100808354040283529160200191610476565b820191906000526020600020905b81548152906001019060200180831161045957829003601f168201915b505050505081565b60038054600181600116156101000203166002900480601f0160208091040260200160405190810160405280929190818152602001828054600181600116156101000203166002900480156105145780601f106104e957610100808354040283529160200191610514565b820191906000526020600020905b8154815290600101906020018083116104f757829003601f168201915b505050505081565b60048054600181600116156101000203166002900480601f0160208091040260200160405190810160405280929190818152602001828054600181600116156101000203166002900480156105b25780601f10610587576101008083540402835291602001916105b2565b820191906000526020600020905b81548152906001019060200180831161059557829003601f168201915b505050505081565b60018054600181600116156101000203166002900480601f0160208091040260200160405190810160405280929190818152602001828054600181600116156101000203166002900480156106505780601f1061062557610100808354040283529160200191610650565b820191906000526020600020905b81548152906001019060200180831161063357829003601f168201915b50505050508156fea165627a7a723058209841fbb4ca02c1d465160654462d8a1275b67410f51c1e86ca232bd794fe61af0029",
  "source": "pragma solidity ^0.5.0;\r\n\r\nimport \"./../../node_modules/openzeppelin-eth/contracts/ownership/Ownable.sol\";\r\nimport \"./CoinShare.sol\";\r\nimport \"./Lockable.sol\";\r\n\r\nimport \"./interfaces/GovI.sol\";\r\nimport \"./interfaces/NtfTokenI.sol\";\r\n\r\ncontract PoolDesc {\r\n    string public name;\r\n    string public website;\r\n    string public location;\r\n    string public email;\r\n    string public profile;\r\n\r\n    constructor (\r\n        string memory _name,\r\n        string memory _website,\r\n        string memory _location,\r\n        string memory _profile\r\n    ) public {\r\n        name = _name;\r\n        website = _website;\r\n        location = _location;\r\n        profile = _profile;\r\n    }\r\n}\r\n\r\ncontract NtfPool is PoolDesc, CoinShare, Ownable, Lockable {\r\n    // nty per pool token\r\n    uint256 public MAX_LOCK_DURATION; // = 30 days;\r\n    uint256 public OWNER_ACTION_DELAY; // = 7 days;\r\n\r\n    uint256 lastActionTime;\r\n    uint256 public npt;\r\n\r\n    NtfTokenI public ntfToken;\r\n    GovI public gov;\r\n\r\n    modifier delayPast() {\r\n        require(block.timestamp > lastActionTime + OWNER_ACTION_DELAY, \"dont change to quick\");\r\n        _;\r\n    }\r\n\r\n    modifier validLockDuration(uint256 _lockDuration) {\r\n        require(_lockDuration <= MAX_LOCK_DURATION, \"dont lock too long\");\r\n        _;\r\n    }\r\n\r\n    function () external payable {}\r\n    \r\n    constructor\r\n    (\r\n        address _owner,\r\n        address _ntfAddress,\r\n        address _govAddress,\r\n        uint256 _COMPRATE,\r\n        uint256 _MAX_LOCK_DURATION,\r\n        uint256 _OWNER_ACTION_DELAY,\r\n        string memory _name,\r\n        string memory _website,\r\n        string memory _location,\r\n        string memory _profile\r\n    )\r\n        public\r\n        PoolDesc(_name, _website, _location, _profile)\r\n    {\r\n        ntfToken = NtfTokenI(_ntfAddress);\r\n        gov = GovI(_govAddress);\r\n        require(_COMPRATE >= 0 && _COMPRATE <= 100, \"invalid compensation rate\");\r\n        COMPRATE = _COMPRATE;\r\n        MAX_LOCK_DURATION = _MAX_LOCK_DURATION;\r\n        OWNER_ACTION_DELAY = _OWNER_ACTION_DELAY;\r\n        initialize(_owner);\r\n    }\r\n\r\n    // owner function\r\n    // function deposit(uint256 _amount) external returns (bool);\r\n    // function join(address _signer) external returns (bool);\r\n    // function leave() external returns (bool);\r\n    // function withdraw() external returns (bool);\r\n\r\n    function join(\r\n        uint256 _amount,\r\n        address _signer\r\n    )\r\n        public\r\n        onlyOwner()\r\n    {\r\n        ntfToken.approve(address(gov), _amount);\r\n        gov.deposit(_amount);\r\n        gov.join(_signer);\r\n    }\r\n\r\n    function leave()\r\n        public\r\n        onlyOwner()\r\n    {\r\n        gov.leave();\r\n    }\r\n\r\n    function tokenPoolWithdraw()\r\n        public\r\n        onlyOwner()\r\n    {\r\n        gov.withdraw();\r\n    }\r\n\r\n    function fundWithdraw(\r\n        address payable _toAddress\r\n    )\r\n        public\r\n        onlyOwner()\r\n    {\r\n        _fundWithdraw(_toAddress);\r\n    }\r\n\r\n    function setLockDuration(\r\n        uint256 _lockDuration\r\n    )\r\n        public\r\n        onlyOwner()\r\n        delayPast()\r\n        validLockDuration(_lockDuration)\r\n    {\r\n        lastActionTime = block.timestamp;\r\n        _setLockDuration(_lockDuration);\r\n    }\r\n\r\n    // members function\r\n    function tokenDeposit(\r\n        uint256 _amount\r\n    )\r\n            public\r\n    {\r\n        _updateFundCpt();\r\n        address _sender = msg.sender;\r\n        uint256 _coinBalance = coinOf(_sender);\r\n        ntfToken.transferFrom(_sender, address(this), _amount);\r\n        _mint(_sender, _amount);\r\n        _updateCredit(_sender, _coinBalance);\r\n        _lock(_sender);\r\n    }\r\n\r\n    function tokenMemberWithdraw(\r\n        uint256 _amount\r\n    )\r\n        public\r\n        notLocking()\r\n    {\r\n        _updateFundCpt();\r\n        address _sender = msg.sender;\r\n        uint256 _coinBalance = coinOf(_sender);\r\n        _burn(_sender, _amount);\r\n        ntfToken.transfer(_sender, _amount);\r\n        _updateCredit(_sender, _coinBalance);\r\n    }\r\n\r\n    function coinWithdraw()\r\n        public\r\n    {\r\n        address payable _sender = msg.sender;\r\n        _coinWithdraw(_sender);\r\n    }\r\n\r\n    // Read Functions\r\n\r\n    // deployed NtfToken contract\r\n    function getPoolNtfBalance()\r\n        public\r\n        view\r\n        returns(uint256)\r\n    {\r\n        return ntfToken.balanceOf(address(this));\r\n    }\r\n\r\n    //  CoinShare contract\r\n    // function getCpt() public view returns(uint256)\r\n    // function getFund() public view returns(uint256)\r\n    // function getCoinOf(address _member) public view returns(uint256)\r\n\r\n    // Lockable contract\r\n    // function getUnlockTime(address _member) public view returns(uint256)\r\n    // function isLocking(address _member) public view returns(bool)\r\n    // function getLockDuration() public view returns(uint256)\r\n\r\n    function getStatus()\r\n        public\r\n        view\r\n        returns(uint256)\r\n    {\r\n        return gov.getStatus(address(this));\r\n    }\r\n\r\n    function getBalance()\r\n        public\r\n        view\r\n        returns(uint256)\r\n    {\r\n        return gov.getBalance(address(this));\r\n    }\r\n\r\n    function getCoinbase()\r\n        public\r\n        view\r\n        returns(address)\r\n    {\r\n        return gov.getCoinbase(address(this));\r\n    }\r\n\r\n    function getUnlockHeight()\r\n        public\r\n        view\r\n        returns(uint256)\r\n    {\r\n        return gov.getUnlockHeight(address(this));\r\n    }\r\n\r\n    function isWithdrawable()\r\n        external\r\n        view\r\n        returns(bool)\r\n    {\r\n        return gov.isWithdrawable(address(this));\r\n    }\r\n\r\n/*\r\n    TEST TEST TEST TEST TEST TEST TEST TEST TEST \r\n*/\r\n    // send nty to contract as Reward from Core\r\n    function virtuellMining()\r\n        public\r\n        payable\r\n    {\r\n\r\n    }\r\n}",
  "sourcePath": "C:\\Users\\bestb\\Desktop\\workshop\\sealing-pool\\contracts\\ntfPool\\NtfPool.sol",
  "compiler": {
    "name": "solc",
    "version": "0.5.0+commit.1d4f565a.Emscripten.clang"
  },
  "schemaVersion": "3.0.6",
  "updatedAt": "2019-05-23T10:00:08.493Z",
  "devdoc": {
    "methods": {}
  },
  "userdoc": {
    "methods": {}
  }
}