{
  "contractName": "PoolMaker",
  "abi": [
    {
      "constant": true,
      "inputs": [],
      "name": "govAddress",
      "outputs": [
        {
          "name": "",
          "type": "address"
        }
      ],
      "payable": false,
      "stateMutability": "view",
      "type": "function",
      "signature": "0x46008a07"
    },
    {
      "constant": true,
      "inputs": [
        {
          "name": "",
          "type": "address"
        }
      ],
      "name": "poolOwner",
      "outputs": [
        {
          "name": "",
          "type": "address"
        }
      ],
      "payable": false,
      "stateMutability": "view",
      "type": "function",
      "signature": "0x58417084"
    },
    {
      "constant": true,
      "inputs": [],
      "name": "ntfAddress",
      "outputs": [
        {
          "name": "",
          "type": "address"
        }
      ],
      "payable": false,
      "stateMutability": "view",
      "type": "function",
      "signature": "0xa8394d07"
    },
    {
      "constant": true,
      "inputs": [
        {
          "name": "",
          "type": "uint256"
        }
      ],
      "name": "pools",
      "outputs": [
        {
          "name": "",
          "type": "address"
        }
      ],
      "payable": false,
      "stateMutability": "view",
      "type": "function",
      "signature": "0xac4afa38"
    },
    {
      "inputs": [
        {
          "name": "_ntfAddress",
          "type": "address"
        },
        {
          "name": "_govAddress",
          "type": "address"
        }
      ],
      "payable": false,
      "stateMutability": "nonpayable",
      "type": "constructor",
      "signature": "constructor"
    },
    {
      "constant": false,
      "inputs": [
        {
          "name": "_owner",
          "type": "address"
        },
        {
          "name": "_COMPRATE",
          "type": "uint256"
        },
        {
          "name": "_MAX_LOCK_DURATION",
          "type": "uint256"
        },
        {
          "name": "_OWNER_ACTION_DELAY",
          "type": "uint256"
        },
        {
          "name": "_name",
          "type": "string"
        },
        {
          "name": "_website",
          "type": "string"
        },
        {
          "name": "_location",
          "type": "string"
        },
        {
          "name": "_profile",
          "type": "string"
        }
      ],
      "name": "createPool",
      "outputs": [
        {
          "name": "",
          "type": "address"
        }
      ],
      "payable": false,
      "stateMutability": "nonpayable",
      "type": "function",
      "signature": "0xd77e77f0"
    },
    {
      "constant": true,
      "inputs": [],
      "name": "getPoolCount",
      "outputs": [
        {
          "name": "",
          "type": "uint256"
        }
      ],
      "payable": false,
      "stateMutability": "view",
      "type": "function",
      "signature": "0x8eec5d70"
    },
    {
      "constant": true,
      "inputs": [
        {
          "name": "i",
          "type": "uint256"
        }
      ],
      "name": "getPool",
      "outputs": [
        {
          "name": "",
          "type": "address"
        },
        {
          "name": "",
          "type": "address"
        },
        {
          "name": "",
          "type": "string"
        },
        {
          "name": "",
          "type": "uint256"
        },
        {
          "name": "",
          "type": "uint256"
        }
      ],
      "payable": false,
      "stateMutability": "view",
      "type": "function",
      "signature": "0x068bcd8d"
    }
  ],
  "bytecode": "0x608060405234801561001057600080fd5b506040516040806154d98339810180604052604081101561003057600080fd5b810190808051906020019092919080519060200190929190505050816000806101000a81548173ffffffffffffffffffffffffffffffffffffffff021916908373ffffffffffffffffffffffffffffffffffffffff16021790555080600160006101000a81548173ffffffffffffffffffffffffffffffffffffffff021916908373ffffffffffffffffffffffffffffffffffffffff16021790555050506153fc806100dd6000396000f3fe6080604052600436106200008b576000357c0100000000000000000000000000000000000000000000000000000000900463ffffffff168063068bcd8d146200009057806346008a0714620001bf5780635841708414620002195780638eec5d7014620002ae578063a8394d0714620002dc578063ac4afa381462000336578063d77e77f014620003b5575b600080fd5b3480156200009d57600080fd5b50620000cd60048036036020811015620000b657600080fd5b8101908080359060200190929190505050620006d1565b604051808673ffffffffffffffffffffffffffffffffffffffff1673ffffffffffffffffffffffffffffffffffffffff1681526020018573ffffffffffffffffffffffffffffffffffffffff1673ffffffffffffffffffffffffffffffffffffffff16815260200180602001848152602001838152602001828103825285818151815260200191508051906020019080838360005b838110156200017f57808201518184015260208101905062000162565b50505050905090810190601f168015620001ad5780820380516001836020036101000a031916815260200191505b50965050505050505060405180910390f35b348015620001cc57600080fd5b50620001d7620009de565b604051808273ffffffffffffffffffffffffffffffffffffffff1673ffffffffffffffffffffffffffffffffffffffff16815260200191505060405180910390f35b3480156200022657600080fd5b506200026c600480360360208110156200023f57600080fd5b81019080803573ffffffffffffffffffffffffffffffffffffffff16906020019092919050505062000a04565b604051808273ffffffffffffffffffffffffffffffffffffffff1673ffffffffffffffffffffffffffffffffffffffff16815260200191505060405180910390f35b348015620002bb57600080fd5b50620002c662000a37565b6040518082815260200191505060405180910390f35b348015620002e957600080fd5b50620002f462000a44565b604051808273ffffffffffffffffffffffffffffffffffffffff1673ffffffffffffffffffffffffffffffffffffffff16815260200191505060405180910390f35b3480156200034357600080fd5b5062000373600480360360208110156200035c57600080fd5b810190808035906020019092919050505062000a69565b604051808273ffffffffffffffffffffffffffffffffffffffff1673ffffffffffffffffffffffffffffffffffffffff16815260200191505060405180910390f35b348015620003c257600080fd5b506200068f6004803603610100811015620003dc57600080fd5b81019080803573ffffffffffffffffffffffffffffffffffffffff169060200190929190803590602001909291908035906020019092919080359060200190929190803590602001906401000000008111156200043857600080fd5b8201836020820111156200044b57600080fd5b803590602001918460018302840111640100000000831117156200046e57600080fd5b91908080601f016020809104026020016040519081016040528093929190818152602001838380828437600081840152601f19601f82011690508083019250505050505050919291929080359060200190640100000000811115620004d257600080fd5b820183602082011115620004e557600080fd5b803590602001918460018302840111640100000000831117156200050857600080fd5b91908080601f016020809104026020016040519081016040528093929190818152602001838380828437600081840152601f19601f820116905080830192505050505050509192919290803590602001906401000000008111156200056c57600080fd5b8201836020820111156200057f57600080fd5b80359060200191846001830284011164010000000083111715620005a257600080fd5b91908080601f016020809104026020016040519081016040528093929190818152602001838380828437600081840152601f19601f820116905080830192505050505050509192919290803590602001906401000000008111156200060657600080fd5b8201836020820111156200061957600080fd5b803590602001918460018302840111640100000000831117156200063c57600080fd5b91908080601f016020809104026020016040519081016040528093929190818152602001838380828437600081840152601f19601f82011690508083019250505050505050919291929050505062000aa8565b604051808273ffffffffffffffffffffffffffffffffffffffff1673ffffffffffffffffffffffffffffffffffffffff16815260200191505060405180910390f35b60008060606000806000600287815481101515620006eb57fe5b9060005260206000200160009054906101000a900473ffffffffffffffffffffffffffffffffffffffff1690506000600360008373ffffffffffffffffffffffffffffffffffffffff1673ffffffffffffffffffffffffffffffffffffffff16815260200190815260200160002060009054906101000a900473ffffffffffffffffffffffffffffffffffffffff16905060608273ffffffffffffffffffffffffffffffffffffffff166306fdde036040518163ffffffff167c010000000000000000000000000000000000000000000000000000000002815260040160006040518083038186803b158015620007e157600080fd5b505afa158015620007f6573d6000803e3d6000fd5b505050506040513d6000823e3d601f19601f8201168201806040525060208110156200082157600080fd5b8101908080516401000000008111156200083a57600080fd5b828101905060208101848111156200085157600080fd5b81518560018202830111640100000000821117156200086f57600080fd5b5050929190505050905060008373ffffffffffffffffffffffffffffffffffffffff16634f8457e46040518163ffffffff167c010000000000000000000000000000000000000000000000000000000002815260040160206040518083038186803b158015620008de57600080fd5b505afa158015620008f3573d6000803e3d6000fd5b505050506040513d60208110156200090a57600080fd5b8101908080519060200190929190505050905060008473ffffffffffffffffffffffffffffffffffffffff166311bfe32e6040518163ffffffff167c010000000000000000000000000000000000000000000000000000000002815260040160206040518083038186803b1580156200098257600080fd5b505afa15801562000997573d6000803e3d6000fd5b505050506040513d6020811015620009ae57600080fd5b81019080805190602001909291905050509050848484848499509950995099509950505050505091939590929450565b600160009054906101000a900473ffffffffffffffffffffffffffffffffffffffff1681565b60036020528060005260406000206000915054906101000a900473ffffffffffffffffffffffffffffffffffffffff1681565b6000600280549050905090565b6000809054906101000a900473ffffffffffffffffffffffffffffffffffffffff1681565b60028181548110151562000a7957fe5b906000526020600020016000915054906101000a900473ffffffffffffffffffffffffffffffffffffffff1681565b600080896000809054906101000a900473ffffffffffffffffffffffffffffffffffffffff16600160009054906101000a900473ffffffffffffffffffffffffffffffffffffffff168b8b8b8b8b8b8b62000b0262000e83565b808b73ffffffffffffffffffffffffffffffffffffffff1673ffffffffffffffffffffffffffffffffffffffff1681526020018a73ffffffffffffffffffffffffffffffffffffffff1673ffffffffffffffffffffffffffffffffffffffff1681526020018973ffffffffffffffffffffffffffffffffffffffff1673ffffffffffffffffffffffffffffffffffffffff16815260200188815260200187815260200186815260200180602001806020018060200180602001858103855289818151815260200191508051906020019080838360005b8381101562000bf557808201518184015260208101905062000bd8565b50505050905090810190601f16801562000c235780820380516001836020036101000a031916815260200191505b50858103845288818151815260200191508051906020019080838360005b8381101562000c5e57808201518184015260208101905062000c41565b50505050905090810190601f16801562000c8c5780820380516001836020036101000a031916815260200191505b50858103835287818151815260200191508051906020019080838360005b8381101562000cc757808201518184015260208101905062000caa565b50505050905090810190601f16801562000cf55780820380516001836020036101000a031916815260200191505b50858103825286818151815260200191508051906020019080838360005b8381101562000d3057808201518184015260208101905062000d13565b50505050905090810190601f16801562000d5e5780820380516001836020036101000a031916815260200191505b509e505050505050505050505050505050604051809103906000f08015801562000d8c573d6000803e3d6000fd5b50905060028190806001815401808255809150509060018203906000526020600020016000909192909190916101000a81548173ffffffffffffffffffffffffffffffffffffffff021916908373ffffffffffffffffffffffffffffffffffffffff1602179055505089600360008373ffffffffffffffffffffffffffffffffffffffff1673ffffffffffffffffffffffffffffffffffffffff16815260200190815260200160002060006101000a81548173ffffffffffffffffffffffffffffffffffffffff021916908373ffffffffffffffffffffffffffffffffffffffff1602179055508091505098975050505050505050565b60405161453c8062000e958339019056fe60806040523480156200001157600080fd5b506040516200453c3803806200453c83398101806040526101408110156200003857600080fd5b8101908080519060200190929190805190602001909291908051906020019092919080519060200190929190805190602001909291908051906020019092919080516401000000008111156200008d57600080fd5b82810190506020810184811115620000a457600080fd5b8151856001820283011164010000000082111715620000c257600080fd5b50509291906020018051640100000000811115620000df57600080fd5b82810190506020810184811115620000f657600080fd5b81518560018202830111640100000000821117156200011457600080fd5b505092919060200180516401000000008111156200013157600080fd5b828101905060208101848111156200014857600080fd5b81518560018202830111640100000000821117156200016657600080fd5b505092919060200180516401000000008111156200018357600080fd5b828101905060208101848111156200019a57600080fd5b8151856001820283011164010000000082111715620001b857600080fd5b5050929190505050838383838360009080519060200190620001dc92919062000632565b508260019080519060200190620001f592919062000632565b5081600290805190602001906200020e92919062000632565b5080600490805190602001906200022792919062000632565b505050505088607a60006101000a81548173ffffffffffffffffffffffffffffffffffffffff021916908373ffffffffffffffffffffffffffffffffffffffff16021790555087607b60006101000a81548173ffffffffffffffffffffffffffffffffffffffff021916908373ffffffffffffffffffffffffffffffffffffffff16021790555060008710158015620002c1575060648711155b151562000336576040517f08c379a00000000000000000000000000000000000000000000000000000000081526004018080602001828103825260198152602001807f696e76616c696420636f6d70656e736174696f6e20726174650000000000000081525060200191505060405180910390fd5b86600881905550856075819055506200035e866200038f640100000000026401000000009004565b846078819055506200037f8a62000416640100000000026401000000009004565b50505050505050505050620006e1565b8060755481111515156200040b576040517f08c379a00000000000000000000000000000000000000000000000000000000081526004018080602001828103825260128152602001807f646f6e74206c6f636b20746f6f206c6f6e67000000000000000000000000000081525060200191505060405180910390fd5b816074819055505050565b600d60019054906101000a900460ff16806200044757506200044662000621640100000000026401000000009004565b5b80620004605750600d60009054906101000a900460ff16155b1515620004fb576040517f08c379a000000000000000000000000000000000000000000000000000000000815260040180806020018281038252602e8152602001807f436f6e747261637420696e7374616e63652068617320616c726561647920626581526020017f656e20696e697469616c697a656400000000000000000000000000000000000081525060400191505060405180910390fd5b6000600d60019054906101000a900460ff1690506001600d60016101000a81548160ff0219169083151502179055506001600d60006101000a81548160ff02191690831515021790555081604060006101000a81548173ffffffffffffffffffffffffffffffffffffffff021916908373ffffffffffffffffffffffffffffffffffffffff160217905550604060009054906101000a900473ffffffffffffffffffffffffffffffffffffffff1673ffffffffffffffffffffffffffffffffffffffff16600073ffffffffffffffffffffffffffffffffffffffff167f8be0079c531659141344cd1fd0a4f28419497f9722a3daafe3b4186f6b6457e060405160405180910390a380600d60016101000a81548160ff0219169083151502179055505050565b600080303b90506000811491505090565b828054600181600116156101000203166002900490600052602060002090601f016020900481019282601f106200067557805160ff1916838001178555620006a6565b82800160010185558215620006a6579182015b82811115620006a557825182559160200191906001019062000688565b5b509050620006b59190620006b9565b5090565b620006de91905b80821115620006da576000816000905550600101620006c0565b5090565b90565b613e4b80620006f16000396000f3fe608060405260043610610246576000357c0100000000000000000000000000000000000000000000000000000000900463ffffffff168063021737321461024857806306fdde031461027a578063095ea7b31461030a57806311bfe32e1461037d57806312d43a51146103a857806318160ddd146103ff57806323b872dd1461042a57806339509351146104bd5780633aa9dd2a146105305780633c85053e1461058b57806342d07a1e146105a25780634d840bcc146105dd5780634e69d5601461060c5780634eb665af146106375780634f1bfc9e146106725780634f8457e41461069d578063516f279e146106c857806359aa9506146107585780635df5ffbb146107af5780636e7348c9146107b957806370a082311461081e57806370c9b0f714610883578063715018a6146108ae5780637a2bee5e146108c5578063820e93f51461091657806384c6c2e3146109a65780638da5cb5b146109d15780638e7dce4e14610a285780638f32d59b14610a53578063a457c2d714610a82578063a9059cbb14610af5578063acf1ba9f14610b68578063beb0a41614610b93578063c4d66de814610c23578063cadba0d114610c74578063cd92c57d14610c9f578063d12c33b714610cb6578063d1a82a9d14610d1f578063d66d9e1914610d76578063dbed1e8814610d8d578063dd62ed3e14610df2578063e1fe7d2314610e77578063e239c40014610eb2578063edfd36cd14610edd578063ee0cfb0914610ef4578063ee419a8814610f59578063f2fde38b14610f84578063fb7f21eb14610fd5575b005b34801561025457600080fd5b5061025d611065565b604051808381526020018281526020019250505060405180910390f35b34801561028657600080fd5b5061028f611159565b6040518080602001828103825283818151815260200191508051906020019080838360005b838110156102cf5780820151818401526020810190506102b4565b50505050905090810190601f1680156102fc5780820380516001836020036101000a031916815260200191505b509250505060405180910390f35b34801561031657600080fd5b506103636004803603604081101561032d57600080fd5b81019080803573ffffffffffffffffffffffffffffffffffffffff169060200190929190803590602001909291905050506111f7565b604051808215151515815260200191505060405180910390f35b34801561038957600080fd5b50610392611324565b6040518082815260200191505060405180910390f35b3480156103b457600080fd5b506103bd611421565b604051808273ffffffffffffffffffffffffffffffffffffffff1673ffffffffffffffffffffffffffffffffffffffff16815260200191505060405180910390f35b34801561040b57600080fd5b50610414611447565b6040518082815260200191505060405180910390f35b34801561043657600080fd5b506104a36004803603606081101561044d57600080fd5b81019080803573ffffffffffffffffffffffffffffffffffffffff169060200190929190803573ffffffffffffffffffffffffffffffffffffffff16906020019092919080359060200190929190505050611451565b604051808215151515815260200191505060405180910390f35b3480156104c957600080fd5b50610516600480360360408110156104e057600080fd5b81019080803573ffffffffffffffffffffffffffffffffffffffff16906020019092919080359060200190929190505050611659565b604051808215151515815260200191505060405180910390f35b34801561053c57600080fd5b506105896004803603604081101561055357600080fd5b8101908080359060200190929190803573ffffffffffffffffffffffffffffffffffffffff169060200190929190505050611890565b005b34801561059757600080fd5b506105a0611c23565b005b3480156105ae57600080fd5b506105db600480360360208110156105c557600080fd5b8101908080359060200190929190505050611ce7565b005b3480156105e957600080fd5b506105f2611d25565b604051808215151515815260200191505060405180910390f35b34801561061857600080fd5b50610621611e22565b6040518082815260200191505060405180910390f35b34801561064357600080fd5b506106706004803603602081101561065a57600080fd5b8101908080359060200190929190505050611f1f565b005b34801561067e57600080fd5b50610687611fc2565b6040518082815260200191505060405180910390f35b3480156106a957600080fd5b506106b2611fc8565b6040518082815260200191505060405180910390f35b3480156106d457600080fd5b506106dd6120c5565b6040518080602001828103825283818151815260200191508051906020019080838360005b8381101561071d578082015181840152602081019050610702565b50505050905090810190601f16801561074a5780820380516001836020036101000a031916815260200191505b509250505060405180910390f35b34801561076457600080fd5b5061076d612163565b604051808273ffffffffffffffffffffffffffffffffffffffff1673ffffffffffffffffffffffffffffffffffffffff16815260200191505060405180910390f35b6107b7612189565b005b3480156107c557600080fd5b50610808600480360360208110156107dc57600080fd5b81019080803573ffffffffffffffffffffffffffffffffffffffff16906020019092919050505061218b565b6040518082815260200191505060405180910390f35b34801561082a57600080fd5b5061086d6004803603602081101561084157600080fd5b81019080803573ffffffffffffffffffffffffffffffffffffffff169060200190929190505050612212565b6040518082815260200191505060405180910390f35b34801561088f57600080fd5b5061089861225b565b6040518082815260200191505060405180910390f35b3480156108ba57600080fd5b506108c3612358565b005b3480156108d157600080fd5b50610914600480360360208110156108e857600080fd5b81019080803573ffffffffffffffffffffffffffffffffffffffff16906020019092919050505061242c565b005b34801561092257600080fd5b5061092b61244b565b6040518080602001828103825283818151815260200191508051906020019080838360005b8381101561096b578082015181840152602081019050610950565b50505050905090810190601f1680156109985780820380516001836020036101000a031916815260200191505b509250505060405180910390f35b3480156109b257600080fd5b506109bb6124e9565b6040518082815260200191505060405180910390f35b3480156109dd57600080fd5b506109e66124ef565b604051808273ffffffffffffffffffffffffffffffffffffffff1673ffffffffffffffffffffffffffffffffffffffff16815260200191505060405180910390f35b348015610a3457600080fd5b50610a3d612519565b6040518082815260200191505060405180910390f35b348015610a5f57600080fd5b50610a6861255b565b604051808215151515815260200191505060405180910390f35b348015610a8e57600080fd5b50610adb60048036036040811015610aa557600080fd5b81019080803573ffffffffffffffffffffffffffffffffffffffff169060200190929190803590602001909291905050506125b3565b604051808215151515815260200191505060405180910390f35b348015610b0157600080fd5b50610b4e60048036036040811015610b1857600080fd5b81019080803573ffffffffffffffffffffffffffffffffffffffff169060200190929190803590602001909291905050506127ea565b604051808215151515815260200191505060405180910390f35b348015610b7457600080fd5b50610b7d61282f565b6040518082815260200191505060405180910390f35b348015610b9f57600080fd5b50610ba8612835565b6040518080602001828103825283818151815260200191508051906020019080838360005b83811015610be8578082015181840152602081019050610bcd565b50505050905090810190601f168015610c155780820380516001836020036101000a031916815260200191505b509250505060405180910390f35b348015610c2f57600080fd5b50610c7260048036036020811015610c4657600080fd5b81019080803573ffffffffffffffffffffffffffffffffffffffff1690602001909291905050506128d3565b005b348015610c8057600080fd5b50610c89612aca565b6040518082815260200191505060405180910390f35b348015610cab57600080fd5b50610cb4612ad4565b005b348015610cc257600080fd5b50610d0560048036036020811015610cd957600080fd5b81019080803573ffffffffffffffffffffffffffffffffffffffff169060200190929190505050612cc8565b604051808215151515815260200191505060405180910390f35b348015610d2b57600080fd5b50610d34612d13565b604051808273ffffffffffffffffffffffffffffffffffffffff1673ffffffffffffffffffffffffffffffffffffffff16815260200191505060405180910390f35b348015610d8257600080fd5b50610d8b612e10565b005b348015610d9957600080fd5b50610ddc60048036036020811015610db057600080fd5b81019080803573ffffffffffffffffffffffffffffffffffffffff169060200190929190505050612e2d565b6040518082815260200191505060405180910390f35b348015610dfe57600080fd5b50610e6160048036036040811015610e1557600080fd5b81019080803573ffffffffffffffffffffffffffffffffffffffff169060200190929190803573ffffffffffffffffffffffffffffffffffffffff169060200190929190505050612e76565b6040518082815260200191505060405180910390f35b348015610e8357600080fd5b50610eb060048036036020811015610e9a57600080fd5b8101908080359060200190929190505050612efd565b005b348015610ebe57600080fd5b50610ec7613065565b6040518082815260200191505060405180910390f35b348015610ee957600080fd5b50610ef261306f565b005b348015610f0057600080fd5b50610f4360048036036020811015610f1757600080fd5b81019080803573ffffffffffffffffffffffffffffffffffffffff169060200190929190505050613080565b6040518082815260200191505060405180910390f35b348015610f6557600080fd5b50610f6e613098565b6040518082815260200191505060405180910390f35b348015610f9057600080fd5b50610fd360048036036020811015610fa757600080fd5b81019080803573ffffffffffffffffffffffffffffffffffffffff16906020019092919050505061309e565b005b348015610fe157600080fd5b50610fea6130bd565b6040518080602001828103825283818151815260200191508051906020019080838360005b8381101561102a57808201518184015260208101905061100f565b50505050905090810190601f1680156110575780820380516001836020036101000a031916815260200191505b509250505060405180910390f35b6000806000611096600c543073ffffffffffffffffffffffffffffffffffffffff163161315b90919063ffffffff16565b90506000606460085483028115156110aa57fe5b04905060006110b7611447565b14156110e2576110d282600b5461317d90919063ffffffff16565b6000809050935093505050611155565b60006110ec611447565b61111765010000000000611109858761315b90919063ffffffff16565b61319e90919063ffffffff16565b81151561112057fe5b04905061113882600b5461317d90919063ffffffff16565b61114d82600a5461317d90919063ffffffff16565b945094505050505b9091565b60008054600181600116156101000203166002900480601f0160208091040260200160405190810160405280929190818152602001828054600181600116156101000203166002900480156111ef5780601f106111c4576101008083540402835291602001916111ef565b820191906000526020600020905b8154815290600101906020018083116111d257829003601f168201915b505050505081565b60008073ffffffffffffffffffffffffffffffffffffffff168373ffffffffffffffffffffffffffffffffffffffff161415151561123457600080fd5b81600660003373ffffffffffffffffffffffffffffffffffffffff1673ffffffffffffffffffffffffffffffffffffffff16815260200190815260200160002060008573ffffffffffffffffffffffffffffffffffffffff1673ffffffffffffffffffffffffffffffffffffffff168152602001908152602001600020819055508273ffffffffffffffffffffffffffffffffffffffff163373ffffffffffffffffffffffffffffffffffffffff167f8c5be1e5ebec7d5bd14f71427d1e84f3dd0314c0f7b2291e5b200ac8c7c3b925846040518082815260200191505060405180910390a36001905092915050565b6000607b60009054906101000a900473ffffffffffffffffffffffffffffffffffffffff1673ffffffffffffffffffffffffffffffffffffffff1663f8b2cb4f306040518263ffffffff167c0100000000000000000000000000000000000000000000000000000000028152600401808273ffffffffffffffffffffffffffffffffffffffff1673ffffffffffffffffffffffffffffffffffffffff16815260200191505060206040518083038186803b1580156113e157600080fd5b505afa1580156113f5573d6000803e3d6000fd5b505050506040513d602081101561140b57600080fd5b8101908080519060200190929190505050905090565b607b60009054906101000a900473ffffffffffffffffffffffffffffffffffffffff1681565b6000600754905090565b60006114e282600660008773ffffffffffffffffffffffffffffffffffffffff1673ffffffffffffffffffffffffffffffffffffffff16815260200190815260200160002060003373ffffffffffffffffffffffffffffffffffffffff1673ffffffffffffffffffffffffffffffffffffffff1681526020019081526020016000205461315b90919063ffffffff16565b600660008673ffffffffffffffffffffffffffffffffffffffff1673ffffffffffffffffffffffffffffffffffffffff16815260200190815260200160002060003373ffffffffffffffffffffffffffffffffffffffff1673ffffffffffffffffffffffffffffffffffffffff1681526020019081526020016000208190555061156d8484846131dc565b3373ffffffffffffffffffffffffffffffffffffffff168473ffffffffffffffffffffffffffffffffffffffff167f8c5be1e5ebec7d5bd14f71427d1e84f3dd0314c0f7b2291e5b200ac8c7c3b925600660008873ffffffffffffffffffffffffffffffffffffffff1673ffffffffffffffffffffffffffffffffffffffff16815260200190815260200160002060003373ffffffffffffffffffffffffffffffffffffffff1673ffffffffffffffffffffffffffffffffffffffff168152602001908152602001600020546040518082815260200191505060405180910390a3600190509392505050565b60008073ffffffffffffffffffffffffffffffffffffffff168373ffffffffffffffffffffffffffffffffffffffff161415151561169657600080fd5b61172582600660003373ffffffffffffffffffffffffffffffffffffffff1673ffffffffffffffffffffffffffffffffffffffff16815260200190815260200160002060008673ffffffffffffffffffffffffffffffffffffffff1673ffffffffffffffffffffffffffffffffffffffff1681526020019081526020016000205461317d90919063ffffffff16565b600660003373ffffffffffffffffffffffffffffffffffffffff1673ffffffffffffffffffffffffffffffffffffffff16815260200190815260200160002060008573ffffffffffffffffffffffffffffffffffffffff1673ffffffffffffffffffffffffffffffffffffffff168152602001908152602001600020819055508273ffffffffffffffffffffffffffffffffffffffff163373ffffffffffffffffffffffffffffffffffffffff167f8c5be1e5ebec7d5bd14f71427d1e84f3dd0314c0f7b2291e5b200ac8c7c3b925600660003373ffffffffffffffffffffffffffffffffffffffff1673ffffffffffffffffffffffffffffffffffffffff16815260200190815260200160002060008773ffffffffffffffffffffffffffffffffffffffff1673ffffffffffffffffffffffffffffffffffffffff168152602001908152602001600020546040518082815260200191505060405180910390a36001905092915050565b61189861255b565b15156118a357600080fd5b6118ab611fc8565b6118c06076548461317d90919063ffffffff16565b11151515611936576040517f08c379a00000000000000000000000000000000000000000000000000000000081526004018080602001828103825260128152602001807f6e6f7420656e6f75676820746f206a6f696e000000000000000000000000000081525060200191505060405180910390fd5b607a60009054906101000a900473ffffffffffffffffffffffffffffffffffffffff1673ffffffffffffffffffffffffffffffffffffffff1663095ea7b3607b60009054906101000a900473ffffffffffffffffffffffffffffffffffffffff16846040518363ffffffff167c0100000000000000000000000000000000000000000000000000000000028152600401808373ffffffffffffffffffffffffffffffffffffffff1673ffffffffffffffffffffffffffffffffffffffff16815260200182815260200192505050602060405180830381600087803b158015611a1d57600080fd5b505af1158015611a31573d6000803e3d6000fd5b505050506040513d6020811015611a4757600080fd5b810190808051906020019092919050505050607b60009054906101000a900473ffffffffffffffffffffffffffffffffffffffff1673ffffffffffffffffffffffffffffffffffffffff1663b6b55f25836040518263ffffffff167c010000000000000000000000000000000000000000000000000000000002815260040180828152602001915050602060405180830381600087803b158015611aea57600080fd5b505af1158015611afe573d6000803e3d6000fd5b505050506040513d6020811015611b1457600080fd5b810190808051906020019092919050505050607b60009054906101000a900473ffffffffffffffffffffffffffffffffffffffff1673ffffffffffffffffffffffffffffffffffffffff166328ffe6c8826040518263ffffffff167c0100000000000000000000000000000000000000000000000000000000028152600401808273ffffffffffffffffffffffffffffffffffffffff1673ffffffffffffffffffffffffffffffffffffffff168152602001915050602060405180830381600087803b158015611be357600080fd5b505af1158015611bf7573d6000803e3d6000fd5b505050506040513d6020811015611c0d57600080fd5b8101908080519060200190929190505050505050565b607b60009054906101000a900473ffffffffffffffffffffffffffffffffffffffff1673ffffffffffffffffffffffffffffffffffffffff16633ccfd60b6040518163ffffffff167c0100000000000000000000000000000000000000000000000000000000028152600401602060405180830381600087803b158015611ca957600080fd5b505af1158015611cbd573d6000803e3d6000fd5b505050506040513d6020811015611cd357600080fd5b810190808051906020019092919050505050565b611cef6133ac565b6000339050611cfd816133e8565b6000611d0982846134f2565b9050611d15828261367d565b611d208260006137d3565b505050565b6000607b60009054906101000a900473ffffffffffffffffffffffffffffffffffffffff1673ffffffffffffffffffffffffffffffffffffffff166302a18484306040518263ffffffff167c0100000000000000000000000000000000000000000000000000000000028152600401808273ffffffffffffffffffffffffffffffffffffffff1673ffffffffffffffffffffffffffffffffffffffff16815260200191505060206040518083038186803b158015611de257600080fd5b505afa158015611df6573d6000803e3d6000fd5b505050506040513d6020811015611e0c57600080fd5b8101908080519060200190929190505050905090565b6000607b60009054906101000a900473ffffffffffffffffffffffffffffffffffffffff1673ffffffffffffffffffffffffffffffffffffffff166330ccebb5306040518263ffffffff167c0100000000000000000000000000000000000000000000000000000000028152600401808273ffffffffffffffffffffffffffffffffffffffff1673ffffffffffffffffffffffffffffffffffffffff16815260200191505060206040518083038186803b158015611edf57600080fd5b505afa158015611ef3573d6000803e3d6000fd5b505050506040513d6020811015611f0957600080fd5b8101908080519060200190929190505050905090565b611f2761255b565b1515611f3257600080fd5b6078546079540142111515611faf576040517f08c379a00000000000000000000000000000000000000000000000000000000081526004018080602001828103825260148152602001807f646f6e74206368616e676520746f20717569636b00000000000000000000000081525060200191505060405180910390fd5b42607981905550611fbf8161384a565b50565b60755481565b6000607a60009054906101000a900473ffffffffffffffffffffffffffffffffffffffff1673ffffffffffffffffffffffffffffffffffffffff166370a08231306040518263ffffffff167c0100000000000000000000000000000000000000000000000000000000028152600401808273ffffffffffffffffffffffffffffffffffffffff1673ffffffffffffffffffffffffffffffffffffffff16815260200191505060206040518083038186803b15801561208557600080fd5b505afa158015612099573d6000803e3d6000fd5b505050506040513d60208110156120af57600080fd5b8101908080519060200190929190505050905090565b60028054600181600116156101000203166002900480601f01602080910402602001604051908101604052809291908181526020018280546001816001161561010002031660029004801561215b5780601f106121305761010080835404028352916020019161215b565b820191906000526020600020905b81548152906001019060200180831161213e57829003601f168201915b505050505081565b607a60009054906101000a900473ffffffffffffffffffffffffffffffffffffffff1681565b565b6000806000612198611065565b91509150600960008573ffffffffffffffffffffffffffffffffffffffff1673ffffffffffffffffffffffffffffffffffffffff16815260200190815260200160002054650100000000006121fe836121f088612212565b61319e90919063ffffffff16565b81151561220757fe5b040392505050919050565b6000600560008373ffffffffffffffffffffffffffffffffffffffff1673ffffffffffffffffffffffffffffffffffffffff168152602001908152602001600020549050919050565b6000607b60009054906101000a900473ffffffffffffffffffffffffffffffffffffffff1673ffffffffffffffffffffffffffffffffffffffff166355235d47306040518263ffffffff167c0100000000000000000000000000000000000000000000000000000000028152600401808273ffffffffffffffffffffffffffffffffffffffff1673ffffffffffffffffffffffffffffffffffffffff16815260200191505060206040518083038186803b15801561231857600080fd5b505afa15801561232c573d6000803e3d6000fd5b505050506040513d602081101561234257600080fd5b8101908080519060200190929190505050905090565b61236061255b565b151561236b57600080fd5b600073ffffffffffffffffffffffffffffffffffffffff16604060009054906101000a900473ffffffffffffffffffffffffffffffffffffffff1673ffffffffffffffffffffffffffffffffffffffff167f8be0079c531659141344cd1fd0a4f28419497f9722a3daafe3b4186f6b6457e060405160405180910390a36000604060006101000a81548173ffffffffffffffffffffffffffffffffffffffff021916908373ffffffffffffffffffffffffffffffffffffffff160217905550565b61243461255b565b151561243f57600080fd5b612448816138d0565b50565b60038054600181600116156101000203166002900480601f0160208091040260200160405190810160405280929190818152602001828054600181600116156101000203166002900480156124e15780601f106124b6576101008083540402835291602001916124e1565b820191906000526020600020905b8154815290600101906020018083116124c457829003601f168201915b505050505081565b60085481565b6000604060009054906101000a900473ffffffffffffffffffffffffffffffffffffffff16905090565b6000806000612526611065565b91509150612554823073ffffffffffffffffffffffffffffffffffffffff163161315b90919063ffffffff16565b9250505090565b6000604060009054906101000a900473ffffffffffffffffffffffffffffffffffffffff1673ffffffffffffffffffffffffffffffffffffffff163373ffffffffffffffffffffffffffffffffffffffff1614905090565b60008073ffffffffffffffffffffffffffffffffffffffff168373ffffffffffffffffffffffffffffffffffffffff16141515156125f057600080fd5b61267f82600660003373ffffffffffffffffffffffffffffffffffffffff1673ffffffffffffffffffffffffffffffffffffffff16815260200190815260200160002060008673ffffffffffffffffffffffffffffffffffffffff1673ffffffffffffffffffffffffffffffffffffffff1681526020019081526020016000205461315b90919063ffffffff16565b600660003373ffffffffffffffffffffffffffffffffffffffff1673ffffffffffffffffffffffffffffffffffffffff16815260200190815260200160002060008573ffffffffffffffffffffffffffffffffffffffff1673ffffffffffffffffffffffffffffffffffffffff168152602001908152602001600020819055508273ffffffffffffffffffffffffffffffffffffffff163373ffffffffffffffffffffffffffffffffffffffff167f8c5be1e5ebec7d5bd14f71427d1e84f3dd0314c0f7b2291e5b200ac8c7c3b925600660003373ffffffffffffffffffffffffffffffffffffffff1673ffffffffffffffffffffffffffffffffffffffff16815260200190815260200160002060008773ffffffffffffffffffffffffffffffffffffffff1673ffffffffffffffffffffffffffffffffffffffff168152602001908152602001600020546040518082815260200191505060405180910390a36001905092915050565b60008073ffffffffffffffffffffffffffffffffffffffff168373ffffffffffffffffffffffffffffffffffffffff161480156128275750600082145b905092915050565b60765481565b60018054600181600116156101000203166002900480601f0160208091040260200160405190810160405280929190818152602001828054600181600116156101000203166002900480156128cb5780601f106128a0576101008083540402835291602001916128cb565b820191906000526020600020905b8154815290600101906020018083116128ae57829003601f168201915b505050505081565b600d60019054906101000a900460ff16806128f257506128f161394d565b5b8061290a5750600d60009054906101000a900460ff16155b15156129a4576040517f08c379a000000000000000000000000000000000000000000000000000000000815260040180806020018281038252602e8152602001807f436f6e747261637420696e7374616e63652068617320616c726561647920626581526020017f656e20696e697469616c697a656400000000000000000000000000000000000081525060400191505060405180910390fd5b6000600d60019054906101000a900460ff1690506001600d60016101000a81548160ff0219169083151502179055506001600d60006101000a81548160ff02191690831515021790555081604060006101000a81548173ffffffffffffffffffffffffffffffffffffffff021916908373ffffffffffffffffffffffffffffffffffffffff160217905550604060009054906101000a900473ffffffffffffffffffffffffffffffffffffffff1673ffffffffffffffffffffffffffffffffffffffff16600073ffffffffffffffffffffffffffffffffffffffff167f8be0079c531659141344cd1fd0a4f28419497f9722a3daafe3b4186f6b6457e060405160405180910390a380600d60016101000a81548160ff0219169083151502179055505050565b6501000000000081565b612add33612cc8565b151515612b52576040517f08c379a000000000000000000000000000000000000000000000000000000000815260040180806020018281038252600d8152602001807f7374696c6c206c6f636b696e670000000000000000000000000000000000000081525060200191505060405180910390fd5b60003390506000607760008373ffffffffffffffffffffffffffffffffffffffff1673ffffffffffffffffffffffffffffffffffffffff168152602001908152602001600020549050612ba3611fc8565b811115612bb957612bb261395e565b5050612cc6565b607a60009054906101000a900473ffffffffffffffffffffffffffffffffffffffff1673ffffffffffffffffffffffffffffffffffffffff1663a9059cbb83836040518363ffffffff167c0100000000000000000000000000000000000000000000000000000000028152600401808373ffffffffffffffffffffffffffffffffffffffff1673ffffffffffffffffffffffffffffffffffffffff16815260200182815260200192505050602060405180830381600087803b158015612c7e57600080fd5b505af1158015612c92573d6000803e3d6000fd5b505050506040513d6020811015612ca857600080fd5b810190808051906020019092919050505050612cc382613a22565b50505b565b600042607360008473ffffffffffffffffffffffffffffffffffffffff1673ffffffffffffffffffffffffffffffffffffffff16815260200190815260200160002054119050919050565b6000607b60009054906101000a900473ffffffffffffffffffffffffffffffffffffffff1673ffffffffffffffffffffffffffffffffffffffff16630a9a3f07306040518263ffffffff167c0100000000000000000000000000000000000000000000000000000000028152600401808273ffffffffffffffffffffffffffffffffffffffff1673ffffffffffffffffffffffffffffffffffffffff16815260200191505060206040518083038186803b158015612dd057600080fd5b505afa158015612de4573d6000803e3d6000fd5b505050506040513d6020811015612dfa57600080fd5b8101908080519060200190929190505050905090565b612e1861255b565b1515612e2357600080fd5b612e2b61395e565b565b6000607360008373ffffffffffffffffffffffffffffffffffffffff1673ffffffffffffffffffffffffffffffffffffffff168152602001908152602001600020549050919050565b6000600660008473ffffffffffffffffffffffffffffffffffffffff1673ffffffffffffffffffffffffffffffffffffffff16815260200190815260200160002060008373ffffffffffffffffffffffffffffffffffffffff1673ffffffffffffffffffffffffffffffffffffffff16815260200190815260200160002054905092915050565b612f056133ac565b60003390506000612f1582613ac2565b9050607a60009054906101000a900473ffffffffffffffffffffffffffffffffffffffff1673ffffffffffffffffffffffffffffffffffffffff166323b872dd8330866040518463ffffffff167c0100000000000000000000000000000000000000000000000000000000028152600401808473ffffffffffffffffffffffffffffffffffffffff1673ffffffffffffffffffffffffffffffffffffffff1681526020018373ffffffffffffffffffffffffffffffffffffffff1673ffffffffffffffffffffffffffffffffffffffff1681526020018281526020019350505050602060405180830381600087803b15801561301057600080fd5b505af1158015613024573d6000803e3d6000fd5b505050506040513d602081101561303a57600080fd5b8101908080519060200190929190505050506130568284613b3a565b61306082826137d3565b505050565b6000607454905090565b600033905061307d816133e8565b50565b60776020528060005260406000206000915090505481565b60785481565b6130a661255b565b15156130b157600080fd5b6130ba81613c90565b50565b60048054600181600116156101000203166002900480601f0160208091040260200160405190810160405280929190818152602001828054600181600116156101000203166002900480156131535780601f1061312857610100808354040283529160200191613153565b820191906000526020600020905b81548152906001019060200180831161313657829003601f168201915b505050505081565b600082821115151561316c57600080fd5b600082840390508091505092915050565b600080828401905083811015151561319457600080fd5b8091505092915050565b6000808314156131b157600090506131d6565b600082840290508284828115156131c457fe5b041415156131d157600080fd5b809150505b92915050565b600073ffffffffffffffffffffffffffffffffffffffff168273ffffffffffffffffffffffffffffffffffffffff161415151561321857600080fd5b61326a81600560008673ffffffffffffffffffffffffffffffffffffffff1673ffffffffffffffffffffffffffffffffffffffff1681526020019081526020016000205461315b90919063ffffffff16565b600560008573ffffffffffffffffffffffffffffffffffffffff1673ffffffffffffffffffffffffffffffffffffffff168152602001908152602001600020819055506132ff81600560008573ffffffffffffffffffffffffffffffffffffffff1673ffffffffffffffffffffffffffffffffffffffff1681526020019081526020016000205461317d90919063ffffffff16565b600560008473ffffffffffffffffffffffffffffffffffffffff1673ffffffffffffffffffffffffffffffffffffffff168152602001908152602001600020819055508173ffffffffffffffffffffffffffffffffffffffff168373ffffffffffffffffffffffffffffffffffffffff167fddf252ad1be2c89b69c2b068fc378daa952ba7f163c4a11628f55a4df523b3ef836040518082815260200191505060405180910390a3505050565b6133b4611065565b600b6000600a60008491905055839190505550503073ffffffffffffffffffffffffffffffffffffffff1631600c81905550565b6133f06133ac565b60006133fb82613ac2565b905080600960008473ffffffffffffffffffffffffffffffffffffffff1673ffffffffffffffffffffffffffffffffffffffff1681526020019081526020016000205401600960008473ffffffffffffffffffffffffffffffffffffffff1673ffffffffffffffffffffffffffffffffffffffff1681526020019081526020016000208190555061349781600c5461315b90919063ffffffff16565b600c819055506134a682613ac2565b508173ffffffffffffffffffffffffffffffffffffffff166108fc829081150290604051600060405180830381858888f193505050501580156134ed573d6000803e3d6000fd5b505050565b6000607760008473ffffffffffffffffffffffffffffffffffffffff1673ffffffffffffffffffffffffffffffffffffffff16815260200190815260200160002054821115156135d0576040517f08c379a00000000000000000000000000000000000000000000000000000000081526004018080602001828103825260298152602001807f6e657720616d6f756e74206d7573742062652067726561746572207468616e2081526020017f746865206f6c646572000000000000000000000000000000000000000000000081525060400191505060405180910390fd5b6000607760008573ffffffffffffffffffffffffffffffffffffffff1673ffffffffffffffffffffffffffffffffffffffff168152602001908152602001600020548303905082607760008673ffffffffffffffffffffffffffffffffffffffff1673ffffffffffffffffffffffffffffffffffffffff168152602001908152602001600020819055508260766000828254019250508190555061367384613d8c565b8091505092915050565b600073ffffffffffffffffffffffffffffffffffffffff168273ffffffffffffffffffffffffffffffffffffffff16141515156136b957600080fd5b6136ce8160075461315b90919063ffffffff16565b60078190555061372681600560008573ffffffffffffffffffffffffffffffffffffffff1673ffffffffffffffffffffffffffffffffffffffff1681526020019081526020016000205461315b90919063ffffffff16565b600560008473ffffffffffffffffffffffffffffffffffffffff1673ffffffffffffffffffffffffffffffffffffffff16815260200190815260200160002081905550600073ffffffffffffffffffffffffffffffffffffffff168273ffffffffffffffffffffffffffffffffffffffff167fddf252ad1be2c89b69c2b068fc378daa952ba7f163c4a11628f55a4df523b3ef836040518082815260200191505060405180910390a35050565b80650100000000006137f8600a546137ea86612212565b61319e90919063ffffffff16565b81151561380157fe5b0403600960008473ffffffffffffffffffffffffffffffffffffffff1673ffffffffffffffffffffffffffffffffffffffff168152602001908152602001600020819055505050565b8060755481111515156138c5576040517f08c379a00000000000000000000000000000000000000000000000000000000081526004018080602001828103825260128152602001807f646f6e74206c6f636b20746f6f206c6f6e67000000000000000000000000000081525060200191505060405180910390fd5b816074819055505050565b6138d86133ac565b6000600b5490506000600b819055506138fc81600c5461315b90919063ffffffff16565b600c819055508173ffffffffffffffffffffffffffffffffffffffff166108fc829081150290604051600060405180830381858888f19350505050158015613948573d6000803e3d6000fd5b505050565b600080303b90506000811491505090565b607b60009054906101000a900473ffffffffffffffffffffffffffffffffffffffff1673ffffffffffffffffffffffffffffffffffffffff1663d66d9e196040518163ffffffff167c0100000000000000000000000000000000000000000000000000000000028152600401602060405180830381600087803b1580156139e457600080fd5b505af11580156139f8573d6000803e3d6000fd5b505050506040513d6020811015613a0e57600080fd5b810190808051906020019092919050505050565b607760008273ffffffffffffffffffffffffffffffffffffffff1673ffffffffffffffffffffffffffffffffffffffff168152602001908152602001600020546076600082825403925050819055506000607760008373ffffffffffffffffffffffffffffffffffffffff1673ffffffffffffffffffffffffffffffffffffffff16815260200190815260200160002081905550613abf81613dd7565b50565b6000600960008373ffffffffffffffffffffffffffffffffffffffff1673ffffffffffffffffffffffffffffffffffffffff1681526020019081526020016000205465010000000000613b28600a54613b1a86612212565b61319e90919063ffffffff16565b811515613b3157fe5b04039050919050565b600073ffffffffffffffffffffffffffffffffffffffff168273ffffffffffffffffffffffffffffffffffffffff1614151515613b7657600080fd5b613b8b8160075461317d90919063ffffffff16565b600781905550613be381600560008573ffffffffffffffffffffffffffffffffffffffff1673ffffffffffffffffffffffffffffffffffffffff1681526020019081526020016000205461317d90919063ffffffff16565b600560008473ffffffffffffffffffffffffffffffffffffffff1673ffffffffffffffffffffffffffffffffffffffff168152602001908152602001600020819055508173ffffffffffffffffffffffffffffffffffffffff16600073ffffffffffffffffffffffffffffffffffffffff167fddf252ad1be2c89b69c2b068fc378daa952ba7f163c4a11628f55a4df523b3ef836040518082815260200191505060405180910390a35050565b600073ffffffffffffffffffffffffffffffffffffffff168173ffffffffffffffffffffffffffffffffffffffff1614151515613ccc57600080fd5b8073ffffffffffffffffffffffffffffffffffffffff16604060009054906101000a900473ffffffffffffffffffffffffffffffffffffffff1673ffffffffffffffffffffffffffffffffffffffff167f8be0079c531659141344cd1fd0a4f28419497f9722a3daafe3b4186f6b6457e060405160405180910390a380604060006101000a81548173ffffffffffffffffffffffffffffffffffffffff021916908373ffffffffffffffffffffffffffffffffffffffff16021790555050565b6074544201607360008373ffffffffffffffffffffffffffffffffffffffff1673ffffffffffffffffffffffffffffffffffffffff1681526020019081526020016000208190555050565b6000607360008373ffffffffffffffffffffffffffffffffffffffff1673ffffffffffffffffffffffffffffffffffffffff168152602001908152602001600020819055505056fea165627a7a72305820d88071324576ae15cbd42b295176bbe5b490ea5195d32f19cf442df01520c22a0029a165627a7a7230582061e16db73271bd0dd9d35f6023106ff54e08ec5b3a08857d8e84e14bb50e86130029",
  "source": "pragma solidity ^0.5.0;\r\n\r\nimport \"./ntfPool/NtfPool.sol\";\r\n\r\ninterface NtfPoolI {\r\n    function name() external view returns (string memory);\r\n    function getPoolNtfBalance() external view returns(uint256);\r\n    function getPoolGovBalance() external view returns(uint256);\r\n}\r\n\r\ncontract PoolMaker {\r\n    address public ntfAddress;\r\n    address public govAddress;\r\n    address[] public pools;\r\n    mapping(address => address) public poolOwner;\r\n\r\n    constructor (\r\n        address _ntfAddress,\r\n        address _govAddress\r\n    )\r\n      public\r\n    {\r\n        ntfAddress = _ntfAddress;\r\n        govAddress = _govAddress;\r\n    }\r\n\r\n    function createPool(\r\n        address _owner,\r\n        uint256 _COMPRATE,\r\n        uint256 _MAX_LOCK_DURATION,\r\n        uint256 _OWNER_ACTION_DELAY,\r\n        string memory _name,\r\n        string memory _website,\r\n        string memory _location,\r\n        string memory _profile\r\n    )\r\n        public\r\n        returns (address)\r\n    {\r\n        NtfPool ntfPool = new NtfPool(\r\n            _owner,\r\n            ntfAddress,\r\n            govAddress,\r\n            _COMPRATE,\r\n            _MAX_LOCK_DURATION,\r\n            _OWNER_ACTION_DELAY,\r\n            _name,\r\n            _website,\r\n            _location,\r\n            _profile\r\n        );\r\n        pools.push(address(ntfPool));\r\n        poolOwner[address(ntfPool)] = _owner;\r\n        return (address(ntfPool));\r\n    }\r\n\r\n    // Read\r\n\r\n    function getPoolCount()\r\n        public\r\n        view\r\n        returns(uint256)\r\n    {\r\n        return pools.length;\r\n    }\r\n\r\n    function getPool(uint256 i)\r\n        public\r\n        view\r\n        returns(address, address, string memory, uint256, uint256)\r\n    {\r\n        address _pAddress = pools[i];\r\n        address _owner = poolOwner[_pAddress];\r\n        string memory _name = NtfPoolI(_pAddress).name();\r\n        // avaiable balance\r\n        uint256 _poolNtfBalance = NtfPoolI(_pAddress).getPoolNtfBalance();\r\n        // in Gov Ntf balance\r\n        uint256 _poolGovBalance = NtfPoolI(_pAddress).getPoolGovBalance();\r\n        return(_pAddress, _owner, _name, _poolNtfBalance, _poolGovBalance);\r\n    }\r\n}",
  "sourcePath": "C:/Users/bestb/Desktop/workshop/sealing-pool/contracts/PoolMaker.sol",
  "compiler": {
    "name": "solc",
    "version": "0.5.0+commit.1d4f565a.Emscripten.clang"
  },
  "schemaVersion": "3.0.6",
  "updatedAt": "2019-05-27T03:42:06.170Z",
  "devdoc": {
    "methods": {}
  },
  "userdoc": {
    "methods": {}
  }
}