{
  "contractName": "PoolMaker",
  "abi": [
    {
      "constant": true,
      "inputs": [],
      "name": "govAddress",
      "outputs": [
        {
          "name": "",
          "type": "address"
        }
      ],
      "payable": false,
      "stateMutability": "view",
      "type": "function"
    },
    {
      "constant": true,
      "inputs": [
        {
          "name": "",
          "type": "address"
        }
      ],
      "name": "poolOwner",
      "outputs": [
        {
          "name": "",
          "type": "address"
        }
      ],
      "payable": false,
      "stateMutability": "view",
      "type": "function"
    },
    {
      "constant": true,
      "inputs": [],
      "name": "ntfAddress",
      "outputs": [
        {
          "name": "",
          "type": "address"
        }
      ],
      "payable": false,
      "stateMutability": "view",
      "type": "function"
    },
    {
      "constant": true,
      "inputs": [
        {
          "name": "",
          "type": "uint256"
        }
      ],
      "name": "pools",
      "outputs": [
        {
          "name": "",
          "type": "address"
        }
      ],
      "payable": false,
      "stateMutability": "view",
      "type": "function"
    },
    {
      "constant": true,
      "inputs": [
        {
          "name": "",
          "type": "address"
        }
      ],
      "name": "ownedBy",
      "outputs": [
        {
          "name": "",
          "type": "address"
        }
      ],
      "payable": false,
      "stateMutability": "view",
      "type": "function"
    },
    {
      "inputs": [
        {
          "name": "_ntfAddress",
          "type": "address"
        },
        {
          "name": "_govAddress",
          "type": "address"
        }
      ],
      "payable": false,
      "stateMutability": "nonpayable",
      "type": "constructor"
    },
    {
      "anonymous": false,
      "inputs": [
        {
          "indexed": true,
          "name": "_address",
          "type": "address"
        }
      ],
      "name": "NewPool",
      "type": "event"
    },
    {
      "constant": false,
      "inputs": [
        {
          "name": "_owner",
          "type": "address"
        },
        {
          "name": "_COMPRATE",
          "type": "uint256"
        },
        {
          "name": "_MAX_LOCK_DURATION",
          "type": "uint256"
        },
        {
          "name": "_OWNER_ACTION_DELAY",
          "type": "uint256"
        },
        {
          "name": "_name",
          "type": "string"
        },
        {
          "name": "_website",
          "type": "string"
        },
        {
          "name": "_location",
          "type": "string"
        },
        {
          "name": "_profile",
          "type": "string"
        }
      ],
      "name": "createPool",
      "outputs": [
        {
          "name": "",
          "type": "address"
        }
      ],
      "payable": false,
      "stateMutability": "nonpayable",
      "type": "function"
    },
    {
      "constant": true,
      "inputs": [],
      "name": "getPoolCount",
      "outputs": [
        {
          "name": "",
          "type": "uint256"
        }
      ],
      "payable": false,
      "stateMutability": "view",
      "type": "function"
    },
    {
      "constant": true,
      "inputs": [
        {
          "name": "i",
          "type": "uint256"
        }
      ],
      "name": "getPool",
      "outputs": [
        {
          "name": "",
          "type": "address"
        },
        {
          "name": "",
          "type": "address"
        },
        {
          "name": "",
          "type": "string"
        },
        {
          "name": "",
          "type": "uint256"
        },
        {
          "name": "",
          "type": "uint256"
        }
      ],
      "payable": false,
      "stateMutability": "view",
      "type": "function"
    },
    {
      "constant": true,
      "inputs": [
        {
          "name": "_pAddress",
          "type": "address"
        }
      ],
      "name": "getPoolByAddress",
      "outputs": [
        {
          "name": "",
          "type": "address"
        },
        {
          "name": "",
          "type": "address"
        },
        {
          "name": "",
          "type": "string"
        },
        {
          "name": "",
          "type": "uint256"
        },
        {
          "name": "",
          "type": "uint256"
        }
      ],
      "payable": false,
      "stateMutability": "view",
      "type": "function"
    }
  ],
  "bytecode": "0x608060405234801561001057600080fd5b50604051604080615db48339810180604052604081101561003057600080fd5b810190808051906020019092919080519060200190929190505050816000806101000a81548173ffffffffffffffffffffffffffffffffffffffff021916908373ffffffffffffffffffffffffffffffffffffffff16021790555080600160006101000a81548173ffffffffffffffffffffffffffffffffffffffff021916908373ffffffffffffffffffffffffffffffffffffffff1602179055505050615cd7806100dd6000396000f3fe60806040523480156200001157600080fd5b5060043610620000bd576000357c0100000000000000000000000000000000000000000000000000000000900480638eec5d70116200008c5780638eec5d7014620003ed578063a8394d07146200040d578063ac4afa381462000459578063b837764414620004ca578063d77e77f0146200055157620000bd565b8063068bcd8d14620000c25780632b235e3214620001e357806346008a07146200031a578063584170841462000366575b600080fd5b620000f160048036036020811015620000da57600080fd5b81019080803590602001909291905050506200085f565b604051808673ffffffffffffffffffffffffffffffffffffffff1673ffffffffffffffffffffffffffffffffffffffff1681526020018573ffffffffffffffffffffffffffffffffffffffff1673ffffffffffffffffffffffffffffffffffffffff16815260200180602001848152602001838152602001828103825285818151815260200191508051906020019080838360005b83811015620001a357808201518184015260208101905062000186565b50505050905090810190601f168015620001d15780820380516001836020036101000a031916815260200191505b50965050505050505060405180910390f35b6200022860048036036020811015620001fb57600080fd5b81019080803573ffffffffffffffffffffffffffffffffffffffff16906020019092919050505062000b6c565b604051808673ffffffffffffffffffffffffffffffffffffffff1673ffffffffffffffffffffffffffffffffffffffff1681526020018573ffffffffffffffffffffffffffffffffffffffff1673ffffffffffffffffffffffffffffffffffffffff16815260200180602001848152602001838152602001828103825285818151815260200191508051906020019080838360005b83811015620002da578082015181840152602081019050620002bd565b50505050905090810190601f168015620003085780820380516001836020036101000a031916815260200191505b50965050505050505060405180910390f35b6200032462000e39565b604051808273ffffffffffffffffffffffffffffffffffffffff1673ffffffffffffffffffffffffffffffffffffffff16815260200191505060405180910390f35b620003ab600480360360208110156200037e57600080fd5b81019080803573ffffffffffffffffffffffffffffffffffffffff16906020019092919050505062000e5f565b604051808273ffffffffffffffffffffffffffffffffffffffff1673ffffffffffffffffffffffffffffffffffffffff16815260200191505060405180910390f35b620003f762000e92565b6040518082815260200191505060405180910390f35b6200041762000e9f565b604051808273ffffffffffffffffffffffffffffffffffffffff1673ffffffffffffffffffffffffffffffffffffffff16815260200191505060405180910390f35b62000488600480360360208110156200047157600080fd5b810190808035906020019092919050505062000ec4565b604051808273ffffffffffffffffffffffffffffffffffffffff1673ffffffffffffffffffffffffffffffffffffffff16815260200191505060405180910390f35b6200050f60048036036020811015620004e257600080fd5b81019080803573ffffffffffffffffffffffffffffffffffffffff16906020019092919050505062000f03565b604051808273ffffffffffffffffffffffffffffffffffffffff1673ffffffffffffffffffffffffffffffffffffffff16815260200191505060405180910390f35b6200081d60048036036101008110156200056a57600080fd5b81019080803573ffffffffffffffffffffffffffffffffffffffff16906020019092919080359060200190929190803590602001909291908035906020019092919080359060200190640100000000811115620005c657600080fd5b820183602082011115620005d957600080fd5b80359060200191846001830284011164010000000083111715620005fc57600080fd5b91908080601f016020809104026020016040519081016040528093929190818152602001838380828437600081840152601f19601f820116905080830192505050505050509192919290803590602001906401000000008111156200066057600080fd5b8201836020820111156200067357600080fd5b803590602001918460018302840111640100000000831117156200069657600080fd5b91908080601f016020809104026020016040519081016040528093929190818152602001838380828437600081840152601f19601f82011690508083019250505050505050919291929080359060200190640100000000811115620006fa57600080fd5b8201836020820111156200070d57600080fd5b803590602001918460018302840111640100000000831117156200073057600080fd5b91908080601f016020809104026020016040519081016040528093929190818152602001838380828437600081840152601f19601f820116905080830192505050505050509192919290803590602001906401000000008111156200079457600080fd5b820183602082011115620007a757600080fd5b80359060200191846001830284011164010000000083111715620007ca57600080fd5b91908080601f016020809104026020016040519081016040528093929190818152602001838380828437600081840152601f19601f82011690508083019250505050505050919291929050505062000f36565b604051808273ffffffffffffffffffffffffffffffffffffffff1673ffffffffffffffffffffffffffffffffffffffff16815260200191505060405180910390f35b600080606060008060006002878154811015156200087957fe5b9060005260206000200160009054906101000a900473ffffffffffffffffffffffffffffffffffffffff1690506000600360008373ffffffffffffffffffffffffffffffffffffffff1673ffffffffffffffffffffffffffffffffffffffff16815260200190815260200160002060009054906101000a900473ffffffffffffffffffffffffffffffffffffffff16905060608273ffffffffffffffffffffffffffffffffffffffff166306fdde036040518163ffffffff167c010000000000000000000000000000000000000000000000000000000002815260040160006040518083038186803b1580156200096f57600080fd5b505afa15801562000984573d6000803e3d6000fd5b505050506040513d6000823e3d601f19601f820116820180604052506020811015620009af57600080fd5b810190808051640100000000811115620009c857600080fd5b82810190506020810184811115620009df57600080fd5b8151856001820283011164010000000082111715620009fd57600080fd5b5050929190505050905060008373ffffffffffffffffffffffffffffffffffffffff16634f8457e46040518163ffffffff167c010000000000000000000000000000000000000000000000000000000002815260040160206040518083038186803b15801562000a6c57600080fd5b505afa15801562000a81573d6000803e3d6000fd5b505050506040513d602081101562000a9857600080fd5b8101908080519060200190929190505050905060008473ffffffffffffffffffffffffffffffffffffffff166311bfe32e6040518163ffffffff167c010000000000000000000000000000000000000000000000000000000002815260040160206040518083038186803b15801562000b1057600080fd5b505afa15801562000b25573d6000803e3d6000fd5b505050506040513d602081101562000b3c57600080fd5b81019080805190602001909291905050509050848484848499509950995099509950505050505091939590929450565b60008060606000806000600360008873ffffffffffffffffffffffffffffffffffffffff1673ffffffffffffffffffffffffffffffffffffffff16815260200190815260200160002060009054906101000a900473ffffffffffffffffffffffffffffffffffffffff16905060608773ffffffffffffffffffffffffffffffffffffffff166306fdde036040518163ffffffff167c010000000000000000000000000000000000000000000000000000000002815260040160006040518083038186803b15801562000c3d57600080fd5b505afa15801562000c52573d6000803e3d6000fd5b505050506040513d6000823e3d601f19601f82011682018060405250602081101562000c7d57600080fd5b81019080805164010000000081111562000c9657600080fd5b8281019050602081018481111562000cad57600080fd5b815185600182028301116401000000008211171562000ccb57600080fd5b5050929190505050905060008873ffffffffffffffffffffffffffffffffffffffff16634f8457e46040518163ffffffff167c010000000000000000000000000000000000000000000000000000000002815260040160206040518083038186803b15801562000d3a57600080fd5b505afa15801562000d4f573d6000803e3d6000fd5b505050506040513d602081101562000d6657600080fd5b8101908080519060200190929190505050905060008973ffffffffffffffffffffffffffffffffffffffff166311bfe32e6040518163ffffffff167c010000000000000000000000000000000000000000000000000000000002815260040160206040518083038186803b15801562000dde57600080fd5b505afa15801562000df3573d6000803e3d6000fd5b505050506040513d602081101562000e0a57600080fd5b810190808051906020019092919050505090508984848484985098509850985098505050505091939590929450565b600160009054906101000a900473ffffffffffffffffffffffffffffffffffffffff1681565b60036020528060005260406000206000915054906101000a900473ffffffffffffffffffffffffffffffffffffffff1681565b6000600280549050905090565b6000809054906101000a900473ffffffffffffffffffffffffffffffffffffffff1681565b60028181548110151562000ed457fe5b906000526020600020016000915054906101000a900473ffffffffffffffffffffffffffffffffffffffff1681565b60046020528060005260406000206000915054906101000a900473ffffffffffffffffffffffffffffffffffffffff1681565b600080896000809054906101000a900473ffffffffffffffffffffffffffffffffffffffff16600160009054906101000a900473ffffffffffffffffffffffffffffffffffffffff168b8b8b8b8b8b8b62000f90620013d2565b808b73ffffffffffffffffffffffffffffffffffffffff1673ffffffffffffffffffffffffffffffffffffffff1681526020018a73ffffffffffffffffffffffffffffffffffffffff1673ffffffffffffffffffffffffffffffffffffffff1681526020018973ffffffffffffffffffffffffffffffffffffffff1673ffffffffffffffffffffffffffffffffffffffff16815260200188815260200187815260200186815260200180602001806020018060200180602001858103855289818151815260200191508051906020019080838360005b838110156200108357808201518184015260208101905062001066565b50505050905090810190601f168015620010b15780820380516001836020036101000a031916815260200191505b50858103845288818151815260200191508051906020019080838360005b83811015620010ec578082015181840152602081019050620010cf565b50505050905090810190601f1680156200111a5780820380516001836020036101000a031916815260200191505b50858103835287818151815260200191508051906020019080838360005b838110156200115557808201518184015260208101905062001138565b50505050905090810190601f168015620011835780820380516001836020036101000a031916815260200191505b50858103825286818151815260200191508051906020019080838360005b83811015620011be578082015181840152602081019050620011a1565b50505050905090810190601f168015620011ec5780820380516001836020036101000a031916815260200191505b509e505050505050505050505050505050604051809103906000f0801580156200121a573d6000803e3d6000fd5b50905060028190806001815401808255809150509060018203906000526020600020016000909192909190916101000a81548173ffffffffffffffffffffffffffffffffffffffff021916908373ffffffffffffffffffffffffffffffffffffffff1602179055505089600360008373ffffffffffffffffffffffffffffffffffffffff1673ffffffffffffffffffffffffffffffffffffffff16815260200190815260200160002060006101000a81548173ffffffffffffffffffffffffffffffffffffffff021916908373ffffffffffffffffffffffffffffffffffffffff16021790555080600460008c73ffffffffffffffffffffffffffffffffffffffff1673ffffffffffffffffffffffffffffffffffffffff16815260200190815260200160002060006101000a81548173ffffffffffffffffffffffffffffffffffffffff021916908373ffffffffffffffffffffffffffffffffffffffff1602179055508073ffffffffffffffffffffffffffffffffffffffff167fcfb199724e80ef87a82c051c6bcbe15ca80dbd143a1a7ca4f90be72f4fd6bf8760405160405180910390a28091505098975050505050505050565b6040516148c880620013e48339019056fe60806040523480156200001157600080fd5b50604051620048c8380380620048c883398101806040526101408110156200003857600080fd5b8101908080519060200190929190805190602001909291908051906020019092919080519060200190929190805190602001909291908051906020019092919080516401000000008111156200008d57600080fd5b82810190506020810184811115620000a457600080fd5b8151856001820283011164010000000082111715620000c257600080fd5b50509291906020018051640100000000811115620000df57600080fd5b82810190506020810184811115620000f657600080fd5b81518560018202830111640100000000821117156200011457600080fd5b505092919060200180516401000000008111156200013157600080fd5b828101905060208101848111156200014857600080fd5b81518560018202830111640100000000821117156200016657600080fd5b505092919060200180516401000000008111156200018357600080fd5b828101905060208101848111156200019a57600080fd5b8151856001820283011164010000000082111715620001b857600080fd5b5050929190505050838383838360009080519060200190620001dc92919062000603565b508260019080519060200190620001f592919062000603565b5081600290805190602001906200020e92919062000603565b5080600390805190602001906200022792919062000603565b505050505088607960006101000a81548173ffffffffffffffffffffffffffffffffffffffff021916908373ffffffffffffffffffffffffffffffffffffffff16021790555087607a60006101000a81548173ffffffffffffffffffffffffffffffffffffffff021916908373ffffffffffffffffffffffffffffffffffffffff16021790555060008710158015620002c1575060648711155b151562000336576040517f08c379a00000000000000000000000000000000000000000000000000000000081526004018080602001828103825260198152602001807f696e76616c696420636f6d70656e736174696f6e20726174650000000000000081525060200191505060405180910390fd5b86600781905550856074819055506200035f603c62000390640100000000026401000000009004565b84607781905550620003808a62000417640100000000026401000000009004565b50505050505050505050620006b2565b8060745481111515156200040c576040517f08c379a00000000000000000000000000000000000000000000000000000000081526004018080602001828103825260128152602001807f646f6e74206c6f636b20746f6f206c6f6e67000000000000000000000000000081525060200191505060405180910390fd5b816073819055505050565b600c60019054906101000a900460ff168062000448575062000447620005f2640100000000026401000000009004565b5b80620004615750600c60009054906101000a900460ff16155b1515620004ba576040517f08c379a000000000000000000000000000000000000000000000000000000000815260040180806020018281038252602e8152602001806200489a602e913960400191505060405180910390fd5b6000600c60019054906101000a900460ff1615905080156200050d576001600c60016101000a81548160ff0219169083151502179055506001600c60006101000a81548160ff0219169083151502179055505b81603f60006101000a81548173ffffffffffffffffffffffffffffffffffffffff021916908373ffffffffffffffffffffffffffffffffffffffff160217905550603f60009054906101000a900473ffffffffffffffffffffffffffffffffffffffff1673ffffffffffffffffffffffffffffffffffffffff16600073ffffffffffffffffffffffffffffffffffffffff167f8be0079c531659141344cd1fd0a4f28419497f9722a3daafe3b4186f6b6457e060405160405180910390a38015620005ee576000600c60016101000a81548160ff0219169083151502179055505b5050565b600080303b90506000811491505090565b828054600181600116156101000203166002900490600052602060002090601f016020900481019282601f106200064657805160ff191683800117855562000677565b8280016001018555821562000677579182015b828111156200067657825182559160200191906001019062000659565b5b5090506200068691906200068a565b5090565b620006af91905b80821115620006ab57600081600090555060010162000691565b5090565b90565b6141d880620006c26000396000f3fe6080604052600436106102b0576000357c01000000000000000000000000000000000000000000000000000000009004806384c6c2e311610177578063d1a82a9d116100de578063e239c40011610097578063e239c4001461114a578063edfd36cd14611175578063ee0cfb091461118c578063ee419a88146111f1578063f2fde38b1461121c578063fb7f21eb1461126d576102b0565b8063d1a82a9d14610d2a578063d66d9e1914610d81578063dbed1e8814610d98578063dd62ed3e14610dfd578063e06d12fc14610e82578063e1fe7d231461110f576102b0565b8063acf1ba9f11610130578063acf1ba9f14610b73578063beb0a41614610b9e578063c4d66de814610c2e578063cadba0d114610c7f578063cd92c57d14610caa578063d12c33b714610cc1576102b0565b806384c6c2e3146109b15780638da5cb5b146109dc5780638e7dce4e14610a335780638f32d59b14610a5e578063a457c2d714610a8d578063a9059cbb14610b00576102b0565b80634d840bcc1161021b57806359aa9506116101d457806359aa9506146107fd5780636e7348c91461085457806370a08231146108b957806370c9b0f71461091e578063715018a6146109495780637a2bee5e14610960576102b0565b80634d840bcc146106825780634e69d560146106b15780634eb665af146106dc5780634f1bfc9e146107175780634f8457e414610742578063516f279e1461076d576102b0565b806323b872dd1161026d57806323b872dd1461049457806339509351146105275780633aa9dd2a1461059a5780633c85053e146105f55780634166e0321461060c57806342d07a1e14610647576102b0565b806302173732146102b257806306fdde03146102e4578063095ea7b31461037457806311bfe32e146103e757806312d43a511461041257806318160ddd14610469575b005b3480156102be57600080fd5b506102c76112fd565b604051808381526020018281526020019250505060405180910390f35b3480156102f057600080fd5b506102f96113f1565b6040518080602001828103825283818151815260200191508051906020019080838360005b8381101561033957808201518184015260208101905061031e565b50505050905090810190601f1680156103665780820380516001836020036101000a031916815260200191505b509250505060405180910390f35b34801561038057600080fd5b506103cd6004803603604081101561039757600080fd5b81019080803573ffffffffffffffffffffffffffffffffffffffff1690602001909291908035906020019092919050505061148f565b604051808215151515815260200191505060405180910390f35b3480156103f357600080fd5b506103fc6115bc565b6040518082815260200191505060405180910390f35b34801561041e57600080fd5b506104276116b9565b604051808273ffffffffffffffffffffffffffffffffffffffff1673ffffffffffffffffffffffffffffffffffffffff16815260200191505060405180910390f35b34801561047557600080fd5b5061047e6116df565b6040518082815260200191505060405180910390f35b3480156104a057600080fd5b5061050d600480360360608110156104b757600080fd5b81019080803573ffffffffffffffffffffffffffffffffffffffff169060200190929190803573ffffffffffffffffffffffffffffffffffffffff169060200190929190803590602001909291905050506116e9565b604051808215151515815260200191505060405180910390f35b34801561053357600080fd5b506105806004803603604081101561054a57600080fd5b81019080803573ffffffffffffffffffffffffffffffffffffffff169060200190929190803590602001909291905050506118f1565b604051808215151515815260200191505060405180910390f35b3480156105a657600080fd5b506105f3600480360360408110156105bd57600080fd5b8101908080359060200190929190803573ffffffffffffffffffffffffffffffffffffffff169060200190929190505050611b28565b005b34801561060157600080fd5b5061060a611ebb565b005b34801561061857600080fd5b506106456004803603602081101561062f57600080fd5b8101908080359060200190929190505050611f7f565b005b34801561065357600080fd5b506106806004803603602081101561066a57600080fd5b8101908080359060200190929190505050612022565b005b34801561068e57600080fd5b50610697612060565b604051808215151515815260200191505060405180910390f35b3480156106bd57600080fd5b506106c661215d565b6040518082815260200191505060405180910390f35b3480156106e857600080fd5b50610715600480360360208110156106ff57600080fd5b810190808035906020019092919050505061225a565b005b34801561072357600080fd5b5061072c6122fd565b6040518082815260200191505060405180910390f35b34801561074e57600080fd5b50610757612303565b6040518082815260200191505060405180910390f35b34801561077957600080fd5b50610782612400565b6040518080602001828103825283818151815260200191508051906020019080838360005b838110156107c25780820151818401526020810190506107a7565b50505050905090810190601f1680156107ef5780820380516001836020036101000a031916815260200191505b509250505060405180910390f35b34801561080957600080fd5b5061081261249e565b604051808273ffffffffffffffffffffffffffffffffffffffff1673ffffffffffffffffffffffffffffffffffffffff16815260200191505060405180910390f35b34801561086057600080fd5b506108a36004803603602081101561087757600080fd5b81019080803573ffffffffffffffffffffffffffffffffffffffff1690602001909291905050506124c4565b6040518082815260200191505060405180910390f35b3480156108c557600080fd5b50610908600480360360208110156108dc57600080fd5b81019080803573ffffffffffffffffffffffffffffffffffffffff16906020019092919050505061254b565b6040518082815260200191505060405180910390f35b34801561092a57600080fd5b50610933612594565b6040518082815260200191505060405180910390f35b34801561095557600080fd5b5061095e612691565b005b34801561096c57600080fd5b506109af6004803603602081101561098357600080fd5b81019080803573ffffffffffffffffffffffffffffffffffffffff169060200190929190505050612765565b005b3480156109bd57600080fd5b506109c6612784565b6040518082815260200191505060405180910390f35b3480156109e857600080fd5b506109f161278a565b604051808273ffffffffffffffffffffffffffffffffffffffff1673ffffffffffffffffffffffffffffffffffffffff16815260200191505060405180910390f35b348015610a3f57600080fd5b50610a486127b4565b6040518082815260200191505060405180910390f35b348015610a6a57600080fd5b50610a736127f6565b604051808215151515815260200191505060405180910390f35b348015610a9957600080fd5b50610ae660048036036040811015610ab057600080fd5b81019080803573ffffffffffffffffffffffffffffffffffffffff1690602001909291908035906020019092919050505061284e565b604051808215151515815260200191505060405180910390f35b348015610b0c57600080fd5b50610b5960048036036040811015610b2357600080fd5b81019080803573ffffffffffffffffffffffffffffffffffffffff16906020019092919080359060200190929190505050612a85565b604051808215151515815260200191505060405180910390f35b348015610b7f57600080fd5b50610b88612aca565b6040518082815260200191505060405180910390f35b348015610baa57600080fd5b50610bb3612ad0565b6040518080602001828103825283818151815260200191508051906020019080838360005b83811015610bf3578082015181840152602081019050610bd8565b50505050905090810190601f168015610c205780820380516001836020036101000a031916815260200191505b509250505060405180910390f35b348015610c3a57600080fd5b50610c7d60048036036020811015610c5157600080fd5b81019080803573ffffffffffffffffffffffffffffffffffffffff169060200190929190505050612b6e565b005b348015610c8b57600080fd5b50610c94612d32565b6040518082815260200191505060405180910390f35b348015610cb657600080fd5b50610cbf612d3c565b005b348015610ccd57600080fd5b50610d1060048036036020811015610ce457600080fd5b81019080803573ffffffffffffffffffffffffffffffffffffffff169060200190929190505050612f30565b604051808215151515815260200191505060405180910390f35b348015610d3657600080fd5b50610d3f612f7b565b604051808273ffffffffffffffffffffffffffffffffffffffff1673ffffffffffffffffffffffffffffffffffffffff16815260200191505060405180910390f35b348015610d8d57600080fd5b50610d96613078565b005b348015610da457600080fd5b50610de760048036036020811015610dbb57600080fd5b81019080803573ffffffffffffffffffffffffffffffffffffffff169060200190929190505050613095565b6040518082815260200191505060405180910390f35b348015610e0957600080fd5b50610e6c60048036036040811015610e2057600080fd5b81019080803573ffffffffffffffffffffffffffffffffffffffff169060200190929190803573ffffffffffffffffffffffffffffffffffffffff1690602001909291905050506130de565b6040518082815260200191505060405180910390f35b348015610e8e57600080fd5b5061110d60048036036080811015610ea557600080fd5b8101908080359060200190640100000000811115610ec257600080fd5b820183602082011115610ed457600080fd5b80359060200191846001830284011164010000000083111715610ef657600080fd5b91908080601f016020809104026020016040519081016040528093929190818152602001838380828437600081840152601f19601f82011690508083019250505050505050919291929080359060200190640100000000811115610f5957600080fd5b820183602082011115610f6b57600080fd5b80359060200191846001830284011164010000000083111715610f8d57600080fd5b91908080601f016020809104026020016040519081016040528093929190818152602001838380828437600081840152601f19601f82011690508083019250505050505050919291929080359060200190640100000000811115610ff057600080fd5b82018360208201111561100257600080fd5b8035906020019184600183028401116401000000008311171561102457600080fd5b91908080601f016020809104026020016040519081016040528093929190818152602001838380828437600081840152601f19601f8201169050808301925050505050505091929192908035906020019064010000000081111561108757600080fd5b82018360208201111561109957600080fd5b803590602001918460018302840111640100000000831117156110bb57600080fd5b91908080601f016020809104026020016040519081016040528093929190818152602001838380828437600081840152601f19601f820116905080830192505050505050509192919290505050613165565b005b34801561111b57600080fd5b506111486004803603602081101561113257600080fd5b81019080803590602001909291905050506131c7565b005b34801561115657600080fd5b5061115f61332f565b6040518082815260200191505060405180910390f35b34801561118157600080fd5b5061118a613339565b005b34801561119857600080fd5b506111db600480360360208110156111af57600080fd5b81019080803573ffffffffffffffffffffffffffffffffffffffff16906020019092919050505061334a565b6040518082815260200191505060405180910390f35b3480156111fd57600080fd5b50611206613362565b6040518082815260200191505060405180910390f35b34801561122857600080fd5b5061126b6004803603602081101561123f57600080fd5b81019080803573ffffffffffffffffffffffffffffffffffffffff169060200190929190505050613368565b005b34801561127957600080fd5b50611282613387565b6040518080602001828103825283818151815260200191508051906020019080838360005b838110156112c25780820151818401526020810190506112a7565b50505050905090810190601f1680156112ef5780820380516001836020036101000a031916815260200191505b509250505060405180910390f35b600080600061132e600b543073ffffffffffffffffffffffffffffffffffffffff163161342590919063ffffffff16565b905060006064600754830281151561134257fe5b049050600061134f6116df565b141561137a5761136a82600a5461344790919063ffffffff16565b60008090509350935050506113ed565b60006113846116df565b6113af650100000000006113a1858761342590919063ffffffff16565b61346890919063ffffffff16565b8115156113b857fe5b0490506113d082600a5461344790919063ffffffff16565b6113e58260095461344790919063ffffffff16565b945094505050505b9091565b60008054600181600116156101000203166002900480601f0160208091040260200160405190810160405280929190818152602001828054600181600116156101000203166002900480156114875780601f1061145c57610100808354040283529160200191611487565b820191906000526020600020905b81548152906001019060200180831161146a57829003601f168201915b505050505081565b60008073ffffffffffffffffffffffffffffffffffffffff168373ffffffffffffffffffffffffffffffffffffffff16141515156114cc57600080fd5b81600560003373ffffffffffffffffffffffffffffffffffffffff1673ffffffffffffffffffffffffffffffffffffffff16815260200190815260200160002060008573ffffffffffffffffffffffffffffffffffffffff1673ffffffffffffffffffffffffffffffffffffffff168152602001908152602001600020819055508273ffffffffffffffffffffffffffffffffffffffff163373ffffffffffffffffffffffffffffffffffffffff167f8c5be1e5ebec7d5bd14f71427d1e84f3dd0314c0f7b2291e5b200ac8c7c3b925846040518082815260200191505060405180910390a36001905092915050565b6000607a60009054906101000a900473ffffffffffffffffffffffffffffffffffffffff1673ffffffffffffffffffffffffffffffffffffffff1663f8b2cb4f306040518263ffffffff167c0100000000000000000000000000000000000000000000000000000000028152600401808273ffffffffffffffffffffffffffffffffffffffff1673ffffffffffffffffffffffffffffffffffffffff16815260200191505060206040518083038186803b15801561167957600080fd5b505afa15801561168d573d6000803e3d6000fd5b505050506040513d60208110156116a357600080fd5b8101908080519060200190929190505050905090565b607a60009054906101000a900473ffffffffffffffffffffffffffffffffffffffff1681565b6000600654905090565b600061177a82600560008773ffffffffffffffffffffffffffffffffffffffff1673ffffffffffffffffffffffffffffffffffffffff16815260200190815260200160002060003373ffffffffffffffffffffffffffffffffffffffff1673ffffffffffffffffffffffffffffffffffffffff1681526020019081526020016000205461342590919063ffffffff16565b600560008673ffffffffffffffffffffffffffffffffffffffff1673ffffffffffffffffffffffffffffffffffffffff16815260200190815260200160002060003373ffffffffffffffffffffffffffffffffffffffff1673ffffffffffffffffffffffffffffffffffffffff168152602001908152602001600020819055506118058484846134a6565b3373ffffffffffffffffffffffffffffffffffffffff168473ffffffffffffffffffffffffffffffffffffffff167f8c5be1e5ebec7d5bd14f71427d1e84f3dd0314c0f7b2291e5b200ac8c7c3b925600560008873ffffffffffffffffffffffffffffffffffffffff1673ffffffffffffffffffffffffffffffffffffffff16815260200190815260200160002060003373ffffffffffffffffffffffffffffffffffffffff1673ffffffffffffffffffffffffffffffffffffffff168152602001908152602001600020546040518082815260200191505060405180910390a3600190509392505050565b60008073ffffffffffffffffffffffffffffffffffffffff168373ffffffffffffffffffffffffffffffffffffffff161415151561192e57600080fd5b6119bd82600560003373ffffffffffffffffffffffffffffffffffffffff1673ffffffffffffffffffffffffffffffffffffffff16815260200190815260200160002060008673ffffffffffffffffffffffffffffffffffffffff1673ffffffffffffffffffffffffffffffffffffffff1681526020019081526020016000205461344790919063ffffffff16565b600560003373ffffffffffffffffffffffffffffffffffffffff1673ffffffffffffffffffffffffffffffffffffffff16815260200190815260200160002060008573ffffffffffffffffffffffffffffffffffffffff1673ffffffffffffffffffffffffffffffffffffffff168152602001908152602001600020819055508273ffffffffffffffffffffffffffffffffffffffff163373ffffffffffffffffffffffffffffffffffffffff167f8c5be1e5ebec7d5bd14f71427d1e84f3dd0314c0f7b2291e5b200ac8c7c3b925600560003373ffffffffffffffffffffffffffffffffffffffff1673ffffffffffffffffffffffffffffffffffffffff16815260200190815260200160002060008773ffffffffffffffffffffffffffffffffffffffff1673ffffffffffffffffffffffffffffffffffffffff168152602001908152602001600020546040518082815260200191505060405180910390a36001905092915050565b611b306127f6565b1515611b3b57600080fd5b611b43612303565b611b586075548461344790919063ffffffff16565b11151515611bce576040517f08c379a00000000000000000000000000000000000000000000000000000000081526004018080602001828103825260128152602001807f6e6f7420656e6f75676820746f206a6f696e000000000000000000000000000081525060200191505060405180910390fd5b607960009054906101000a900473ffffffffffffffffffffffffffffffffffffffff1673ffffffffffffffffffffffffffffffffffffffff1663095ea7b3607a60009054906101000a900473ffffffffffffffffffffffffffffffffffffffff16846040518363ffffffff167c0100000000000000000000000000000000000000000000000000000000028152600401808373ffffffffffffffffffffffffffffffffffffffff1673ffffffffffffffffffffffffffffffffffffffff16815260200182815260200192505050602060405180830381600087803b158015611cb557600080fd5b505af1158015611cc9573d6000803e3d6000fd5b505050506040513d6020811015611cdf57600080fd5b810190808051906020019092919050505050607a60009054906101000a900473ffffffffffffffffffffffffffffffffffffffff1673ffffffffffffffffffffffffffffffffffffffff1663b6b55f25836040518263ffffffff167c010000000000000000000000000000000000000000000000000000000002815260040180828152602001915050602060405180830381600087803b158015611d8257600080fd5b505af1158015611d96573d6000803e3d6000fd5b505050506040513d6020811015611dac57600080fd5b810190808051906020019092919050505050607a60009054906101000a900473ffffffffffffffffffffffffffffffffffffffff1673ffffffffffffffffffffffffffffffffffffffff166328ffe6c8826040518263ffffffff167c0100000000000000000000000000000000000000000000000000000000028152600401808273ffffffffffffffffffffffffffffffffffffffff1673ffffffffffffffffffffffffffffffffffffffff168152602001915050602060405180830381600087803b158015611e7b57600080fd5b505af1158015611e8f573d6000803e3d6000fd5b505050506040513d6020811015611ea557600080fd5b8101908080519060200190929190505050505050565b607a60009054906101000a900473ffffffffffffffffffffffffffffffffffffffff1673ffffffffffffffffffffffffffffffffffffffff16633ccfd60b6040518163ffffffff167c0100000000000000000000000000000000000000000000000000000000028152600401602060405180830381600087803b158015611f4157600080fd5b505af1158015611f55573d6000803e3d6000fd5b505050506040513d6020811015611f6b57600080fd5b810190808051906020019092919050505050565b611f876127f6565b1515611f9257600080fd5b607754607854014211151561200f576040517f08c379a00000000000000000000000000000000000000000000000000000000081526004018080602001828103825260148152602001807f646f6e74206368616e676520746f20717569636b00000000000000000000000081525060200191505060405180910390fd5b4260788190555061201f81613676565b50565b61202a613680565b6000339050612038816136bc565b600061204482846137c6565b9050612050828261390e565b61205b826000613a64565b505050565b6000607a60009054906101000a900473ffffffffffffffffffffffffffffffffffffffff1673ffffffffffffffffffffffffffffffffffffffff166302a18484306040518263ffffffff167c0100000000000000000000000000000000000000000000000000000000028152600401808273ffffffffffffffffffffffffffffffffffffffff1673ffffffffffffffffffffffffffffffffffffffff16815260200191505060206040518083038186803b15801561211d57600080fd5b505afa158015612131573d6000803e3d6000fd5b505050506040513d602081101561214757600080fd5b8101908080519060200190929190505050905090565b6000607a60009054906101000a900473ffffffffffffffffffffffffffffffffffffffff1673ffffffffffffffffffffffffffffffffffffffff166330ccebb5306040518263ffffffff167c0100000000000000000000000000000000000000000000000000000000028152600401808273ffffffffffffffffffffffffffffffffffffffff1673ffffffffffffffffffffffffffffffffffffffff16815260200191505060206040518083038186803b15801561221a57600080fd5b505afa15801561222e573d6000803e3d6000fd5b505050506040513d602081101561224457600080fd5b8101908080519060200190929190505050905090565b6122626127f6565b151561226d57600080fd5b60775460785401421115156122ea576040517f08c379a00000000000000000000000000000000000000000000000000000000081526004018080602001828103825260148152602001807f646f6e74206368616e676520746f20717569636b00000000000000000000000081525060200191505060405180910390fd5b426078819055506122fa81613adb565b50565b60745481565b6000607960009054906101000a900473ffffffffffffffffffffffffffffffffffffffff1673ffffffffffffffffffffffffffffffffffffffff166370a08231306040518263ffffffff167c0100000000000000000000000000000000000000000000000000000000028152600401808273ffffffffffffffffffffffffffffffffffffffff1673ffffffffffffffffffffffffffffffffffffffff16815260200191505060206040518083038186803b1580156123c057600080fd5b505afa1580156123d4573d6000803e3d6000fd5b505050506040513d60208110156123ea57600080fd5b8101908080519060200190929190505050905090565b60028054600181600116156101000203166002900480601f0160208091040260200160405190810160405280929190818152602001828054600181600116156101000203166002900480156124965780601f1061246b57610100808354040283529160200191612496565b820191906000526020600020905b81548152906001019060200180831161247957829003601f168201915b505050505081565b607960009054906101000a900473ffffffffffffffffffffffffffffffffffffffff1681565b60008060006124d16112fd565b91509150600860008573ffffffffffffffffffffffffffffffffffffffff1673ffffffffffffffffffffffffffffffffffffffff1681526020019081526020016000205465010000000000612537836125298861254b565b61346890919063ffffffff16565b81151561254057fe5b040392505050919050565b6000600460008373ffffffffffffffffffffffffffffffffffffffff1673ffffffffffffffffffffffffffffffffffffffff168152602001908152602001600020549050919050565b6000607a60009054906101000a900473ffffffffffffffffffffffffffffffffffffffff1673ffffffffffffffffffffffffffffffffffffffff166355235d47306040518263ffffffff167c0100000000000000000000000000000000000000000000000000000000028152600401808273ffffffffffffffffffffffffffffffffffffffff1673ffffffffffffffffffffffffffffffffffffffff16815260200191505060206040518083038186803b15801561265157600080fd5b505afa158015612665573d6000803e3d6000fd5b505050506040513d602081101561267b57600080fd5b8101908080519060200190929190505050905090565b6126996127f6565b15156126a457600080fd5b600073ffffffffffffffffffffffffffffffffffffffff16603f60009054906101000a900473ffffffffffffffffffffffffffffffffffffffff1673ffffffffffffffffffffffffffffffffffffffff167f8be0079c531659141344cd1fd0a4f28419497f9722a3daafe3b4186f6b6457e060405160405180910390a36000603f60006101000a81548173ffffffffffffffffffffffffffffffffffffffff021916908373ffffffffffffffffffffffffffffffffffffffff160217905550565b61276d6127f6565b151561277857600080fd5b61278181613b61565b50565b60075481565b6000603f60009054906101000a900473ffffffffffffffffffffffffffffffffffffffff16905090565b60008060006127c16112fd565b915091506127ef823073ffffffffffffffffffffffffffffffffffffffff163161342590919063ffffffff16565b9250505090565b6000603f60009054906101000a900473ffffffffffffffffffffffffffffffffffffffff1673ffffffffffffffffffffffffffffffffffffffff163373ffffffffffffffffffffffffffffffffffffffff1614905090565b60008073ffffffffffffffffffffffffffffffffffffffff168373ffffffffffffffffffffffffffffffffffffffff161415151561288b57600080fd5b61291a82600560003373ffffffffffffffffffffffffffffffffffffffff1673ffffffffffffffffffffffffffffffffffffffff16815260200190815260200160002060008673ffffffffffffffffffffffffffffffffffffffff1673ffffffffffffffffffffffffffffffffffffffff1681526020019081526020016000205461342590919063ffffffff16565b600560003373ffffffffffffffffffffffffffffffffffffffff1673ffffffffffffffffffffffffffffffffffffffff16815260200190815260200160002060008573ffffffffffffffffffffffffffffffffffffffff1673ffffffffffffffffffffffffffffffffffffffff168152602001908152602001600020819055508273ffffffffffffffffffffffffffffffffffffffff163373ffffffffffffffffffffffffffffffffffffffff167f8c5be1e5ebec7d5bd14f71427d1e84f3dd0314c0f7b2291e5b200ac8c7c3b925600560003373ffffffffffffffffffffffffffffffffffffffff1673ffffffffffffffffffffffffffffffffffffffff16815260200190815260200160002060008773ffffffffffffffffffffffffffffffffffffffff1673ffffffffffffffffffffffffffffffffffffffff168152602001908152602001600020546040518082815260200191505060405180910390a36001905092915050565b60008073ffffffffffffffffffffffffffffffffffffffff168373ffffffffffffffffffffffffffffffffffffffff16148015612ac25750600082145b905092915050565b60755481565b60018054600181600116156101000203166002900480601f016020809104026020016040519081016040528092919081815260200182805460018160011615610100020316600290048015612b665780601f10612b3b57610100808354040283529160200191612b66565b820191906000526020600020905b815481529060010190602001808311612b4957829003601f168201915b505050505081565b600c60019054906101000a900460ff1680612b8d5750612b8c613bde565b5b80612ba55750600c60009054906101000a900460ff16155b1515612bfc576040517f08c379a000000000000000000000000000000000000000000000000000000000815260040180806020018281038252602e815260200180614156602e913960400191505060405180910390fd5b6000600c60019054906101000a900460ff161590508015612c4e576001600c60016101000a81548160ff0219169083151502179055506001600c60006101000a81548160ff0219169083151502179055505b81603f60006101000a81548173ffffffffffffffffffffffffffffffffffffffff021916908373ffffffffffffffffffffffffffffffffffffffff160217905550603f60009054906101000a900473ffffffffffffffffffffffffffffffffffffffff1673ffffffffffffffffffffffffffffffffffffffff16600073ffffffffffffffffffffffffffffffffffffffff167f8be0079c531659141344cd1fd0a4f28419497f9722a3daafe3b4186f6b6457e060405160405180910390a38015612d2e576000600c60016101000a81548160ff0219169083151502179055505b5050565b6501000000000081565b612d4533612f30565b151515612dba576040517f08c379a000000000000000000000000000000000000000000000000000000000815260040180806020018281038252600d8152602001807f7374696c6c206c6f636b696e670000000000000000000000000000000000000081525060200191505060405180910390fd5b60003390506000607660008373ffffffffffffffffffffffffffffffffffffffff1673ffffffffffffffffffffffffffffffffffffffff168152602001908152602001600020549050612e0b612303565b811115612e2157612e1a613bef565b5050612f2e565b607960009054906101000a900473ffffffffffffffffffffffffffffffffffffffff1673ffffffffffffffffffffffffffffffffffffffff1663a9059cbb83836040518363ffffffff167c0100000000000000000000000000000000000000000000000000000000028152600401808373ffffffffffffffffffffffffffffffffffffffff1673ffffffffffffffffffffffffffffffffffffffff16815260200182815260200192505050602060405180830381600087803b158015612ee657600080fd5b505af1158015612efa573d6000803e3d6000fd5b505050506040513d6020811015612f1057600080fd5b810190808051906020019092919050505050612f2b82613cb3565b50505b565b600042607260008473ffffffffffffffffffffffffffffffffffffffff1673ffffffffffffffffffffffffffffffffffffffff16815260200190815260200160002054119050919050565b6000607a60009054906101000a900473ffffffffffffffffffffffffffffffffffffffff1673ffffffffffffffffffffffffffffffffffffffff16630a9a3f07306040518263ffffffff167c0100000000000000000000000000000000000000000000000000000000028152600401808273ffffffffffffffffffffffffffffffffffffffff1673ffffffffffffffffffffffffffffffffffffffff16815260200191505060206040518083038186803b15801561303857600080fd5b505afa15801561304c573d6000803e3d6000fd5b505050506040513d602081101561306257600080fd5b8101908080519060200190929190505050905090565b6130806127f6565b151561308b57600080fd5b613093613bef565b565b6000607260008373ffffffffffffffffffffffffffffffffffffffff1673ffffffffffffffffffffffffffffffffffffffff168152602001908152602001600020549050919050565b6000600560008473ffffffffffffffffffffffffffffffffffffffff1673ffffffffffffffffffffffffffffffffffffffff16815260200190815260200160002060008373ffffffffffffffffffffffffffffffffffffffff1673ffffffffffffffffffffffffffffffffffffffff16815260200190815260200160002054905092915050565b836000908051906020019061317b9291906140b0565b5082600190805190602001906131929291906140b0565b5081600290805190602001906131a99291906140b0565b5080600390805190602001906131c09291906140b0565b5050505050565b6131cf613680565b600033905060006131df82613d53565b9050607960009054906101000a900473ffffffffffffffffffffffffffffffffffffffff1673ffffffffffffffffffffffffffffffffffffffff166323b872dd8330866040518463ffffffff167c0100000000000000000000000000000000000000000000000000000000028152600401808473ffffffffffffffffffffffffffffffffffffffff1673ffffffffffffffffffffffffffffffffffffffff1681526020018373ffffffffffffffffffffffffffffffffffffffff1673ffffffffffffffffffffffffffffffffffffffff1681526020018281526020019350505050602060405180830381600087803b1580156132da57600080fd5b505af11580156132ee573d6000803e3d6000fd5b505050506040513d602081101561330457600080fd5b8101908080519060200190929190505050506133208284613dcb565b61332a8282613a64565b505050565b6000607354905090565b6000339050613347816136bc565b50565b60766020528060005260406000206000915090505481565b60775481565b6133706127f6565b151561337b57600080fd5b61338481613f21565b50565b60038054600181600116156101000203166002900480601f01602080910402602001604051908101604052809291908181526020018280546001816001161561010002031660029004801561341d5780601f106133f25761010080835404028352916020019161341d565b820191906000526020600020905b81548152906001019060200180831161340057829003601f168201915b505050505081565b600082821115151561343657600080fd5b600082840390508091505092915050565b600080828401905083811015151561345e57600080fd5b8091505092915050565b60008083141561347b57600090506134a0565b6000828402905082848281151561348e57fe5b0414151561349b57600080fd5b809150505b92915050565b600073ffffffffffffffffffffffffffffffffffffffff168273ffffffffffffffffffffffffffffffffffffffff16141515156134e257600080fd5b61353481600460008673ffffffffffffffffffffffffffffffffffffffff1673ffffffffffffffffffffffffffffffffffffffff1681526020019081526020016000205461342590919063ffffffff16565b600460008573ffffffffffffffffffffffffffffffffffffffff1673ffffffffffffffffffffffffffffffffffffffff168152602001908152602001600020819055506135c981600460008573ffffffffffffffffffffffffffffffffffffffff1673ffffffffffffffffffffffffffffffffffffffff1681526020019081526020016000205461344790919063ffffffff16565b600460008473ffffffffffffffffffffffffffffffffffffffff1673ffffffffffffffffffffffffffffffffffffffff168152602001908152602001600020819055508173ffffffffffffffffffffffffffffffffffffffff168373ffffffffffffffffffffffffffffffffffffffff167fddf252ad1be2c89b69c2b068fc378daa952ba7f163c4a11628f55a4df523b3ef836040518082815260200191505060405180910390a3505050565b8060078190555050565b6136886112fd565b600a6000600960008491905055839190505550503073ffffffffffffffffffffffffffffffffffffffff1631600b81905550565b6136c4613680565b60006136cf82613d53565b905080600860008473ffffffffffffffffffffffffffffffffffffffff1673ffffffffffffffffffffffffffffffffffffffff1681526020019081526020016000205401600860008473ffffffffffffffffffffffffffffffffffffffff1673ffffffffffffffffffffffffffffffffffffffff1681526020019081526020016000208190555061376b81600b5461342590919063ffffffff16565b600b8190555061377a82613d53565b508173ffffffffffffffffffffffffffffffffffffffff166108fc829081150290604051600060405180830381858888f193505050501580156137c1573d6000803e3d6000fd5b505050565b6000607660008473ffffffffffffffffffffffffffffffffffffffff1673ffffffffffffffffffffffffffffffffffffffff1681526020019081526020016000205482111515613861576040517f08c379a00000000000000000000000000000000000000000000000000000000081526004018080602001828103825260298152602001806141846029913960400191505060405180910390fd5b6000607660008573ffffffffffffffffffffffffffffffffffffffff1673ffffffffffffffffffffffffffffffffffffffff168152602001908152602001600020548303905082607660008673ffffffffffffffffffffffffffffffffffffffff1673ffffffffffffffffffffffffffffffffffffffff16815260200190815260200160002081905550826075600082825401925050819055506139048461401d565b8091505092915050565b600073ffffffffffffffffffffffffffffffffffffffff168273ffffffffffffffffffffffffffffffffffffffff161415151561394a57600080fd5b61395f8160065461342590919063ffffffff16565b6006819055506139b781600460008573ffffffffffffffffffffffffffffffffffffffff1673ffffffffffffffffffffffffffffffffffffffff1681526020019081526020016000205461342590919063ffffffff16565b600460008473ffffffffffffffffffffffffffffffffffffffff1673ffffffffffffffffffffffffffffffffffffffff16815260200190815260200160002081905550600073ffffffffffffffffffffffffffffffffffffffff168273ffffffffffffffffffffffffffffffffffffffff167fddf252ad1be2c89b69c2b068fc378daa952ba7f163c4a11628f55a4df523b3ef836040518082815260200191505060405180910390a35050565b8065010000000000613a89600954613a7b8661254b565b61346890919063ffffffff16565b811515613a9257fe5b0403600860008473ffffffffffffffffffffffffffffffffffffffff1673ffffffffffffffffffffffffffffffffffffffff168152602001908152602001600020819055505050565b806074548111151515613b56576040517f08c379a00000000000000000000000000000000000000000000000000000000081526004018080602001828103825260128152602001807f646f6e74206c6f636b20746f6f206c6f6e67000000000000000000000000000081525060200191505060405180910390fd5b816073819055505050565b613b69613680565b6000600a5490506000600a81905550613b8d81600b5461342590919063ffffffff16565b600b819055508173ffffffffffffffffffffffffffffffffffffffff166108fc829081150290604051600060405180830381858888f19350505050158015613bd9573d6000803e3d6000fd5b505050565b600080303b90506000811491505090565b607a60009054906101000a900473ffffffffffffffffffffffffffffffffffffffff1673ffffffffffffffffffffffffffffffffffffffff1663d66d9e196040518163ffffffff167c0100000000000000000000000000000000000000000000000000000000028152600401602060405180830381600087803b158015613c7557600080fd5b505af1158015613c89573d6000803e3d6000fd5b505050506040513d6020811015613c9f57600080fd5b810190808051906020019092919050505050565b607660008273ffffffffffffffffffffffffffffffffffffffff1673ffffffffffffffffffffffffffffffffffffffff168152602001908152602001600020546075600082825403925050819055506000607660008373ffffffffffffffffffffffffffffffffffffffff1673ffffffffffffffffffffffffffffffffffffffff16815260200190815260200160002081905550613d5081614068565b50565b6000600860008373ffffffffffffffffffffffffffffffffffffffff1673ffffffffffffffffffffffffffffffffffffffff1681526020019081526020016000205465010000000000613db9600954613dab8661254b565b61346890919063ffffffff16565b811515613dc257fe5b04039050919050565b600073ffffffffffffffffffffffffffffffffffffffff168273ffffffffffffffffffffffffffffffffffffffff1614151515613e0757600080fd5b613e1c8160065461344790919063ffffffff16565b600681905550613e7481600460008573ffffffffffffffffffffffffffffffffffffffff1673ffffffffffffffffffffffffffffffffffffffff1681526020019081526020016000205461344790919063ffffffff16565b600460008473ffffffffffffffffffffffffffffffffffffffff1673ffffffffffffffffffffffffffffffffffffffff168152602001908152602001600020819055508173ffffffffffffffffffffffffffffffffffffffff16600073ffffffffffffffffffffffffffffffffffffffff167fddf252ad1be2c89b69c2b068fc378daa952ba7f163c4a11628f55a4df523b3ef836040518082815260200191505060405180910390a35050565b600073ffffffffffffffffffffffffffffffffffffffff168173ffffffffffffffffffffffffffffffffffffffff1614151515613f5d57600080fd5b8073ffffffffffffffffffffffffffffffffffffffff16603f60009054906101000a900473ffffffffffffffffffffffffffffffffffffffff1673ffffffffffffffffffffffffffffffffffffffff167f8be0079c531659141344cd1fd0a4f28419497f9722a3daafe3b4186f6b6457e060405160405180910390a380603f60006101000a81548173ffffffffffffffffffffffffffffffffffffffff021916908373ffffffffffffffffffffffffffffffffffffffff16021790555050565b6073544201607260008373ffffffffffffffffffffffffffffffffffffffff1673ffffffffffffffffffffffffffffffffffffffff1681526020019081526020016000208190555050565b6000607260008373ffffffffffffffffffffffffffffffffffffffff1673ffffffffffffffffffffffffffffffffffffffff1681526020019081526020016000208190555050565b828054600181600116156101000203166002900490600052602060002090601f016020900481019282601f106140f157805160ff191683800117855561411f565b8280016001018555821561411f579182015b8281111561411e578251825591602001919060010190614103565b5b50905061412c9190614130565b5090565b61415291905b8082111561414e576000816000905550600101614136565b5090565b9056fe436f6e747261637420696e7374616e63652068617320616c7265616479206265656e20696e697469616c697a65646e657720616d6f756e74206d7573742062652067726561746572207468616e20746865206f6c646572a165627a7a723058201499558a2f6ce7f1956c6319b73a25a55060658b67443e0035c1baa66b00cbac0029436f6e747261637420696e7374616e63652068617320616c7265616479206265656e20696e697469616c697a6564a165627a7a7230582036bda5abc25a579be6df9c5add228756923ff5d9bc235672632438e1c14d48af0029",
  "source": "pragma solidity ^0.5.0;\n\nimport \"./ntfPool/NtfPool.sol\";\n\ninterface NtfPoolI {\n    function name() external view returns (string memory);\n    function getPoolNtfBalance() external view returns(uint256);\n    function getPoolGovBalance() external view returns(uint256);\n}\n\ncontract PoolMaker {\n    event NewPool(address indexed _address);\n    address public ntfAddress;\n    address public govAddress;\n    address[] public pools;\n    mapping(address => address) public poolOwner;\n    mapping(address => address) public ownedBy;\n\n    constructor (\n        address _ntfAddress,\n        address _govAddress\n    )\n      public\n    {\n        ntfAddress = _ntfAddress;\n        govAddress = _govAddress;\n    }\n\n    function createPool(\n        address _owner,\n        uint256 _COMPRATE,\n        uint256 _MAX_LOCK_DURATION,\n        uint256 _OWNER_ACTION_DELAY,\n        string memory _name,\n        string memory _website,\n        string memory _location,\n        string memory _profile\n    )\n        public\n        returns (address)\n    {\n        NtfPool ntfPool = new NtfPool(\n            _owner,\n            ntfAddress,\n            govAddress,\n            _COMPRATE,\n            _MAX_LOCK_DURATION,\n            _OWNER_ACTION_DELAY,\n            _name,\n            _website,\n            _location,\n            _profile\n        );\n        pools.push(address(ntfPool));\n        poolOwner[address(ntfPool)] = _owner;\n        ownedBy[_owner] = address(ntfPool);\n        emit NewPool(address(ntfPool));\n        return (address(ntfPool));\n    }\n\n    // Read\n\n    function getPoolCount()\n        public\n        view\n        returns(uint256)\n    {\n        return pools.length;\n    }\n\n    function getPool(uint256 i)\n        public\n        view\n        returns(address, address, string memory, uint256, uint256)\n    {\n        address _pAddress = pools[i];\n        address _owner = poolOwner[_pAddress];\n        string memory _name = NtfPoolI(_pAddress).name();\n        // avaiable balance\n        uint256 _poolNtfBalance = NtfPoolI(_pAddress).getPoolNtfBalance();\n        // in Gov Ntf balance\n        uint256 _poolGovBalance = NtfPoolI(_pAddress).getPoolGovBalance();\n        return(_pAddress, _owner, _name, _poolNtfBalance, _poolGovBalance);\n    }\n\n\n    function getPoolByAddress(address _pAddress)\n        public\n        view\n        returns(address, address, string memory, uint256, uint256)\n    {\n        address _owner = poolOwner[_pAddress];\n        string memory _name = NtfPoolI(_pAddress).name();\n        // avaiable balance\n        uint256 _poolNtfBalance = NtfPoolI(_pAddress).getPoolNtfBalance();\n        // in Gov Ntf balance\n        uint256 _poolGovBalance = NtfPoolI(_pAddress).getPoolGovBalance();\n        return(_pAddress, _owner, _name, _poolNtfBalance, _poolGovBalance);\n    }\n}",
  "sourcePath": "/home/dathoang/Documents/Project/sealing-pool/contracts/PoolMaker.sol",
  "compiler": {
    "name": "solc",
    "version": "0.5.2+commit.1df8f40c.Emscripten.clang"
  },
  "schemaVersion": "3.0.14",
  "updatedAt": "2020-05-05T04:14:12.510Z",
  "devdoc": {
    "methods": {}
  },
  "userdoc": {
    "methods": {}
  }
}