{
  "contractName": "Request",
  "abi": [
    {
      "constant": true,
      "inputs": [],
      "name": "MAX_LOCK_DURATION",
      "outputs": [
        {
          "name": "",
          "type": "uint256"
        }
      ],
      "payable": false,
      "stateMutability": "view",
      "type": "function"
    },
    {
      "constant": true,
      "inputs": [],
      "name": "pendingOutSum",
      "outputs": [
        {
          "name": "",
          "type": "uint256"
        }
      ],
      "payable": false,
      "stateMutability": "view",
      "type": "function"
    },
    {
      "constant": true,
      "inputs": [
        {
          "name": "_member",
          "type": "address"
        }
      ],
      "name": "isLocking",
      "outputs": [
        {
          "name": "",
          "type": "bool"
        }
      ],
      "payable": false,
      "stateMutability": "view",
      "type": "function"
    },
    {
      "constant": true,
      "inputs": [
        {
          "name": "_member",
          "type": "address"
        }
      ],
      "name": "getUnlockTime",
      "outputs": [
        {
          "name": "",
          "type": "uint256"
        }
      ],
      "payable": false,
      "stateMutability": "view",
      "type": "function"
    },
    {
      "constant": true,
      "inputs": [],
      "name": "getLockDuration",
      "outputs": [
        {
          "name": "",
          "type": "uint256"
        }
      ],
      "payable": false,
      "stateMutability": "view",
      "type": "function"
    },
    {
      "constant": true,
      "inputs": [
        {
          "name": "",
          "type": "address"
        }
      ],
      "name": "pendingOut",
      "outputs": [
        {
          "name": "",
          "type": "uint256"
        }
      ],
      "payable": false,
      "stateMutability": "view",
      "type": "function"
    }
  ],
  "bytecode": "0x608060405234801561001057600080fd5b506102d6806100206000396000f3fe608060405234801561001057600080fd5b506004361061007f576000357c0100000000000000000000000000000000000000000000000000000000900480634f1bfc9e14610084578063acf1ba9f146100a2578063d12c33b7146100c0578063dbed1e881461011c578063e239c40014610174578063ee0cfb0914610192575b600080fd5b61008c6101ea565b6040518082815260200191505060405180910390f35b6100aa6101f0565b6040518082815260200191505060405180910390f35b610102600480360360208110156100d657600080fd5b81019080803573ffffffffffffffffffffffffffffffffffffffff1690602001909291905050506101f6565b604051808215151515815260200191505060405180910390f35b61015e6004803603602081101561013257600080fd5b81019080803573ffffffffffffffffffffffffffffffffffffffff169060200190929190505050610240565b6040518082815260200191505060405180910390f35b61017c610288565b6040518082815260200191505060405180910390f35b6101d4600480360360208110156101a857600080fd5b81019080803573ffffffffffffffffffffffffffffffffffffffff169060200190929190505050610292565b6040518082815260200191505060405180910390f35b60025481565b60035481565b6000426000808473ffffffffffffffffffffffffffffffffffffffff1673ffffffffffffffffffffffffffffffffffffffff16815260200190815260200160002054119050919050565b60008060008373ffffffffffffffffffffffffffffffffffffffff1673ffffffffffffffffffffffffffffffffffffffff168152602001908152602001600020549050919050565b6000600154905090565b6004602052806000526040600020600091509050548156fea165627a7a723058208adf44f34583aa8f0970119340dee8bb2df73455f8393554dd532c04b4107ae90029",
  "source": "pragma solidity ^0.5.0;\nimport \"./Lockable.sol\";\n\ncontract Request is Lockable {\n    uint256 public pendingOutSum;\n\n    mapping(address => uint256) public pendingOut;\n\n    function _requestOut(\n        address _sender,\n        uint256 _amount)\n        internal\n        returns (uint256)\n    {\n        require(_amount > pendingOut[_sender], \"new amount must be greater than the older\");\n        uint256 _added = _amount - pendingOut[_sender];\n        pendingOut[_sender] = _amount;\n        pendingOutSum += _amount;\n        _setLock(_sender);\n        return _added;\n    }\n\n    function _removeRequest(\n        address _sender\n    )\n        internal\n    {\n        pendingOutSum -= pendingOut[_sender];\n        pendingOut[_sender] = 0;\n        _relock(_sender);\n    }\n}",
  "sourcePath": "/home/dathoang/Documents/Project/sealing-pool/contracts/ntfPool/Request.sol",
  "compiler": {
    "name": "solc",
    "version": "0.5.2+commit.1df8f40c.Emscripten.clang"
  },
  "schemaVersion": "3.0.14",
  "updatedAt": "2020-05-23T06:28:37.975Z",
  "devdoc": {
    "methods": {}
  },
  "userdoc": {
    "methods": {}
  }
}