{
  "contractName": "Request",
  "abi": [
    {
      "constant": true,
      "inputs": [],
      "name": "MAX_LOCK_DURATION",
      "outputs": [
        {
          "name": "",
          "type": "uint256"
        }
      ],
      "payable": false,
      "stateMutability": "view",
      "type": "function"
    },
    {
      "constant": true,
      "inputs": [],
      "name": "pendingOutSum",
      "outputs": [
        {
          "name": "",
          "type": "uint256"
        }
      ],
      "payable": false,
      "stateMutability": "view",
      "type": "function"
    },
    {
      "constant": true,
      "inputs": [
        {
          "name": "_member",
          "type": "address"
        }
      ],
      "name": "isLocking",
      "outputs": [
        {
          "name": "",
          "type": "bool"
        }
      ],
      "payable": false,
      "stateMutability": "view",
      "type": "function"
    },
    {
      "constant": true,
      "inputs": [
        {
          "name": "_member",
          "type": "address"
        }
      ],
      "name": "getUnlockTime",
      "outputs": [
        {
          "name": "",
          "type": "uint256"
        }
      ],
      "payable": false,
      "stateMutability": "view",
      "type": "function"
    },
    {
      "constant": true,
      "inputs": [],
      "name": "getLockDuration",
      "outputs": [
        {
          "name": "",
          "type": "uint256"
        }
      ],
      "payable": false,
      "stateMutability": "view",
      "type": "function"
    },
    {
      "constant": true,
      "inputs": [
        {
          "name": "",
          "type": "address"
        }
      ],
      "name": "pendingOut",
      "outputs": [
        {
          "name": "",
          "type": "uint256"
        }
      ],
      "payable": false,
      "stateMutability": "view",
      "type": "function"
    }
  ],
  "bytecode": "0x608060405234801561001057600080fd5b5061031d806100206000396000f3fe608060405260043610610078576000357c0100000000000000000000000000000000000000000000000000000000900463ffffffff1680634f1bfc9e1461007d578063acf1ba9f146100a8578063d12c33b7146100d3578063dbed1e881461013c578063e239c400146101a1578063ee0cfb09146101cc575b600080fd5b34801561008957600080fd5b50610092610231565b6040518082815260200191505060405180910390f35b3480156100b457600080fd5b506100bd610237565b6040518082815260200191505060405180910390f35b3480156100df57600080fd5b50610122600480360360208110156100f657600080fd5b81019080803573ffffffffffffffffffffffffffffffffffffffff16906020019092919050505061023d565b604051808215151515815260200191505060405180910390f35b34801561014857600080fd5b5061018b6004803603602081101561015f57600080fd5b81019080803573ffffffffffffffffffffffffffffffffffffffff169060200190929190505050610287565b6040518082815260200191505060405180910390f35b3480156101ad57600080fd5b506101b66102cf565b6040518082815260200191505060405180910390f35b3480156101d857600080fd5b5061021b600480360360208110156101ef57600080fd5b81019080803573ffffffffffffffffffffffffffffffffffffffff1690602001909291905050506102d9565b6040518082815260200191505060405180910390f35b60025481565b60035481565b6000426000808473ffffffffffffffffffffffffffffffffffffffff1673ffffffffffffffffffffffffffffffffffffffff16815260200190815260200160002054119050919050565b60008060008373ffffffffffffffffffffffffffffffffffffffff1673ffffffffffffffffffffffffffffffffffffffff168152602001908152602001600020549050919050565b6000600154905090565b6004602052806000526040600020600091509050548156fea165627a7a72305820ea96694ed0ab593b6f3cf0c45d284d5e6d88477bb786d2366cb21a159767ad3b0029",
  "source": "pragma solidity ^0.5.0;\r\nimport \"./Lockable.sol\";\r\n\r\ncontract Request is Lockable {\r\n    uint256 public pendingOutSum;\r\n\r\n    mapping(address => uint256) public pendingOut;\r\n\r\n    function _requestOut(\r\n        address _sender,\r\n        uint256 _amount)\r\n        internal\r\n        returns (uint256)\r\n    {\r\n        require(_amount > pendingOut[_sender], \"new amount must be greater than the older\");\r\n        uint256 _added = _amount - pendingOut[_sender];\r\n        pendingOut[_sender] = _amount;\r\n        pendingOutSum += _amount;\r\n        _setLock(_sender);\r\n        return _added;\r\n    }\r\n\r\n    function _removeRequest(\r\n        address _sender\r\n    )\r\n        internal\r\n    {\r\n        pendingOutSum -= pendingOut[_sender];\r\n        pendingOut[_sender] = 0;\r\n        _relock(_sender);\r\n    }\r\n}",
  "sourcePath": "C:\\Users\\bestb\\Desktop\\workshop\\sealing-pool\\contracts\\ntfPool\\Request.sol",
  "compiler": {
    "name": "solc",
    "version": "0.5.0+commit.1d4f565a.Emscripten.clang"
  },
  "schemaVersion": "3.0.6",
  "updatedAt": "2019-05-27T04:49:40.935Z",
  "devdoc": {
    "methods": {}
  },
  "userdoc": {
    "methods": {}
  }
}